:100000000C946B010C9493010C9493010C9468195B
:100010000C9468190C9468190C9493010C94E019D1
:100020000C9493010C9493010C94041D0C947D1B6F
:100030000C9493010C9493010C9493010C949301F0
:100040000C941E190C9493010C9493010C9493013D
:100050000C9493010C9493010C9493010C949301D0
:100060000C945E1A0C9493015374617475733F0081
:10007000496E626574726965626E61686D653F00A4
:10008000537465756572756E673F0043563F00494E
:1000900032432D5363616E3F006665727469670079
:1000A000307800506F7274457870616E64657220AC
:1000B0000056657273696F6E20004156522D536F62
:1000C000756E64204446506C617900506C617965AE
:1000D000722D53746174757300506C617965722D63
:1000E000436F6E74726F6C003F3F3F00536E64202D
:1000F0006F6E2053747000535726536E642D4E6FED
:100100002E0053572D44656C4F46460041647220C3
:100110004C4E2D5357004465626F756E632E4F4EE3
:1001200000534E442D57616974004C4E206D617828
:100130002041647200416472204C4E2D536E640065
:100140004C4E2D46756E63004C65762053572D4FEF
:100150006666004C65762053572D4F6E00536E64D3
:100160002D50617573650053572D4475726174008D
:1001700053572D44656C4F4E0053572D4D6F64758A
:1001800073005044352D4C6576656C00436F6E6688
:10019000696700536F6674772E2D49440056657267
:1001A00073696F6E0050696E206E632E0050696E29
:1001B00020696E7600536E642D4D6F647573005325
:1001C0006E642D4C6576656C00536E642D4E6F2EFB
:1001D00000446576696365494400726F00435600C8
:1001E0002057696564657267616265006F686E6556
:1001F0000053746F6572756E67002D2D3A2D2D00BA
:100200006661696C65640073746F72656400466151
:100210007374436C6F636B000000000024002700C0
:100220002A0000000008000201000003040700008B
:100230000000000000000086227E6DD24620290BBF
:100240002170104080523F065B4F666D7D077F6FC7
:10025000090D614843D35F777C395E79713D763013
:100260001E753815373F736B336D783E3E2A766EB8
:100270005B39640F2308025F7C585E7B716F7410DA
:100280000C753014545C7367506D781C1C14766EBA
:100290005B463070010000000000230026002900AA
:1002A00000000000250028002B00040404040404BE
:1002B0000404020202020202030303030303010215
:1002C00004081020408001020408102001020408E4
:1002D0001020371F522E11241FBECFEFD8E0DEBFF3
:1002E000CDBF12E0A0E0B1E0EEE6F4E602C005907A
:1002F0000D92A43AB107D9F726E0A4EAB2E001C012
:100300001D92A931B207E1F711E0CAE6D1E004C0BD
:100310002197FE010E94E430C936D107C9F70E9437
:10032000C7200C942A320C94000091E090933B0576
:1003300080935D0510923C0510925E050895089526
:1003400008958530A8F4262F2052330BF901EA5C7A
:10035000FD4FE491A82FB0E0AA0FBB1FA951BA4FDF
:1003600030E8439FA0011124E42BF0E0ED93FC93CF
:10037000089580E480937C0080917A00806480936B
:100380007A0080917A0086FDFCCF80917800909170
:1003900079000895833081F028F4813099F082301B
:1003A000A9F008958730A9F08830C9F08430B1F4FD
:1003B000809180008F7D03C0809180008F77809333
:1003C0008000089584B58F7784BD089584B58F7DAE
:1003D000FBCF8091B0008F778093B000089580911B
:1003E000B0008F7DF9CFCF93DF93282F30E0F90154
:1003F000EE5DFD4F8491F901E254FD4FD491F90176
:10040000E655FD4FC491CC23A1F081110E94CA0191
:10041000EC2FF0E0EE0FFF1FEA56FD4FA591B491CF
:10042000EC91ED2381E090E009F480E0DF91CF9141
:10043000089580E090E0FACF1F93CF93DF93282FA9
:1004400030E0F901EE5DFD4F8491F901E254FD4F7A
:10045000D491F901E655FD4FC491CC23A9F0162F94
:1004600081110E94CA01EC2FF0E0EE0FFF1FE05651
:10047000FD4FA591B4918FB7F894EC91111108C07C
:10048000D095DE23DC938FBFDF91CF911F9108952C
:10049000DE2BF8CFCF93DF9390E0FC01E254FD4FC9
:1004A000249186559D4FFC0184918823C9F090E0EA
:1004B000880F991FFC01E85EFD4FA591B491FC01E6
:1004C000E056FD4FC591D49161110DC09FB7F894CE
:1004D0008C91209582238C938881282328839FBF29
:1004E000DF91CF910895623051F49FB7F8943C9119
:1004F000822F809583238C93E8812E2BEFCF8FB7AB
:10050000F894EC912E2B2C938FBFEACF3FB7F89441
:1005100080912F0490913004A0913104B091320465
:1005200026B5A89B05C02F3F19F00196A11DB11D4E
:100530003FBFBA2FA92F982F8827BC01CD01620F8A
:10054000711D811D911D42E0660F771F881F991F45
:100550004A95D1F708958F929F92AF92BF92CF9212
:10056000DF92EF92FF924B015C010E9486026B01C9
:100570007C010E9486026C197D098E099F09683EE4
:10058000734081059105A8F321E0821A9108A10822
:10059000B10888EEC80E83E0D81EE11CF11C81145E
:1005A0009104A104B10429F7FF90EF90DF90CF9060
:1005B000BF90AF909F908F9008952FB7F89460915F
:1005C0002B0470912C0480912D0490912E042FBF48
:1005D00008958F929F92AF92BF92CF92DF92EF9247
:1005E000FF921F93CF93DF93182FEB010E94DD0240
:1005F0006B017C018090350490903604A090370404
:10060000B0903804C814D904EA04FB0409F453C0B8
:100610000E94DD02DC01CB0188199909AA09BB09F6
:1006200082339105A105B10578F422E3C22ED12CC5
:10063000E12CF12CA7019601281B390B4A0B5B0B0F
:10064000CA01B9010E94AB02109342011092440109
:10065000C09345018091400190914101890F9927F4
:10066000991F810F911D20914301820F911DC80F89
:10067000D91FD195C195D109D0934601C0934701A7
:10068000E0913304F091340409950E94DD026093F7
:100690003504709336048093370490933804DF91C7
:1006A000CF911F91FF90EF90DF90CF90BF90AF90D0
:1006B0009F908F9008950E94DD02A7019601261B4E
:1006C000370B480B590BDA01C901AACFCF93DF933F
:1006D000CFE3D1E08091D3039091D4036991DC0101
:1006E000ED91FC910190F081E02D0995B1E0C934C4
:1006F000DB0781F7DF91CF910895AF92BF92CF9240
:10070000DF92EF92FF920F931F93CF93DF936C01D1
:100710007B018B01040F151FEB015E01AE18BF08B2
:10072000C017D10759F06991D601ED91FC91019064
:10073000F081E02DC6010995892B79F7C501DF917C
:10074000CF911F910F91FF90EF90DF90CF90BF90CE
:10075000AF900895CF92DF92EF92FF920F931F9385
:10076000CF93DF93EC018D850E94F301182F8C85C8
:10077000181759F10E94DD02C880D980EA80FB80F9
:100780006C197D098E099F09CC80DD80EE80FF8089
:100790006C157D058E059F05C0F00E94DD02688303
:1007A00079838A839B831C87188619861A861B8601
:1007B00081E08E8781E090E0DF91CF911F910F91D2
:1007C000FF90EF90DF90CF90089588859985AA8556
:1007D000BB85892B8A2B8B2BD1F00E94DD020881EF
:1007E00019812A813B81601B710B820B930B088559
:1007F00019852A853B85601771078207930738F0B2
:100800000E94DD02688379838A839B83CDCF1E8615
:1008100090E080E0D1CFCF93DF9365E070E080E09F
:1008200090E00E94AB028091D3039091D403DC014D
:10083000ED91FC910084F185E02D09950A979CF0DB
:10084000CAE0D0E08091D3039091D403DC01ED9114
:10085000FC910284F385E02D0995019621F0219702
:1008600089F781E001C080E0DF91CF910895209168
:10087000D1033091D2032817390771F49091CF0337
:100880008091D003981741F0E091CF03F0E0E45756
:10089000FC4F808190E008958FEF9FEF08950895B9
:1008A000EF92FF920F931F93CF93DF93DC015C963F
:1008B000ED90FC905D97E114F10479F481E090E013
:1008C00013969C938E93129790E080E0DF91CF91E6
:1008D0001F910F91FF90EF9008955196ED91FC912B
:1008E000529750968C915097982F90950FB75E968F
:1008F0002C915E97122F127021FD6095F894208143
:10090000112319F1282B2083E7012197F1F728E023
:10091000462F50E0308160FF1AC0382B3083E7014A
:100920002197F1F7BA0175956795215089F7112341
:1009300081F08081892380830FBF5C968D919C918B
:100940000197F1F781E090E0C1CF2923DCCF392373
:10095000E5CF9081892BEFCF2091D1033091D20345
:100960002817390761F48091D0032091CF0390E0DC
:10097000805C9F4F821B91098F739927089590E0A7
:1009800080E008952091D1033091D20328173907D0
:10099000B9F49091CF038091D003981789F0E0913A
:1009A000CF03F0E0E457FC4F80812091CF0330E08B
:1009B0002F5F3F4F2F7333272093CF0390E008958D
:1009C0008FEF9FEF089520915E03260F3327331F8B
:1009D00021323105ECF420913505FC0190E080E0F6
:1009E000243069F082E00895A0915E032191AC016A
:1009F000425C5C4FA40FB52FB11D2C930196861756
:100A000098F380915E03680F60935E0380E0089521
:100A100081E008951092350581E0809334051092AD
:100A20000F0561E082E10E941C0261E083E10E9407
:100A30001C02E9EBF0E080818E7F808380818D7FD6
:100A4000808388E48093B80085E48093BC00089597
:100A500010920E0510920D0510923C0510925E0545
:100A60000E940A058FE991E090930C0580930B0595
:100A700080EA91E090930A05809309050895CF9349
:100A8000DF9391E090933D038823B9F0C091B800C3
:100A9000D091BA008091BC008A7B8093BC0060E05A
:100AA00082E10E941C0260E083E10E941C020E941D
:100AB0000A05D093BA00C093B800DF91CF91089592
:100AC0008F929F92AF92BF92CF92DF92EF92FF925E
:100AD0000F931F93CF93DF93D0915E05D13208F02F
:100AE000D7C0182FC0915D050E9486026B017C0162
:100AF0008091350581116BC082E08093350510939C
:100B000034058FEF8093330510923205D093310571
:100B1000ADE3B5E0E1E1F5E080E0D81391C01092DB
:100B2000100580911005CC0FC82BC0931005809143
:100B30000F05813009F088C010920F050E948602CF
:100B40006B017C01809110058093BB00809137057B
:100B500090913805A0913905B0913A05892B8A2BDF
:100B60008B2BA1F00E948602009137051091380569
:100B70002091390530913A056C197D098E099F093C
:100B8000061717072807390708F442C08091BC00F0
:100B900083FDD8CF85EC8093BC000E9486026B0158
:100BA0007C0180913505823009F450C08091330575
:100BB0008F3F09F46FC080913305803209F46CC017
:100BC00080913305803309F469C084E026C08091A8
:100BD000370590913805A0913905B0913A05892BD8
:100BE0008A2B8B2B09F484CF0E94860280903705D4
:100BF00090903805A0903905B0903A056C197D09A0
:100C00008E099F0986169706A806B90608F070CFC8
:100C1000809136050E943F0585E010923C051092B8
:100C20005E0510923B05DF91CF911F910F91FF90D0
:100C3000EF90DF90CF90BF90AF909F908F900895EE
:100C40009D9191938F5F69CF85EEA5CF80913705F8
:100C500090913805A0913905B0913A05892B8A2BDE
:100C60008B2B09F49ECF0E948602009137051091CC
:100C700038052091390530913A056C197D098E09A6
:100C80009F09061717072807390708F08ACFC0CF32
:100C900081E0C3CF80E0C1CF82E0BFCF83E0BDCF92
:100CA000CF92DF92EF92FF920F931F93CF93DF9338
:100CB000D82FC62F613208F098C00E9486026B01BF
:100CC0007C018091350581116BC081E080933505F1
:100CD000809334059FEF90933305109232059C0F5B
:100CE000909331058093100580911005DD0FD82B6E
:100CF000D093100580910F05813009F078C01092D3
:100D00000F050E9486026B017C0180911005809383
:100D1000BB008091370590913805A0913905B091BD
:100D20003A05892B8A2B8B2BA1F00E948602009119
:100D30003705109138052091390530913A056C1925
:100D40007D098E099F09061717072807390708F438
:100D500048C08091BC0083FDD8CF85EC8093BC0057
:100D60000E9486026B017C0180913505813009F477
:100D700040C0809132058C1710F4C0913205E1E13A
:100D8000F5E0A9E3B4E080E08C1355C08C2FDF912F
:100D9000CF911F910F91FF90EF90DF90CF9008952A
:100DA0008091370590913805A0913905B0913A05A9
:100DB000892B8A2B8B2B09F484CF0E948602009109
:100DC0003705109138052091390530913A056C1995
:100DD0007D098E099F09061717072807390708F0AC
:100DE00070CF809136050E943F05C0E0CFCF85EEE1
:100DF000B5CF8091370590913805A0913905B09114
:100E00003A05892B8A2B8B2B09F4AECF0E948602E0
:100E100000913705109138052091390530913A0538
:100E20006C197D098E099F090617170728073907CE
:100E300008F09ACFD6CF91919D938F5FA5CFE09187
:100E40000E0580910D05E81730F4F0E0E75CFB4FEC
:100E5000808190E008958FEF9FEF089590910E05A7
:100E600080910D052FEF3FEF981748F4E92FF0E040
:100E7000E75CFB4F208130E09F5F90930E05C90136
:100E8000089580910D0590910E05891B990B089589
:100E9000CF92DF92EF92FF920F931F93CF93DF9346
:100EA0007C01CB018A0120913B05222389F0EB01D3
:100EB0006B01C40ED51ECC15DD0569F06991D70113
:100EC000ED91FC910190F081E02DC7010995F3CFE0
:100ED000642F0E94E304C801DF91CF911F910F910D
:100EE000FF90EF90DF90CF900895CF93DF931F9204
:100EF000CDB7DEB7698320913B052223F9F020911D
:100F00005E05203258F021E030E0FC01338322837B
:100F100090E080E00F90DF91CF91089580913C05A3
:100F2000E82FF0E0E35CFA4F998190838F5F809324
:100F30003C0580935E0581E090E0ECCF61E0CE015E
:100F400001960E94E304F7CF682F8AEF95E00C9496
:100F5000750781E00C946005CF93DF93C6E0D6E07F
:100F60008A8388810E9495018E819F81DC01ED91A9
:100F7000FC910190F081E02D6A8109958E819F811D
:100F80000E94A90790E09D838C83DF91CF91089503
:100F9000CF93DF93EC018B81882371F088810E94CD
:100FA000950189819A810E94A90791E0811190E0C1
:100FB000892FDF91CF9108950E94280581E08B83CE
:100FC000CE010E94C807982F8111E8CFF1CFCF93AF
:100FD000DF93D62FC72FFC01808180620E9495018C
:100FE00082E10E94A4078D2F0E94A4078C2F0E94EB
:100FF000A4078AEF95E0DF91CF910C94A907CF93D6
:10100000DF93EC0168830E942805888180620E943A
:10101000950180E00E94A4078FEF0E94A4078AEF49
:1010200095E00E94A907888180620E94950181E075
:101030000E94A4078FEF0E94A4078AEF95E0DF913A
:10104000CF910C94A9079C01DC01A058BF4FEC91F3
:1010500091E09E0F9C93E20FF32FF11D608397FDAB
:101060001C920895FC0180818076803611F4818184
:1010700008958081829586708E5F0895CF92DF9269
:10108000EF92FF920F931F93CF93DF93EC0109E14F
:101090001EE2EE24E394F12C93E0D92ECC24C394E9
:1010A000CE010E94320880937904E0917904E150E6
:1010B000109278048FEF909178049E1768F4A091B5
:1010C0007804AC0FBD2FB11D9C91892790917804B5
:1010D0009F5F90937804EFCFEC0FFD2FF11D80837D
:1010E000F89480917704813059F4809176048117C7
:1010F00038F01092770480916F008D7F80936F009D
:10110000789480917704813031F480917604843131
:1011100038F2C12CC5CF8091770481110EC0F894AC
:1011200080916F008F7D80936F00B59B09C0809187
:101130006F00806280936F007894C110B1CF56C069
:10114000E0917404F091750480819091730497018B
:1011500001C0220F9A95EAF7822B80838091840048
:10116000909185008A5A9C4F9093720480937104E9
:10117000809171049091720490938900809388000B
:101180007894D0937004C0936F04109278041092F6
:101190006E04888180936D04D09277041092760457
:1011A000B19A80916F00826080936F008091770484
:1011B0008330E1F380916E048823B1F0E0916B04F9
:1011C000F0916C04E757FF4F8081918101969183E4
:1011D000808383E090E0DF91CF911F910F91FF908A
:1011E000EF90DF90CF900895809177041B3108F045
:1011F0001150015009F052CF8091050590910605DC
:101200000196909306058093050586E090E0E3CF74
:10121000CF93DF93CDB7DEB760970FB6F894DEBFFC
:101220000FBECDBF8BEB89838BE78A831B82CE01F8
:1012300001960E943E0860960FB6F894DEBF0FBE7E
:10124000CDBFDF91CF9108951092EC0370E060E084
:1012500086E10E94E90262E370E080E090E00C9495
:10126000AB020E9424091092260408958091200167
:10127000811103C08091FD030895823019F480919B
:10128000EE03089580E00895CF93DF93C091240486
:1012900080912304DC2FC82F809120049091210499
:1012A0008C179D0749F0BE0182E294E00E94E70797
:1012B000D0932104C0932004DF91CF910895EF9241
:1012C000FF920F931F93CF93662309F44EC0209192
:1012D0002C01C1E027FD04C0411104C0C0E002C0E0
:1012E0004111FCCF8C01E0902E01F0902F01C7013D
:1012F00001978F3F974008F03EC00E151F0539F447
:10130000C0930D04C1110E9424091092EB03809137
:101310002C0181FF1BC0809130018823B9F0E114BA
:10132000F104A1F00E151F0588F08E0D9F2D911D63
:101330000817190758F4FF24F394F00EFE18C09311
:101340000D04C1110E942409F092EB038091360133
:10135000909137019C01215031092F3F374028F4EB
:101360000817190711F4C093ED03CF911F910F9146
:10137000FF90EF900895F12CE12CC9CF089590E0F3
:1013800080E00895EF92FF920F931F93CF93DF9326
:10139000DC0114962D913C912417350710F490E050
:1013A0001DC0EA017B018C01FC0180810E94950136
:1013B000D80111968D919C91DC01ED91FC910280F8
:1013C000F381E02DAE01B7010995C817D90739F7A8
:1013D00081E00E94600591E08111E1CF892FDF91CA
:1013E000CF911F910F91FF90EF900895CF93DF93CE
:1013F000CDB7DEB761970FB6F894DEBF0FBECDBF95
:101400001982A7EEB5E0FE013196BF019C911196BD
:101410008C911197129691838283329685E0A73F33
:10142000B807A1F741E150E08091F7059091F805E8
:101430000E94C20961960FB6F894DEBF0FBECDBF01
:10144000DF91CF9108950E94500610920E0580936F
:101450000D050895FF920F931F93CF93DF938C0197
:10146000C62FDCE0683010F0C850DDE0F801808164
:1014700080620E9495018D2F0E94A4078AEF95E05B
:101480000E94A907F8018081806261E070E090E02D
:101490000E94230A8AEF95E00E942E07F82EF80199
:1014A000808180620E9495018D2F0E94A40781E0B7
:1014B00090E001C0880FCA95EAF78F290E94A4071F
:1014C0008AEF95E0DF91CF911F910F91FF900C94DF
:1014D000A9070F931F93CF93DF938C01C62FD2E1FF
:1014E000683010F0C850D3E1F801808180620E941A
:1014F00095018D2F0E94A4078AEF95E00E94A9070D
:10150000F8018081806261E070E090E00E94230A2F
:101510008AEF95E00E942E07992702C0959587953E
:10152000CA95E2F78170DF91CF911F910F910895D5
:10153000EF92FF920F931F93CF93DF930CEA15E086
:10154000D0E0C0E08FE1F82EEC2EF80161918F0120
:1015500080E0603120F488EB95E00E94690A90E019
:1015600002C0880F991FEA94E2F780959095F822BF
:101570002196C530D10541F78F2DDF91CF911F9175
:101580000F91FF90EF900895EF92FF920F931F93AA
:10159000CF93DF9380911B0428E0829FC001112428
:1015A000C091F80320E1C29FE0011124C82B809173
:1015B0000D0420E2829FC0011124C82B80910C04ED
:1015C00020E4829FC0011124C82B8091ED0320E804
:1015D000829FC0011124C82B0E94980A80FF15C069
:1015E00080911F04880F00911D0494E0099F8001E1
:1015F0001124802B00911C04802B8C2BDF91CF9128
:101600001F910F91FF90EF90089584E00E94F301E5
:101610007C0185E00E94F3018C0188E00E94F301C7
:10162000000F111F880F991F880F991F082B0E2973
:101630008C2F802BE3CFFF920F931F93CF93DF93D9
:101640001F92CDB7DEB78C016983F42EF801478372
:10165000608785E090E095838483642FCE010196B6
:101660000E94690AF80116826F2DCE0101960E9430
:10167000690A882319F083E0F80186830E94DD025D
:10168000F80160837183828393830F90DF91CF9100
:101690001F910F91FF900895EF92FF920F931F9368
:1016A000CF93DF938C01C62FE42E84E1F82ED2E194
:1016B000683020F0C85095E1F92ED3E1F80180811F
:1016C00080620E9495018F2D0E94A4078AEF95E009
:1016D0000E94A907F8018081806261E070E090E0DB
:1016E0000E94230A8AEF95E00E942E0721E030E055
:1016F00001C0220FCA95EAF7F1E0C82FC22BEF16FE
:1017000019F02095C22FC823F801808180620E94C1
:1017100095018D2F0E94A4078C2F0E94A4078AEFA9
:1017200095E0DF91CF911F910F91FF90EF900C9476
:10173000A907FC01962F828D8F3F31F0603140F474
:10174000CF014B960C944C0B642F892F0C941C02E8
:1017500008950F931F93CF93DF93C62F8C01055EDF
:101760001F4FD1E062FB442740F94D2768E0C801D4
:101770000E944C0BC1FB442740F94D2767E0C8018C
:101780000E944C0B4C2F4095417066E0C801DF91E0
:10179000CF911F910F910C944C0BFF920F931F93BD
:1017A000CF93DF938C01C62FF42ED0E0683010F079
:1017B000C850D1E0F801808180620E9495018D2F90
:1017C0000E94A4078AEF95E00E94A907F801808192
:1017D000806261E070E090E00E94230A8AEF95E069
:1017E0000E942E0721E030E001C0220FCA95EAF7DF
:1017F000C82FC22BFF2019F02095C22FC823F80153
:10180000808180620E9495018D2F0E94A4078C2FF9
:101810000E94A4078AEF95E0DF91CF911F910F916D
:10182000FF900C94A907603110F40C94CD0B08952F
:10183000CF93DF93EC01888180620E94950182E161
:101840000E94A4078AEF95E00E94A9078881806220
:1018500062E070E090E00E94230A8AEF95E00E9427
:101860002E07C82F8AEF95E00E942E0720E0382F20
:10187000C9018C2BDF91CF910895CF93DF93EC01B9
:1018800040E06E810E94990B41E06E81CE010E9482
:10189000990B40E06E81CE010E94990B8BE891E09C
:1018A0000197F1F7DF91CF910895AF92BF92CF9258
:1018B000DF92EF92FF920F931F93CF93DF93EC0190
:1018C0008A8D8E01095F1F4FC62ED12C8F3F09F4E0
:1018D00066C07E018BE1E80EF11CC7010E94180C66
:1018E000F80130E020E001E010E04191B801042E61
:1018F00002C0660F771F0A94E2F760957095862301
:101900009723B601022E02C0759567950A94E2F7F7
:101910006170772702C0660F771F4A95E2F7862B22
:10192000972B2F5F3F4F24303105F9F62E81680148
:1019300002C0CC0CDD1C2A95E2F7C094D094C822DA
:10194000D922B601C7010E94E7078E81B80102C003
:10195000660F771F8A95E2F7C62AD72AB601C70114
:101960000E94E7078E81B80102C0660F771F8A9533
:10197000E2F7609570956C217D21C7010E94E70711
:101980008BE891E00197F1F7DF91CF911F910F91D3
:10199000FF90EF90DF90CF90BF90AF900895F12C23
:1019A000E12C5E01EBE1AE0EB11CF80181918F01DB
:1019B0009A8D9F3F39F141E0682FC5010E94130CB9
:1019C000A6010E2C02C0559547950A94E2F7417086
:1019D000F80131976081CE010E94990BFFEFEF1A59
:1019E000FF0A84E0E816F10401F7CE01DF91CF9100
:1019F0001F910F91FF90EF90DF90CF90BF90AF902D
:101A00000C943D0C61E00E944A02DACFAF92BF9283
:101A1000CF92DF92EF92FF920F931F93CF93DF93BA
:101A2000EC01F62E6C810E94990B6D816F3F21F0C5
:101A300040E0CE010E94990B0F2D10E08C8984FFAD
:101A40003BC06E0187E0C80ED11CF12CE12C5E0179
:101A5000EBE1AE0EB11CF60181916F019A8D9F3FB3
:101A600039F141E0682FC5010E94130CA8010E2C2A
:101A700002C0559547950A94E2F74170F6013197F7
:101A80006081CE010E94990BFFEFEF1AFF0A88E0F8
:101A9000E816F10401F7CE01DF91CF911F910F916C
:101AA000FF90EF90DF90CF90BF90AF900C943D0CE3
:101AB00061E00E944A02DACFB80184E0759567952B
:101AC0008A95E1F7CE010E94550C6F2DCE01DF9172
:101AD000CF911F910F91FF90EF90DF90CF90BF902B
:101AE000AF900C94550C41E00E94060D81E090E00F
:101AF000089541E0682F8DE995E00E94060D81E090
:101B000090E008950F931F93CF93DF938C01D0E063
:101B1000C0E0F801EC0FFD1F6491662339F041E04D
:101B20008DE995E00E94060D2196F3CFCE01DF915D
:101B3000CF911F910F91089540E00C94060DCF9323
:101B4000DF93CDB7DEB728970FB6F894DEBF0FBE90
:101B5000CDBF98E0EFE4F1E0DE01119601900D9227
:101B60009A95E1F79091B505961708F46FEF262F37
:101B700030E0220F331F41E050E04C0F5D1F240F77
:101B8000351FF9016081680F60688DE995E028963E
:101B90000FB6F894DEBF0FBECDBFDF91CF910C948E
:101BA0009C0D61E00E949C0D8BE39FE10197F1F792
:101BB00008958DE995E00E94D10D60E080E00E94DB
:101BC0009F0D89ED90E00C94820D8DE995E00E94C7
:101BD000D10D60E080E00E949F0D8BEC90E00C94B2
:101BE000820D8DE995E00E94D10D60E080E00E94B9
:101BF0009F0D8FE890E00E94820D82ED80930F048C
:101C000008958DE995E00E94D10D60E080E00E948A
:101C10009F0D8BE890E00E94820D88EC80930F046A
:101C200008958DE995E00E94D10D60E080E00E946A
:101C30009F0D80E890E00E94820D88E080930F0461
:101C400008958DE995E00E94D10D60E080E00E944A
:101C50009F0D80E790E00E94820D82E080930F0448
:101C600008958DE995E00E94D10D60E080E00E942A
:101C70009F0D88E690E00E94820D81E080930F0422
:101C800008954F925F926F927F928F929F92AF9240
:101C9000BF92CF92DF92EF92FF920F931F93CF9359
:101CA000DF9381E0809333038091CD039091CE0345
:101CB00001969093CE038093CD03011104C08091CF
:101CC0002C0183FFA2C0D22F042F0E94DD0260935B
:101CD000E7037093E8038093E9039093EA0380910C
:101CE0003403D81709F48DC080912C0190912D01F7
:101CF00080729927D0FD04C0892B21F082E003C0B7
:101D0000892BE1F381E08093E4038091E60388234B
:101D100029F08091E4038C6F0E94AC078091CC0382
:101D2000882309F46EC06D2F70E084E6089F600D73
:101D3000711D1124072E000C880B990B0E94992FFE
:101D40002B013C0120E030E040E05FE30E94852E63
:101D50000E94682F6B017C01812C912C30E8A32E0E
:101D60003FE3B32E10E080E1C81687E2D806E10415
:101D7000F104E0F0115020E030E040E251E4C50110
:101D8000B4010E94F62E4B015C01AC019B01C30122
:101D9000B2010E94493020E030E040E05FE30E9461
:101DA000852E0E94682F6B017C01DDCF20E030E0A2
:101DB00040E85FE3C501B4010E94F12E712CC4E03C
:101DC0002AE0822E912CA12CB12C87FF2FC080E419
:101DD00090E09093E8058093E7059093EA0580935F
:101DE000E9059093EE058093ED059093F0058093BF
:101DF000EF0582E090E09093EC058093EB050E9464
:101E0000F60900933503D0933403DF91CF911F91EE
:101E10000F91FF90EF90DF90CF90BF90AF909F9089
:101E20008F907F906F905F904F900895C114D10470
:101E3000E104F10411F4171588F1112319F0442479
:101E400043941711412C5C2EC1506C2E84E08515F3
:101E500058F0C701B601A50194010E94C230605D2F
:101E6000442D852D0E94A101C23069F4CEEFC50D2D
:101E700084E0861540F0E62DF0E0EE0FFF1FE951FB
:101E8000FA4F11821082C701B601A50194010E9488
:101E9000C23069017A017394C9CFC150C7FDA9CF7F
:101EA000C530DCF7EC2FF0E0EE0FFF1FE951FA4FE1
:101EB00011821082F2CF0F93082F209162042354D5
:101EC0008091640498E9980F883618F468E10E94BC
:101ED000B630492F6091650480915F040E94410EE5
:101EE0000F9108958F929F92AF92BF920F931F937D
:101EF000CF93DF93CDB7DEB7A1970FB6F894DEBFCF
:101F00000FBECDBF19A2423008F44AE08E010F5D2A
:101F10001F4F842E912CB12CA12CA50194010E945D
:101F2000C230E62FB901CA01EA3044F5E05DD801BC
:101F3000EE938D01232B242B252B79F790E080E065
:101F4000109769F0FD0101900020E9F73197AF018A
:101F50004A1B5B0BBD018DE995E00E947D03A196B4
:101F60000FB6F894DEBF0FBECDBFDF91CF911F91AA
:101F70000F91BF90AF909F908F900895E95CD7CF5D
:101F8000CF93C82F87FD21C080E30E94790DC03414
:101F9000E0F480E30E94790DC032B8F480E30E943F
:101FA000790DC03190F480E30E94790DC83068F457
:101FB00080E30E94790DC43040F480E30E94790DE3
:101FC000C23018F480E30E94790D6C2F70E090E02D
:101FD00080E042E0CF910C94720FCF93DF93EC013D
:101FE0006530D8F0C03187E2D80750F480E30E9412
:101FF000790DC83E83E0D80718F480E30E94790D7C
:10200000C436D10518F480E30E94790DCA30D10599
:1020100050F480E30E94790D06C0643051F36330C0
:1020200079F3623099F3BE0190E080E04AE0DF91FD
:10203000CF910C94720F8DE995E00E94D10D60E074
:1020400080E00E949F0D8AEB90E00E94820D61E08B
:1020500080E00E949F0D81EB90E00E94820D6091D4
:1020600018017091190190E080E04AE00C94720F21
:102070000F931F93CF93DF930E94280580E20E9465
:1020800095018AEF95E00E94A9079091DC038823CF
:1020900041F1992319F010920E0490E09093DC0323
:1020A000DF91CF911F910F91089560628DE995E0C6
:1020B0000E949C0D8BE496E40197F1F76091B105C5
:1020C00060628DE995E00E949C0D83E592E00197A6
:1020D000F1F76091B10560628DE995E00E949C0D79
:1020E000ACC0911120C160E086EE95E00E94FF0730
:1020F0008091B7058F3F09F458C00E94280560E021
:1021000088EB95E00E94FF0741E068E088EB95E0EE
:102110000E94CD0B41E066E088EB95E00E94CD0B7C
:1021200041E067E088EB95E00E94CD0B67E08DE928
:1021300095E00E94A90B6091A205662329F041E079
:1021400088EB95E00E94130C41E06091A10588EBBB
:1021500095E00E94130C41E06091A30588EB95E0A7
:102160000E94130C04EA15E0CDE9D5E0F801619175
:102170008F0141E088EB95E00E94130CF5E0083AEE
:102180001F07A1F702EA15E040E06F8588EB95E0B4
:102190000E94130C6F85603120F488EB95E00E945B
:1021A0002A0A21960C171D0779F78091B1058860DE
:1021B0008093B10582E08093B5051092B6058BE35C
:1021C0009DE00197F1F740E06091A1058DE995E070
:1021D0000E94990B40E06091A3058DE995E00E9473
:1021E000990B6091A2056F3F29F040E08DE995E0E1
:1021F0000E94990B6091B10564FD57CF63E08DE9B2
:1022000095E00E94550CCBE4D6E4CE010197F1F79E
:1022100063E08DE995E00E94550C2197F1F763E0AA
:102220008DE995E00E94550C83E592E00197F1F766
:1022300062E08DE995E00E94550C6091B105606205
:102240008DE995E00E949C0D84E08093B2056CE0DE
:102250008DE995E00E949C0D8DE995E00E94D10DDD
:1022600082E08093B30566E08DE995E00E949C0DC5
:1022700040E065E086EE95E00E94CD0B65E086EEDD
:1022800095E00E942A0A44E050E06091E60589EB5F
:1022900095E00E941B0B43E050E06091E6058BEC5B
:1022A00095E00E941B0B42E050E06091E60584ED52
:1022B00095E00E941B0B41E050E06091E60582EC46
:1022C00095E00E941B0B50E040E06091E6058DED2B
:1022D00095E00E941B0B80911A0190911B010597BC
:1022E00011F40E941B101092360310923B031092BF
:1022F0000F0410923A03109239038FEF9FEF9093DF
:10230000090180930801909307018093060190933F
:102310000B0180930A01909305018093040190932F
:1023200003018093020191E0B9CECF92DF92EF9248
:10233000FF9283EA90E00E94820D8091180481113F
:1023400004C080911304882301F180910F048A5006
:10235000990B6C01092E000CEE08FF0897FF11C0C5
:102360008DE20E94790D66277727CB016C197D09D4
:102370008E099F094AE0FF90EF90DF90CF900C9478
:10238000720F4AE0C701B601F6CFFF90EF90DF90E1
:10239000CF900895FC0182818B37B9F58081877FCA
:1023A000873E99F5828586FF31C0809159049091CE
:1023B0005A04181619064CF58EE0ACE5B4E001900D
:1023C0000D928A95E1F781E00E945B0F80E090E03A
:1023D000892BA9F080915B0482FF11C020916104D8
:1023E00030E8239FC001112420916004280F392F69
:1023F000311D8FEF9FE3821B930B0E94000082E050
:1024000090E090935A0480935904089583E090E0FB
:10241000F8CF85ED8093BC00809137059091380509
:10242000A0913905B0913A050796A11DB11D23E091
:10243000B695A795979587952A95D1F72091BC00D9
:1024400024FD03C010923505089540913705509141
:1024500038056091390570913A05452B462B472B7D
:1024600069F30097A105B10541F02AE22A95F1F739
:1024700000C00197A109B109E1CF809136050C9404
:102480003F052F923F924F925F926F927F928F9271
:102490009F92AF92BF92CF92DF92EF92FF920F93F3
:1024A0001F93CF93DF9300D000D0CDB7DEB79C83CE
:1024B0008B837C0141E8E40EF11C6C0150E8C50EF1
:1024C000D11C8C010E571F4F8D579F4F2C018B81B4
:1024D0009C818C579F4F4C0122242A94AB80BC8056
:1024E00097E8A90EB11CEB81FC81EB57FF4FFA83F3
:1024F000E983F7018081F6019081891709F4BAC058
:10250000EB81FC81E80FF11D308037FE6DC0F801D2
:102510009081891739F0F501208131812F5F3F4F7C
:1025200031832083F8018083F2012082832D80761D
:10253000F401803609F441C0832D829586708E5F48
:102540008083F8012081F4018081820F9927991FEF
:10255000813891059CF180E8682E621AF894F601A2
:102560004081F8018081841708F044C0F42FF81BE3
:102570008F2FF60180837894F80160814617E8F583
:10258000712C50E06B817C81CB01860D971D0E94E0
:102590000F32F80160814B815C81460F511DBA01F9
:1025A000A3018B819C810E940F32F7018081F80189
:1025B0009081891BF7018083F8011082F7019081D7
:1025C0009F5F9083F8018081392F381B97FF02C0ED
:1025D000F7011082F2012081F40190819317A9F094
:1025E0003226F201308285CFF40180818111E6CF5D
:1025F0003082A7CF862D840FBCCF461B50E08B8145
:102600009C81860F911DBC01CCCF32122AC04B8118
:102610005C81480F511DCA01E981FA8140815181D5
:102620004F5F5F4F51834083F7013081F801308362
:102630000097B1F20F900F900F900F90DF91CF9114
:102640001F910F91FF90EF90DF90CF90BF90AF90D0
:102650009F908F907F906F905F904F903F902F90C2
:102660000895F5018081918101969183808390E0A6
:1026700080E0DACF90E080E0DDCF8F929F92AF9242
:10268000BF92CF92DF92EF92FF920F931F93CF935F
:10269000DF93C090E103D090E203F601D581D370BF
:1026A000D061882EE89487F887FDDC5F962EE89449
:1026B00097F867FDD85FA42EE894A7F811E147FFCB
:1026C00010E1B22EE894B7F827FD1E5FF02EE894D3
:1026D000F7F807FD1C5F0E2D0F77E7FC185FF6017A
:1026E000C2818381C82788E0C8278681C82787815F
:1026F000C827C027CF25CB25CA25C925C825CD2762
:10270000C12765EE84EA92E00E94230860E184EA32
:1027100092E00E942308F601628184EA92E00E941E
:102720002308F601638184EA92E00E94230862E0B4
:1027300084EA92E00E9423086D2F84EA92E00E94CE
:102740002308F601668184EA92E00E942308F601DC
:10275000678184EA92E00E942308682D84EA92E06F
:102760000E942308692D84EA92E00E942308612FC9
:1027700084EA92E00E9423086A2D84EA92E00E9493
:1027800023086B2D84EA92E00E9423086F2D84EACF
:1027900092E00E942308602F84EA92E00E942308BE
:1027A0006C2F6F7784EA92E00E9423086FEF84EA2F
:1027B00092E00E94230884EA92E00E9441129093E2
:1027C000E2038093E103009711F00E943E0881E04C
:1027D000DF91CF911F910F91FF90EF90DF90CF90FD
:1027E000BF90AF909F908F9008950F931F93CF93BA
:1027F000DF93E82FF0E099E0899FD0011124AF59D1
:10280000BE4F15962D913C9126173707C0F08B01CE
:10281000C82FEE0FFF1FE45FFE4F71836083CF5F11
:10282000CC0FD0E0612FCE010E94762E602FCE011A
:102830000196DF91CF911F910F910C94762EDF912D
:10284000CF911F910F910895893110F40C94F513D5
:102850000895CF93DF936DE490E080E00E94762EA0
:102860006AE581E090E00E94762EC1E6D1E06981C0
:102870007A8188810E942414299682E0C234D80784
:10288000B1F7DF91CF910895EF92FF920F931F93CD
:10289000CF93DF9365E086EE95E00E94690A20E21F
:1028A000829FC00111248095909561E085FD60E0D4
:1028B0008DE995E00E94A90B0E94980A90913B0334
:1028C00081110CC0992309F467C010923B03DF917A
:1028D000CF911F910F91FF90EF900895891709F400
:1028E0005BC090910F0480933B0391110AC082FF5B
:1028F000EECFDF91CF911F910F91FF90EF900C944D
:10290000310E9130C9F483FF05C00E941B10109254
:102910000F04DDCF82FF08C0DF91CF911F910F918F
:10292000FF90EF900C94210E81FF36C00E94E50DC0
:102930008AE080930F04CBCF9230B1F483FDD9CFDE
:1029400082FF08C0DF91CF911F910F91FF90EF9010
:102950000C94110E81FF20C0DF91CF911F910F9138
:10296000FF90EF900C94010E953089F48C71A1F0DA
:102970008DE995E00E94D10D60E080E00E949F0DFE
:1029800080911304882309F47AC18CE079C19730CF
:1029900009F031C183FDD6CF80910F04853009F055
:1029A00095C3C0912804D091290480910A01909187
:1029B0000B01C817D90771F0D0930B01C0930A011E
:1029C00061E080E00E949F0D8D2F0E94C00F8C2F30
:1029D0000E94C00F80910F048730C9F461E080E04D
:1029E0000E949F0D80913303882309F476C3C09120
:1029F00034038091350362E090E00E94ED0F8AE39A
:102A00000E94790D62E08C2F90E00E94ED0F809182
:102A10000F048A3009F083C361E080E00E949F0DBB
:102A20000E94C40AC0911A04DC2FC82F0E943609E4
:102A3000E0902604F82E1091EC038091080190910B
:102A40000901C817D90761F4809106019091070127
:102A5000E816F90629F480913603181709F453C0D3
:102A6000D0930901C09308010E94E50D8FEF9FEFFD
:102A7000909307018093060161E080E00E949F0D22
:102A80000E94C40A0E94C00F61E08CE00E949F0D6A
:102A9000C0911A0480911904882309F42BC3C0FD46
:102AA00021C3C1FD21C3C2FD21C3C3FD21C386E6ED
:102AB0000E94790D63E08C2F90E00E94ED0F61E0A1
:102AC00089E00E949F0DF0920701E092060160915B
:102AD000260470E090E080E04AE00E94720F0E94BD
:102AE0003609682F70E090E080E04AE00E94720FA3
:102AF00060E08EE00E949F0D63E0812F90E00E94D5
:102B0000ED0F1093360380910F048B3009F019C339
:102B1000C0911504D0911604809104019091050193
:102B2000C817D90799F0D0930501C093040161E05B
:102B300080E00E949F0D80911804882309F4FCC254
:102B40008D2F0E94C00F8C2F0E94C00F80910F0408
:102B50008C3009F002C3C0911004D091110480910F
:102B6000020190910301C817D90799F0D09303018E
:102B7000C093020161E080E00E949F0D80911304E8
:102B8000882309F4E5C28D2F0E94C00F8C2F0E946C
:102B9000C00F80910F04823109F0E6C261E080E04D
:102BA0000E949F0D0E94C40AC0913903D0913A033C
:102BB00020E03C2F282B80910001909101012817E3
:102BC000390709F484CE30930101209300010E945B
:102BD000D90D61E080E00E949F0D8EE30E94790D87
:102BE00063E0CE010E94ED0F0E94C40A83FF6FCE06
:102BF00080EE91E02EC09830A1F583FD8DCE81FF4F
:102C000015C080910E0190910F0190933A0380932B
:102C100039030E94D90D82E180930F04DF91CF9197
:102C20001F910F91FF90EF900C94240982FFB4CE76
:102C300080912C0182FF4BCE87E080930F048DE9B9
:102C400095E00E94D10D60E080E00E949F0D8EE033
:102C500092E0DF91CF911F910F91FF90EF900C9434
:102C6000820D9A30B9F484FD44CE81FF95CE8DE972
:102C700095E00E94D10D60E080E00E949F0D8BE006
:102C800080930F04DF91CF911F910F91FF90EF90F0
:102C90000C9495119B30B1F484FD48CE81FF7CCE1D
:102CA0008DE995E00E94D10D60E080E00E949F0DCB
:102CB00080911304811169CE81EF91E00E94820D11
:102CC00085E037CE9C3069F484FDD1CF81FF64CE9E
:102CD0008DE995E00E94D10D60E080E00E949F0D9B
:102CE000EBCF923199F584FF03C00E9424092ACECC
:102CF00083FF10C00E9424098091390390913A0308
:102D0000019729F090933A0380933903E0CD8FEF38
:102D100090E0F8CF82FF0BC00E9424098091390314
:102D200090913A03019671F781E090E0EBCF81FF3B
:102D30000AC080913903DF91CF911F910F91FF90CD
:102D4000EF900C944E1D80FF27CE68CF943108F48D
:102D50009CC120919C05291708F47AC11CEE190F1B
:102D600080FF4EC0F0903803FF2009F4B0CD609191
:102D7000390370913A03C12FD0E01630E1F4672B8C
:102D8000A1F40E942914CC0FDD1FC45FDE4F88819F
:102D900099810E94C11D61E08AE00E949F0DFF2081
:102DA00009F4F1C187E092E0F0C164E170E086E0EF
:102DB0000E94F513E8CF89E08C9FF0018D9FF00D04
:102DC0001124EF59FE4F838194816817790708F425
:102DD000E9C1858196818617970708F4E3C180854C
:102DE0008111E0C1812F0E942414193160F28FEF0C
:102DF0009FEF0E94C11D61E08AE00E949F0DD2CF2B
:102E000084FF12C080913803882349F01092380360
:102E1000E12F193108F4B5C08FEF9FEF07C10E9471
:102E2000010E10920E0453CD81FF5CC080913803D7
:102E300081111FC01931E8F4E12FF0E039E0139F50
:102E4000D0011124AF59BE4F18968C91811111C039
:102E5000EE0FFF1FE45FFE4F8081918190933A0354
:102E60008093390321E020933803109237030E94A6
:102E7000C11D80913803882309F429CDC0913703FF
:102E8000CF5FC0933703193148F449E0149FF00134
:102E90001124EF59FE4F8781823061F0812F0E940B
:102EA000A01D90E00196C817190631F481E08093C7
:102EB000370302C0C930D1F361E0809137030E942B
:102EC0009F0D6091B205862F82608093B2056A6083
:102ED0008DE995E0DF91CF911F910F91FF90EF90D9
:102EE0000C949C0D83FF55C0809138038823E1F139
:102EF000C0913903D0913A038FEF9FEF193138F524
:102F0000E12EF12C59E0159FF0011124EF59FE4FED
:102F10000781023008F04AC1812F0E946E1D8C0F7C
:102F20009D1F90933A03809339038C179D0708F0F7
:102F30003DC1D0933A03C093390389E08E9DF001DF
:102F40008F9DF00D1124EF59FE4F858196812091C0
:102F5000390330913A038217930708F063C0D09386
:102F60003A03C09339035EC09F5F90930F0492179A
:102F700010F020930F04E0910F04E451E93108F0C0
:102F80004BCFF0E0EE0FFF1FE45FFE4F8081918199
:102F90004DC082FF45C180913803882309F44EC09B
:102FA000C0913903D0913A0390E080E0193140F5A7
:102FB000E12EF12C59E0159FF0011124EF59FE4F3D
:102FC0000781023008F00FC1812F0E946E1D9E0103
:102FD000281B390B30933A0320933903C217D307C8
:102FE00008F001C1D0933A03C093390389E08E9D64
:102FF000F0018F9DF00D1124EF59FE4F83819481D4
:103000002091390330913A032817390720F4D093DF
:103010003A03C09339038091390390913A030196A2
:1030200009F49DCF8091390390913A03DF91CF91BC
:103030001F910F91FF90EF900C94C11D91509093B0
:103040000F04933109F097CF84E180930F0493CF5D
:10305000983CD9F482FF08C0DF91CF911F910F9166
:10306000FF90EF900C94F10D84FD56CC81FF94CC31
:1030700084E180930F0480910C0190910D010E94D6
:10308000C11D81E080930E0422CC923D09F0CEC098
:1030900083FD62CC84FD40CC81FF7ECC83ED8093A8
:1030A0000F0460E088E00E949F0D80E20E94790D8D
:1030B0008FEF9FEF90933A0380933903DF91CF9185
:1030C0001F910F91FF90EF900C94ED1E8FEF9FEFEB
:1030D00090930B0180930A017DCC8AEF91E00E94CE
:1030E000820D95CCC1E0E3CCC2E0E1CCC3E0DFCC03
:1030F000C4E0DDCC20911C0130911D01C90182701A
:10310000992720FF05C0892B29F4CF5F83E7D0CC16
:10311000892B19F0CC0F8CE6CBCC8EE2C9CC8FEF8B
:103120009FEF90930901809308019093070180938A
:10313000060180933603E7CC8CEE91E00E94820D6D
:1031400005CD8FEF9FEF9093050180930401FECC96
:103150008CEE91E00E94820D1CCD8FEF9FEF90933B
:1031600003018093020115CD8FEF9FEF9093010132
:1031700080930001ACCB8FEF9FEF0E94C11D61E0F7
:103180008AE00E949F0D80E092E00E94820D61E043
:1031900080913703DF91CF911F910F91FF90EF90B6
:1031A0000C949F0D193138F7F12CEDCD023009F058
:1031B000C4CE8091370328E030E0281B310981E03C
:1031C00090E0AC0102C0440F551F2A95E2F79A0126
:1031D0008091390390913A03842B932B90933A0377
:1031E00080933903AACE023009F000CF80913703D3
:1031F00028E030E0281B310981E090E002C0880F10
:10320000991F2A95E2F78095909520913903309186
:103210003A038223932390933A0380933903E6CEB3
:10322000983C09F421CF923D09F434CF933D09F045
:10323000B3CB84FD11CF82FFAFCB40CF1F920F9253
:103240000FB60F9211242F933F938F939F93AF93B9
:10325000BF9380912B0490912C04A0912D04B091E8
:103260002E0430912A0423E0230F2D3758F50196C0
:10327000A11DB11D20932A0480932B0490932C044C
:10328000A0932D04B0932E0480912F0490913004CC
:10329000A0913104B09132040196A11DB11D80931B
:1032A0002F0490933004A0933104B0933204BF9163
:1032B000AF919F918F913F912F910F900FBE0F90E3
:1032C0001F90189526E8230F0296A11DB11DD2CF9D
:1032D0001F920F920FB60F9211242F933F934F938B
:1032E0005F936F937F938F939F93AF93BF93EF936E
:1032F000FF93E091D103F091D203309749F0A68576
:10330000B7858585968D91FF14C09C918923A1F482
:10331000FF91EF91BF91AF919F918F917F916F91AD
:103320005F914F913F912F910F900FBE0F901F9083
:1033300018959C91892361F7A389B4899C9185890B
:10334000809589238C93868997890197F1F7608D01
:10335000718DA685B785558538E020E0CB010197B2
:10336000F1F7822F90E095958795282F4C91452372
:1033700009F02068315091F7868D81FD209580916C
:10338000D00390E001968F7399273091CF033817BF
:1033900099F0A091D003B0E0A457BC4F2C93809338
:1033A000D003828D938D0197F1F7A389B4898C9115
:1033B0009589892B8C93ACCF868D8160868FF1CFD8
:1033C0001F920F920FB60F9211242F933F934F939A
:1033D0005F938F939F93AF93BF93EF93FF938091EE
:1033E0008B03882309F448C088B18F6088B985B100
:1033F000817C85B9E0918A03F0E0EA57FC4F808137
:1034000025B190E095958795959587958E73992729
:10341000822B85B98BB1877C8BB9E0918A03F0E070
:10342000EA57FC4F80812BB138E0839FC001112403
:1034300088739927822B8BB940918A0380918503E9
:1034400028B1480F5527551F81E090E002C0880F32
:10345000991F4A95E2F780959095822388B98091CB
:103460008A038F5F80938A0390918A0380918B03F4
:10347000981710F010928A03809181039091820333
:10348000A0918303B09184030196A11DB11D809387
:10349000810390938203A0938303B0938403FF91ED
:1034A000EF91BF91AF919F918F915F914F913F911C
:1034B0002F910F900FBE0F901F9018951F920F9293
:1034C0000FB60F9211242F933F934F935F936F93F7
:1034D0007F938F939F93AF93BF93EF93FF938091CD
:1034E000B900887F803609F44AC0F0F5883209F4C3
:1034F000A7C018F5803109F49BC0B8F4882309F4FB
:10350000F9C0883009F494C0FF91EF91BF91AF9159
:103510009F918F917F916F915F914F913F912F91EB
:103520000F900FBE0F901F901895883109F488C036
:10353000803251F78093330514C0803409F49DC064
:1035400040F48033B9F38833F9F68093330585EC82
:10355000B0C0803509F485C0883509F496C0883438
:1035600099F60E940912D0CF883909F48CC038F539
:10357000883729F050F4883611F0803729F683E037
:10358000809335051092800357C0883809F47BC0BA
:10359000803919F0803809F0B7CF809180038032EC
:1035A00008F071C0E091800381E08E0F809380036A
:1035B0008091BB00F0E0E05AFC4F80833DC0803B2F
:1035C00039F0E0F4803A09F479C0883A09F09CCFE8
:1035D00084E08093350510925F0310925E03E091C2
:1035E0000B05F0910C05099580915E0381110FC0C8
:1035F00081E080935E0310923E0309C0803C09F491
:10360000A6CF883C09F4A3CF883B09F07DCFE09199
:103610005F0381E08E0F80935F03F0E0E25CFC4F7C
:1036200080818093BB0090915F0380915E0329C0ED
:10363000809110058093BB0085EC8093BC0064CF23
:103640009091320580913105981758F5E091320537
:1036500081E08E0F80933205F0E0EF5EFA4F8081BB
:10366000E9CFE091320581E08E0F809332058091A1
:10367000BB00F0E0EF5EFA4F8083909132058091BD
:1036800031059817C8F285E8D8CFE091320581E07E
:103690008E0F809332058091BB00F0E0EF5EFA4F11
:1036A00080838091340581115CCF81E080930F0588
:1036B00084EA8093BC001092350526CF85EC809378
:1036C000BC001092350580918003803230F4E09187
:1036D0008003F0E0E05AFC4F10826091800370E0BC
:1036E000E0910905F0910A0580E693E009951092B2
:1036F00080030ACF1092330534CF1F920F920FB67A
:103700000F921124DF92EF92FF920F931F932F934A
:103710003F934F935F936F937F938F939F93AF9359
:10372000BF93CF93DF93EF93FF93B19A809171048E
:103730009091720480549C4F909372048093710412
:103740008091710490917204909389008093880015
:1037500080913C03882371F010923C03189B26C093
:1037600081E080937704B59A80916F0080628093A6
:103770006F001CC0809176048F5F809376048091E7
:103780007704843009F043C080917604893030F5A5
:1037900080916D0490E09595879580936D04189BBA
:1037A00005C080916D04806880936D04FF91EF9156
:1037B000DF91CF91BF91AF919F918F917F916F9149
:1037C0005F914F913F912F911F910F91FF90EF903B
:1037D000DF900F900FBE0F901F901895B59A8091B3
:1037E0006F00806280936F0080916B0490916C04F5
:1037F000189929C0FC01E957FF4F808191810196FA
:10380000918380831092760481E080937704809185
:1038100077048330E9F5E0917404F09175048081B8
:103820002091730433B190E0022E02C095958795E4
:103830000A94E2F7832780FD11C01092760482E09B
:103840008093770425C060916D040E94230880E076
:1038500090E0892BB9F20E940000D4CF80917604C9
:10386000893008F043C030916D0481E090E001C0E0
:10387000880F2A95EAF7908130FF36C0809589231A
:10388000808380916D0490E09595879580936D0479
:1038900080917704823099F48091760481118EC0F2
:1038A000E0917404F091750480819091730421E09B
:1038B00030E001C0220F9A95EAF7822B8083809135
:1038C0007704813009F072CF80917604882309F45F
:1038D0004ACF80917604883308F468CF1092770439
:1038E00080916F008D7F43CF892BCACF8091760462
:1038F000893059F4308181E090E001C0880F2A9529
:10390000EAF7809583238083C3CF809178048F5F0B
:103910008093780490917904891750F51092760479
:1039200080916F0490917004A0917804A80FB92F32
:10393000B11D8C9180936D04808141E050E001C005
:10394000440F2A95EAF7842B80838091840090911C
:1039500085008A5A9C4F90937204809371048091E1
:10396000710490917204909389008093880090CFA5
:1039700081E080936E0400916F0410917004E090D8
:103980006B04F0906C04C8010E943208D82ED0E07D
:10399000C0E0CD1548F4F801EC0FFD1F6081C701B0
:1039A0000E9423082196F5CF80E090E0892B11F04A
:1039B0000E9400001092760481E042CF809176044C
:1039C0008F3008F47CCFE0917404F091750420816D
:1039D0003091730481E090E001C0880F3A95EAF7D6
:1039E0008095822380831092760481E0809377040F
:1039F000E0916B04F0916C04E357FF4F808191815B
:103A00000196918380835BCF1F920F920FB60F9226
:103A100011248F939F93EF93FF93B59AEFE6F0E015
:103A200080818F7D80838091860090918700805275
:103A30009E4F9093720480937104809171049091D1
:103A400072049093890080938800B19A808182608B
:103A5000808384E0809377041092760481E08093E1
:103A60003C03FF91EF919F918F910F900FBE0F90AC
:103A70001F901895CF93C82F61E070E080E090E030
:103A80000E94AB026C2F70E086E00E94E90262E3C4
:103A900070E080E090E0CF910C94AB02CF93C82F00
:103AA00080911904811117C080911C0181FF13C0FE
:103AB00080911A04880F0E943A1DC093EC036C2F6A
:103AC00070E082E10E94E90262E370E080E090E051
:103AD000CF910C94AB0280911001EDCF893128F584
:103AE00029E0829FF0011124EF59FE4F85819681D4
:103AF000803127E29207C8F4883E23E09207B8F4A9
:103B000084369105B0F40A97B0F481E090913703C0
:103B1000891B990B8530910580F4880F991FFC0152
:103B2000E95AFE4F80819181089585E0EFCF84E0CE
:103B3000EDCF83E0EBCF82E0E9CF90E080E0089525
:103B40008931B8F429E0829FF0011124EF59FE4F2A
:103B500085819681803127E2920758F4883E23E0E0
:103B6000920748F48436910540F40A9740F481E0C6
:103B7000089585E0089584E0089583E0089582E043
:103B80000895EF92FF920F931F93CF93DF93CDB7DA
:103B9000DEB7E2970FB6F894DEBF0FBECDBF082F99
:103BA000F92E6091B2056D7F6093B20568608DE972
:103BB00095E00E949C0D8DE995E00E94D10D60E09A
:103BC00080E00E949F0D8DED91E00E94820D60E0EB
:103BD00083E00E949F0DE0900F041DEE1E0D1A3031
:103BE00018F480E20E94790D612F70E090E080E08F
:103BF0004AE00E94720F1CEE1E0D60E086E00E94FB
:103C00009F0D81ED91E09A83898389EC91E09C83FB
:103C10008B838FEB91E09E838D8385EB91E098877A
:103C20008F838DEA91E09A87898785EA91E09C8766
:103C30008B878DE991E09E878D8783E991E0988B52
:103C40008F878CE891E09A8B898B82E891E09C8B3E
:103C50008B8B89E791E09E8B8D8B80E791E0988F2D
:103C60008F8B87E691E09A8F898F8DE591E09C8F0D
:103C70008B8F83E591E09E8F8D8F88E491E098A3F0
:103C80008F8F80E491E09AA389A385E391E09CA3C0
:103C90008BA38AE291E09EA38DA381E291E098A795
:103CA0008FA386E191E09AA789A78CE091E09CA779
:103CB0008BA782E091E09EA78DA787EF90E098AB5D
:103CC0008FA78CEE90E09AAB89AB88EE90E019312B
:103CD00040F4E12FF0E0EE0FFF1FEC0FFD1F81819C
:103CE00092810E94820D61E080E00E949F0D809190
:103CF0003803882319F08EE30E94790D193180F57D
:103D000089E0189FF0011124EF59FE4F878182301E
:103D100039F5802F0E94C00F8091380381114EC069
:103D2000193150F489E0189FF0011124EF59FE4F2A
:103D30008085882309F444C061E08EE00E949F0DD5
:103D40008AED91E0E2960FB6F894DEBF0FBECDBFCC
:103D5000DF91CF911F910F91FF90EF900C94820D06
:103D6000812F0E94A01D682F802F9F2D0E94ED0F94
:103D7000D3CF89E0189FF0011124EF59FE4F8085C1
:103D800081111EC061E0809137030E949F0D6091F8
:103D9000B205862F82608093B2056A608DE995E056
:103DA000E2960FB6F894DEBF0FBECDBFDF91CF9184
:103DB0001F910F91FF90EF900C949C0D1931C8F258
:103DC000E2960FB6F894DEBF0FBECDBFDF91CF9164
:103DD0001F910F91FF90EF9008951F93CF93DF9362
:103DE000C0913903D0913A032196D0933A03C093FE
:103DF000390361E080E00E949F0DC038D10538F0A2
:103E000089E990E0DF91CF911F910C94820DC091D0
:103E10003903D0913A038C2F0E9495018AEF95E0E7
:103E20000E94A907182F882311F08430D1F480EA6A
:103E300090E00E94820DDD27C031D10518F480E3A7
:103E40000E94790DBE0190E080E040E10E94720F77
:103E500080E2143009F48FE3DF91CF911F910C942D
:103E6000790D2196D0933A03C0933903C6CFCF92F0
:103E7000DF92EF92FF921092FD051092FC0528EE62
:103E8000C22E23E0D22EE12CF12CC092FE05D0925E
:103E9000FF05E0920006F092010688E792E0909319
:103EA000FB058093FA0586E080930E0680E88093F8
:103EB0000F0688E0809310061092110610921206E9
:103EC000109213061092140661E086E00E944A02E6
:103ED0000E94DD0260931106709312068093130610
:103EE000909314068DE3809306068AEF95E09093F5
:103EF0000D0680930C06109207068FEF809308063C
:103F00008093090610920B0610920A061092F8058B
:103F10001092F7051092F9051092A00510929F05D6
:103F20001092B7051092B1058FE08093A1058EE045
:103F30008093A2058DE08093A3058CE08093A40577
:103F40008BE08093A5058AE08093A60589E08093A5
:103F5000A7051092AC0561E06093AD0582E0809307
:103F6000AE0583E08093AF0584E08093B0058CE9D3
:103F700092E090939E0580939D051092B905109252
:103F8000BA051092BB051092BC052AE030E03093D0
:103F9000BE052093BD051092BF051092C00510927A
:103FA000C2051092C3051092C4051092C505309346
:103FB000C7052093C6051092C8051092C905109236
:103FC000CB051092CC051092CD051092CE05309302
:103FD000D0052093CF051092D1051092D2051092F2
:103FE000D4051092D5051092D6051092D7053093BE
:103FF000D9052093D8051092DA051092DB051092AE
:10400000DD051092DE051092DF051092E005309379
:10401000E2052093E1051092E3051092E4058CE29D
:1040200080939C051092800510927F05C0928105B7
:10403000D0928205E0928305F09284058AE892E0AE
:1040400090937E0580937D051092940510929305C0
:10405000109296051092950510929805109297056A
:1040600010929A051092990580919B058E7F8D7F05
:1040700080939B058695817068278BE00E941C02C7
:1040800061E08BE00E944A02E9ECF2E0E491E09307
:104090008D05E5EBF2E0E491F0E0EE0FFF1FE05656
:1040A000FD4F8591949190938F0580938E0560E0EC
:1040B0008AE00E944A0280919B0581FD04C061E074
:1040C0008AE00E941C028AE080938905E8ECF2E015
:1040D000E491E0938A05E4EBF2E0E491F0E0EE0F86
:1040E000FF1FEA56FD4F8591949190938C05809324
:1040F0008B0594E1C92ED12CE12CF12CC0927205D4
:10410000D0927305E0927405F092750510927605D1
:104110001092770510927805109279050E94DD02C1
:1041200060936E0570936F05809370059093710591
:1041300084E00E94F30180937A0584E080937B05FC
:10414000C0926305D0926405E0926505F092660521
:1041500010926705109268051092690510926A0521
:104160000E94DD0260935F05709360058093610596
:104170009093620585E00E94F30180936B0585E0D2
:1041800080936C05FF90EF90DF90CF900895CF93D0
:10419000DF93CDB7DEB761970FB6F894DEBF0FBEE1
:1041A000CDBF789484B5826084BD84B5816084BDC0
:1041B00085B5826085BD85B5816085BD80916E00C5
:1041C000816080936E0010928100809181008260F6
:1041D0008093810080918100816080938100809133
:1041E00080008160809380008091B1008460809322
:1041F000B1008091B00081608093B00080917A001E
:10420000846080937A0080917A00826080937A0043
:1042100080917A00816080937A0080917A00806832
:1042200080937A001092C1006CE0E62E61E0F62ED9
:1042300072E0C72ED12CC6010E946E2E182FC60127
:1042400001960E946E2E212F30E0322F2227820FFE
:10425000932F911DD7018D939D937D01B2E0CB0EDD
:10426000D11CE4E3CE16D10431F78091180190916E
:104270001901449728F464E170E086E00E94F51388
:1042800080911A0190911B01059711F00E94291449
:1042900080912C0180FF63C0EAE7F4E08FE8DF0142
:1042A0001D928A95E9F761E087E00E944A02E5ECF9
:1042B000F2E02491E1EBF2E0E491F0E0EE0FFF1F79
:1042C000E056FD4F4591549180E091E031E029178F
:1042D00041F08F5F932F082E01C0990F0A94EAF7DF
:1042E000F6CF5093750440937404809373048AE767
:1042F00094E090936C0480936B042098E091740494
:10430000F091750420813091730481E090E001C048
:10431000880F3A95EAF78095822380831092800077
:1043200091E09093810010927704B59A80916F008C
:10433000806280936F0080918100887F816080938C
:1043400081009093E30380912C0182FF08C01092BA
:104350005A041092590410925B040E9408091092AA
:10436000CE031092CD031092E7031092E80310924F
:10437000E9031092EA0380912C0190912D01857040
:104380009927059709F08CC00E9428058DE30E94AB
:1043900095018AEF95E00E94A907811103C081E091
:1043A0008093E60380E70E9495018AEF95E00E94E2
:1043B000A907811175C081E08093CC038091F70536
:1043C0009091F805009711F00E94863186E090E008
:1043D0000E94EA308C0180E7F80180838AEF95E043
:1043E00092838183138280E290E09583848310938B
:1043F000F8050093F7050E94280581E0D80113967F
:104400008C93C8010E94C807882309F449C081E23F
:10441000898B41E050E0BE016F5E7F4F8091F705D0
:104420009091F8050E94C2091092E8051092E705E4
:104430001092EA051092E9051092EC051092EB0536
:104440001092EE051092ED051092F0051092EF0516
:104450001092F2051092F1051092F4051092F305F6
:104460001092F6051092F5050E94F60981E88983FD
:1044700041E050E0BE016F5F7F4F8091F705909162
:10448000F8050E94C2098FEE898341E050E0BE0129
:104490006F5F7F4F8091F7059091F8050E94C209E8
:1044A0000E943810E090140180911501F0901601DF
:1044B000D0901C01D7FE07C090912C0190FD03C045
:1044C000BF2DBC7EFB2E0E2D182FF0FC07C0B801AF
:1044D000660F771F627084E00E944A02F1FC05C0FB
:1044E0006E2D627085E00E944A02F4FC0EC080913D
:1044F0002C0180FD0AC0B80123E0759567952A95C7
:10450000E1F7627088E00E944A0295E015950795F0
:104510009A95E1F7602F62708CE00E944A0262E097
:1045200083E00E944A0262E08FE00E944A0262E059
:1045300080E10E944A0262E081E10E944A02F5FCA9
:1045400004C061E089E00E944A0261E08DE00E94BF
:104550004A0220913401309135014AE0429FC00166
:10456000439F900D1124B0E0A0E0809372059093DA
:104570007305A0937405B09375051092760510929B
:1045800077051092780510927905809363059093D2
:104590006405A0936505B0936605109267051092B7
:1045A00068051092690510926A0510921804D2FEEF
:1045B00042C00E94280584E20E9495018AEF95E09E
:1045C0000E94A907182F811136C064E087E194E0AA
:1045D0000E94FF0740E0612F87E194E00E94130CE6
:1045E000612F87E194E00E942A0A1F5F103191F742
:1045F00081E08093180485E20E9495018AEF95E09E
:104600000E94A907182F811116C065E082E194E08D
:104610000E94FF0740E0612F82E194E00E94130CAA
:10462000612F82E194E00E942A0A1F5F103191F706
:1046300081E08093130410929805109297051092D0
:1046400096051092950510929405109293058DE9A8
:1046500091E090939A058093990590918905963100
:1046600008F047C02DEB30E030939405209393057C
:104670002BE931E030939605209395052CE231E04B
:1046800030939805209397052091680084E0983036
:1046900048F031E09E3008F430E081E001C0880F3E
:1046A0003A95EAF7822B809368002DE630E0983047
:1046B00050F02BE630E09E3030F02CE630E09631C2
:1046C00010F030E020E03093910520939005292FE1
:1046D00030E0983008F0BDC081E001C0880F9A95A5
:1046E000EAF7809392058091990590919A05019738
:1046F000F1F78091970590919805892B49F1E09108
:10470000D103F091D20325E0ED37F20709F130979C
:1047100039F0A389B4899C918589809589238C93EC
:1047200080919B058E7F80939B051092D003109201
:10473000CF038DE795E09093D2038093D103E0916E
:104740009005F0919105808190919205892B80834D
:104750008DE795E09093D4038093D30386E693E0AE
:10476000909334048093330461E070E080E090E043
:104770000E94AB020E94240980E0A82E80E0B82E9F
:104780005524539411E00E94DD02C090D803D090CC
:10479000D903E090DA03F090DB036C197D098E09F0
:1047A0009F096E3771058105910520F10E94DD0298
:1047B0006093D8037093D9038093DA039093DB035B
:1047C0008091D70385258093D703882399F0809122
:1047D0002704852580932704882361F08091D603E0
:1047E00085258093D603882329F08091D5038525DC
:1047F0008093D5038091280490912904892B09F096
:104800000AC10E94DD02C0901106D0901206E0900D
:104810001306F09014066C197D098E099F09653105
:1048200071058105910508F462C00E94DD02609364
:10483000110670931206809313069093140600914C
:104840000F0680911006013C88F081958093100638
:104850000FC09E3040F42850310981E001C0880F1C
:104860002A95EAF73ECF2E503109F7CF003268F390
:1048700080911006080F00930F06F0900E0661E07D
:104880008F2D0E944A02011105C060E08F2D0E9409
:104890001C022DC00F3F11F461E0F8CFEF2DF0E0C6
:1048A000EE5DFD4FE491E33009F499C040F4E1304E
:1048B000D1F0E23009F48EC007FDEECFE6CFE7304D
:1048C00009F499C0E83009F49EC0E430A9F780915A
:1048D0008000806280938000802F90E090938B0016
:1048E00080938A0004C084B5806884BD07BD0E949F
:1048F00038108091DC03813011F40E9444148091BF
:10490000E30381118CC010920D041092EB0380918F
:104910002C0182FF15C00E94DD02C090E703D090F9
:10492000E803E090E903F090EA036C197D098E0931
:104930009F09613C744D8140910510F00E94080967
:104940008091E603882309F445C461E0809106065E
:104950000E94500610920E0580930D05813009F4D7
:104960002BC482E890E090930B0680930A06809116
:10497000070682FD2FC48091E503882309F42DC426
:1049800080901401909015010091160130901C0147
:10499000E0902C01F0902D01B1E0EB22FF2437FED6
:1049A00033C4E114F10409F02FC40C7E4424439471
:1049B00088E00E94F3016401DD243401E0E16E220D
:1049C00077249924939484FC21C4892B09F421C46D
:1049D000912C1FC484B5806284BD08BD88CF8091AE
:1049E0008000806880938000802F90E09093890001
:1049F000809388007CCF8091B00080688093B00065
:104A00000093B30074CF8091B00080628093B000B7
:104A10000093B4006CCF6091270486E038CF8AE71A
:104A200094E00E944112FC019093E2038093E10321
:104A3000892B09F417C37181272F30E06281462F3B
:104A400050E0CA019695982F88279795879580788A
:104A50009770872B932BA081A23B29F10196A13B54
:104A600009F45DC070F4A33809F44CC0A03B09F40C
:104A700051C0A23849F580E090E0892B29F180E00F
:104A800046C0AC3B09F45FC0A03D09F466C0A43B3E
:104A9000D9F47C33C9F480E090E0892BA9F08CE351
:104AA0000E94000011C022E030E065FD02C021E05C
:104AB00030E040E050E0452B39F0880F991F6071DD
:104AC000820F931F0E94000080912C0182FFB4C0CE
:104AD000E091E103F091E2038081877F873E09F056
:104AE000A8C081818E3009F0A4C082818B3709F083
:104AF000A0C0828586FD9DC080648287CF010E9410
:104B0000CA1105CF80E090E0892BF1F281E00E948C
:104B10000000DACF407260710E945F09D5CF66FF56
:104B200009C0A0E0B0E0AB2B79F2407260710E9446
:104B30000000CACFE0E0F0E0EF2B31F2407160728C
:104B40000E940000C1CF20E030E0232B09F4BCCF4D
:104B5000407260710E940000B7CF7076703221F011
:104B60007036C1F17111B0CF80E090E0892B09F46B
:104B7000ABCFC9019695982F882797958795807810
:104B80009F70840F951FA5E035952795AA95E1F7AD
:104B90002170019633814481E42FF0E0AF013D376D
:104BA00031F0A0E83A9FA00111244E0F5F1F6F70F3
:104BB00081F1623081F1643081F1663081F16830D9
:104BC00081F16A3081F16C3081F16E3081F10E94A7
:104BD00000007ACF80E090E0892B09F475CFF38054
:104BE0008F2D807D803109F06FCFD480EE24E39447
:104BF00001E041E08F2D8E2109F040E02D2D2E2186
:104C0000EE0C602F80E80E9400000F5F053089F7EE
:104C10005BCF61E4DCCF62E4DACF63E4D8CF64E455
:104C2000D6CF65E4D4CF66E4D2CF67E4D0CF68E4D2
:104C3000CECFCF010E94CA11E090E103F090E203D1
:104C4000C7010E943208803109F00CC2F70180814F
:104C5000853E09F007C28481823009F003C22681B3
:104C600080910C0190910D012817190609F0E1C1FE
:104C7000278180911A0190911B012817190609F0CC
:104C8000D8C1858190E09C01A4E0220F331FAA9532
:104C9000E1F720788184E89487F8282930E0322FE2
:104CA000222705E0880F991F0A95E1F78078808414
:104CB000E89487F8882A820E932E911C6401F1E013
:104CC000CF1AD1087C2C28E12C1550F039E0C39E76
:104CD000F0011124EF59FE4F31E08781813009F056
:104CE00030E0D70113968C918130F1F5B9E1CB1604
:104CF000D104D0F5F701828590E063856F77AC0130
:104D00005695542F442757954795262F240F332324
:104D100009F433C246E0880F991F4A95E1F780787D
:104D200064856F77862B682F70E0762F6627620F79
:104D3000711D8C2D0E942414E091E103F091E20397
:104D4000838180648383F8E14FEFF71530F0F6013B
:104D5000EE0FFF1FE45FFE4F4081E12C00E020E0FA
:104D600060E0882D0E943D13E091E103F091E203A1
:104D700083818230B9F429E1C216D10498F482E427
:104D8000838338E14FEF371530F0F601EE0FFF1F48
:104D9000E45FFE4F4081E12C00E020E060E0882DE0
:104DA0000E943D13E091E103F091E203838183309F
:104DB00009F04BC049E1C416D10408F046C0628531
:104DC00070E0CB019695982F88279795879599271E
:104DD00023852F77280F392F311D06E0660F771FA7
:104DE0000A95E1F76078772784858F77682B58E1FB
:104DF0008FEF9FEF571538F0F601EE0FFF1FE45FBE
:104E0000FE4F8081918126233723232B09F4B7C1DC
:104E1000682B792B8C2D0E942414E091E103F091F2
:104E2000E20383818064838378E14FEF771530F06C
:104E3000F601EE0FFF1FE45FFE4F4081E12C00E022
:104E400020E060E0882D0E943D13E091E103F091A5
:104E5000E2038381853009F084C089E1C816D1045A
:104E600008F07FC0828590E0BC01A6E0660F771F46
:104E7000AA95E1F7A62FA078FA2E64856F77F62A17
:104E8000BC01B5E0660F771FBA95E1F7062F0078F1
:104E900065856F77062BBC0124E0660F771F2A9586
:104EA000E1F7B62FB0786B2E66856F77662A63853B
:104EB0006F779695982F882797958795680F70E05C
:104EC0008C2D0E942414EE24E394EC0C6F2D70E0E2
:104ED0008E2D0E94241442E0F42EFC0C602F70E012
:104EE0008F2D0E94241403E00C0D662D70E0802F9E
:104EF0000E942414E091E103F091E2038381806435
:104F00008383E8E14FEFE71530F0F601EE0FFF1F66
:104F1000E45FFE4F4081F8E12FEFFE1538F0EE2DF3
:104F2000F0E0EE0FFF1FE45FFE4F208138E18FEFCE
:104F30003F1538F0EF2DF0E0EE0FFF1FE45FFE4F5E
:104F40008081EE24EA94093138F4E02FF0E0EE0F8E
:104F5000FF1FE45FFE4FE080082F60E0882D0E9475
:104F60003D13E091E103F091E20383818630B1F5D6
:104F700049E1C416D10490F586E4838358E14FEFEC
:104F8000571530F0F601EE0FFF1FE45FFE4F408132
:104F9000E1E0EC0D2FEFE93130F4F0E0EE0FFF1F10
:104FA000E45FFE4F2081E2E0EC0D0FEFE93130F4D9
:104FB000F0E0EE0FFF1FE45FFE4F0081E3E0EC0D39
:104FC000EE24EA94E93130F4F0E0EE0FFF1FE45FE5
:104FD000FE4FE08060E0882D0E943D13E091E103E8
:104FE000F091E2038381883061F488E48383409107
:104FF0001A01E42E00910C0120E06DE08AE30E948A
:105000003D13E091E103F091E20383818F3089F455
:105010000E942914E091E103F091E203838180640E
:105020008383E12C00E020E040E0692D882D0E9480
:105030003D13E091E103F091E2038681811112C0FA
:10504000878181110FC08381873061F487E4838376
:1050500040911A01E42E00910C0120E06DE08AE3FA
:105060000E943D1380912C0182FF6ACC0E94DD02D8
:10507000C090DD03D090DE03E090DF03F090E0030A
:10508000AB01BC014C195D096E097F094334510520
:105090006105710508F43FCCD701C6018D5B9F4FB8
:1050A000AF4FBF4F8093DD039093DE03A093DF03E8
:1050B000B093E0038091590490915A04029709F04B
:1050C00045C08091600490915F04890F87FFDBC524
:1050D0008F7780936004809161048F5F8093610477
:1050E00087FFD3C58DE68093600490915B04892F80
:1050F0008170885880936104809162048F5F8F373C
:1051000008F042C08093620491FF52C08FEE8093FA
:105110005C048CE594E00E943E08A114B104B1F057
:1051200080915B0482FF12C08091610470E8879FC8
:105130009001112480916004820F932F911DAFEF95
:10514000BFE3A81BB90BCD010E9400008091590458
:1051500090915A04892B09F0DACB8BEB89838BE78A
:105160008A831B82CE0101960E943E08E1E0F0E0B6
:10517000F0935A04E0935904CACB80E0D4CD6095F3
:1051800070956823792346CE83E4809362048091EE
:1051900064048F5F87FD03C080936404B5CF88E605
:1051A00080936404809165048F5F80936504ACCF25
:1051B00080E00E945B0FB1CF80910C0690910D06AC
:1051C000DC01ED91FC910284F385E02D099580933B
:1051D0000706CFCB1092E503D3CB1093E503809164
:1051E000E403813071F482E08093E4038091E6036C
:1051F000882309F4C5CB8091E4038C6F0E94AC072F
:10520000BFCB1093E403F2CF412CD2CB892B09F40E
:10521000DFCBEF2811F0912C412C01FFD4C010926C
:105220001F0404FD30C180912C0180FD2CC188E059
:105230000E94F3019C01672809F028C181E0232B1B
:1052400009F480E080931D0480901C0100FF25C1BB
:1052500010921C0440901F0483FE5BC110921F0437
:105260008CE00E94F3019C01C6FC5BC181E0232B12
:1052700009F480E080931B0483E00E94F301FF2483
:10528000F394892B09F0F12C8FE00E94F301892B14
:1052900009F04EC182E0F82A80E10E94F301892BD7
:1052A00009F048C184E0F82A81E10E94F301892BCA
:1052B00009F042C188E0F82AF0921A04E090120145
:1052C00081E024E0E21280E08093190434E0E316E8
:1052D00009F438C180911804882309F433C187E1A7
:1052E00094E00E94180C90931604809315048F3F4D
:1052F000980761F08095909521E09695879531E02B
:10530000320F009709F01AC12093140480911304FE
:105310008823B9F082E194E00E94180C9093110464
:10532000809310048F3F980761F08095909520E15D
:105330009695879531E0320F009709F001C12093CF
:10534000140480910F04823109F4D2C180910E04BB
:105350008111CEC14110F9C0F0901C04F1100FC0B2
:10536000F0900D04F1100BC080911404FF24F3940D
:10537000811105C080911E04811101C0F12C809122
:105380001904882309F431C1FF24F39480911A048D
:1053900081112EC1F12C82E0E8122AC10E9431094C
:1053A000E0912604E93008F0DAC0F0E0E652F64D6C
:1053B0000C94E430042B4A2B7B2B932BA92BBF2B73
:1053C000E02B052C082C34FE41C08FE595E00E94AF
:1053D000AA0380916B0590916D05C0FE19C09923B9
:1053E00009F41FCF882319F010921E0418CF809162
:1053F0003C0180931E04442019F0911010921E0469
:1054000080911E0481110E94310910931F0409CF5D
:10541000992391F0882381F080913C0180931E04B0
:10542000442019F0911010921E0480911E048111E5
:105430000E94310910931F0480916D05882309F49F
:10544000F0CE80916B058111ECCECECF85E00E942D
:10545000F30121E0892B09F420E020931F0444206C
:1054600019F0911010921F04C1FE05C080911F0415
:10547000852580931F0480911F04882309F4D1CED1
:1054800010921E04CECE10921D04DECE91E0232B8E
:1054900009F090E090931D04D7CE7601F1E0EF2261
:1054A000FF2484FE1EC08EE695E00E94AA03809130
:1054B0007A0590917C05EF2869F0992309F4CACE0A
:1054C0008111C6CE10931C04442009F4C3CE911060
:1054D000C1CEBECE992309F4BDCE882309F4B8CE3F
:1054E000F1CF84E00E94F30121E0892B09F420E050
:1054F00020931C04442021F0911002C010921C043F
:10550000EF2809F4A7CE80911C04852580931C0404
:10551000A1CE80911D04982E942890921F04412CB6
:105520009FCE91E0232B09F090E090931B04A4CE32
:1055300080E0B1CE80E0B7CE80E0BDCE232FDDCEBF
:10554000232FF6CE10921404FCCEE0901E01F090B2
:105550001F0107FD02C0E11038C00E9431096091AF
:105560000C048DE00E941C0205FD9BC1F0902001FF
:10557000F110A2C207FF67C180911D04811102C012
:10558000442021F01092FF031092FE0380911C042E
:10559000811109C08091FF03811105C08091FE0334
:1055A000882309F484C2E091FD03E83008F04BC180
:1055B000F0E0E352F54D0C94E4300E2CB02CBA2CF4
:1055C000EA2CF22C182D2E2D522D0E94B90163E0E9
:1055D000EE0CFF1C6A95E1F778EFE72277E0F722FF
:1055E000E816F90608F4BBCFB8CFFF2009F4D3CEF4
:1055F00093E0E912D5CE80911F04882309F4D0CE20
:1056000084E080932604CCCEF0920C04FF2009F4B1
:10561000A6CF10932604809119048823F1F080917D
:105620001A0480FF0EC081E00E944E1D0E94DD0220
:10563000609308047093090480930A0490930B0408
:105640008ECF81FF02C082E0EFCF82FF02C083E0F5
:10565000EBCF83FFEBCF84E0E7CF80911E04811175
:10566000E3CF809114048111DFCF80910D04882352
:1056700021F08091EB038111D7CF80911C0180FF35
:1056800006C081FD04C080911A048F5FCDCF809148
:105690000E01CACF80911B04882369F080912804F1
:1056A000909129048E7F909329048093280482E0AE
:1056B0008093260454CF0E94DD022091080430918B
:1056C000090440910A0450910B04621B730B840B74
:1056D000950B613D77408105910508F440CF80919D
:1056E00028049091290481609093290480932804D0
:1056F0001092260434CFB2E0EB1203C0FF2009F46D
:105700002CCF80911B0481112ACF83E08093260443
:105710000E94DD02609304047093050480930604E4
:10572000909307041CCF84E0EE2011F2E2E0EE1229
:105730000BC0FF2009F411CF809126019091270121
:10574000892BB1F285E0B4CFF4E088E0EF12F4CF1A
:10575000AFCFF11004CFE110CBCF80913201909107
:105760003301892B29F20E94DD02609300047093BB
:105770000104809302049093030486E099CF209162
:1057800026013091270144E6429F3001439F700C6F
:105790001124912C812C0E94DD022091040430916F
:1057A00005044091060450910704621B730B840B9F
:1057B000950B661677068806990608F499CFCFCE22
:1057C000409132015091330128EE33E0429F300185
:1057D000439F700C529F700C1124912C812C0E94BD
:1057E000DD022091000430910104409102045091A7
:1057F0000304621B730B840B950B661677068806F1
:10580000990608F0ACCE87E053CFF110A8CE70CF48
:1058100080911A04882309F46BCFA1CE0E94DD0287
:105820006093F9037093FA038093FB039093FC0356
:105830001093FD031092FE0380911C0185FB8827C5
:1058400080F98093FF038091F8039091ED03892BF9
:105850008093F80380911C0186FF1CC020913A01BF
:105860002223C1F08091EC038F709FEF980F983046
:1058700088F49091F803992369F08150990B41E0E5
:1058800050E002C0440F551F8A95E2F7242311F41B
:105890001092F8036091F803C5FC652589E00E9429
:1058A0001C020E94280582E20E9495018AEF95E081
:1058B0000E94A907F12C811119C000912504011142
:1058C00013C041E0602F82E294E00E94130C0F5F4E
:1058D0000031B9F7109221041092200470E060E0CA
:1058E00082E294E00E94E707FF24F394F0922504FB
:1058F00010933E010E94C40AFF2089F0E091260423
:105900009FEFE33320F4F0E0EE5BFD4F908183FFE7
:1059100090C19F779095909323040E9444090E9420
:10592000C40A082F0E943609FF2081F0833308F053
:1059300082C1E82FF0E0EE5BFD4F808104FF7DC166
:105940008F778095809324040E94440980E090E042
:10595000892B11F40C94C3230E9400000C94C023E3
:105960008091220190912301892B21F182E0809383
:10597000FD0369CF809122019091230124E6289FA5
:105980003001299F700C1124912C812C0E94DD0282
:105990002091F9033091FA034091FB035091FC03ED
:1059A000621B730B840B950B6616770688069906A7
:1059B00008F049CF1093F80383E08093FD030E9421
:1059C000DD026093F4037093F5038093F6039093E4
:1059D000F70339CF8091240190912501892B31F172
:1059E00084E0C5CF809124019091250124E6289F71
:1059F0003001299F700C1124912C812C0E94DD0212
:105A00002091F4033091F5034091F6035091F70390
:105A1000621B730B840B950B661677068806990636
:105A200008F011CF1092F8031092FF0385E09FCF8A
:105A30008091380190913901892B91F10E94DD020A
:105A40006093F0037093F1038093F2039093F30358
:105A500086E08093FD031093FE03F5CE809138011C
:105A60009091390124E6289F3001299F700C112460
:105A7000912C812C0E94DD022091F0033091F103E2
:105A80004091F2035091F303621B730B840B950B4F
:105A9000661677068806990608F0D5CE1092F803A8
:105AA00087E065CF1092FE031092FF03CCCE1092D8
:105AB000F8031092FD03C7CE21E0F2122AC08091B4
:105AC0001B04882319F107FDBECE80911C0183FDC4
:105AD000BACE0E94B901209128013091290153E0EA
