:100000000C946B010C9493010C9493010C948C1937
:100010000C948C190C948C190C9493010C94041A64
:100020000C9493010C9493010C94281D0C94A11B27
:100030000C9493010C9493010C9493010C949301F0
:100040000C9442190C9493010C9493010C94930119
:100050000C9493010C9493010C9493010C949301D0
:100060000C94821A0C9493015374617475733F005D
:10007000496E626574726965626E61686D653F00A4
:10008000537465756572756E673F0043563F00494E
:1000900032432D5363616E3F006665727469670079
:1000A000307800506F7274457870616E64657220AC
:1000B0000056657273696F6E20004156522D536F62
:1000C000756E64204446506C617900506C617965AE
:1000D000722D53746174757300506C617965722D63
:1000E000436F6E74726F6C003F3F3F00536E64202D
:1000F0006F6E2053747000535726536E642D4E6FED
:100100002E0053572D44656C4F46460041647220C3
:100110004C4E2D5357004465626F756E632E4F4EE3
:1001200000534E442D57616974004C4E206D617828
:100130002041647200416472204C4E2D536E640065
:100140004C4E2D46756E63004C65762053572D4FEF
:100150006666004C65762053572D4F6E00536E64D3
:100160002D50617573650053572D4475726174008D
:1001700053572D44656C4F4E0053572D4D6F64758A
:1001800073005044352D4C6576656C00436F6E6688
:10019000696700536F6674772E2D49440056657267
:1001A00073696F6E0050696E206E632E0050696E29
:1001B00020696E7600536E642D4D6F647573005325
:1001C0006E642D4C6576656C00536E642D4E6F2EFB
:1001D00000446576696365494400726F00435600C8
:1001E0002057696564657267616265006F686E6556
:1001F0000053746F6572756E67002D2D3A2D2D00BA
:100200006661696C65640073746F72656400466151
:100210007374436C6F636B000000000024002700C0
:100220002A0000000008000201000003040700008B
:100230000000000000000086227E6DD24620290BBF
:100240002170104080523F065B4F666D7D077F6FC7
:10025000090D614843D35F777C395E79713D763013
:100260001E753815373F736B336D783E3E2A766EB8
:100270005B39640F2308025F7C585E7B716F7410DA
:100280000C753014545C7367506D781C1C14766EBA
:100290005B463070010000000000230026002900AA
:1002A00000000000250028002B00040404040404BE
:1002B0000404020202020202030303030303010215
:1002C00004081020408001020408102001020408E4
:1002D00010205B1FDC2E11241FBECFEFD8E0DEBF45
:1002E000CDBF12E0A0E0B1E0E2E8F5E602C0059083
:1002F0000D92A83AB107D9F726E0A8EAB2E001C00A
:100300001D92A332B207E1F711E0CAE6D1E004C0C2
:100310002197FE010E946E31C936D107C9F70E94AC
:10032000EB200C94B4320C94000091E090934505BE
:100330008093670510924605109268050895089508
:1003400008958530A8F4262F2052330BF901EA5C7A
:10035000FD4FE491A82FB0E0AA0FBB1FAF50BA4FDA
:1003600030E8439FA0011124E42BF0E0ED93FC93CF
:10037000089580E480937C0080917A00806480936B
:100380007A0080917A0086FDFCCF80917800909170
:1003900079000895833081F028F4813099F082301B
:1003A000A9F008958730A9F08830C9F08430B1F4FD
:1003B000809180008F7D03C0809180008F77809333
:1003C0008000089584B58F7784BD089584B58F7DAE
:1003D000FBCF8091B0008F778093B000089580911B
:1003E000B0008F7DF9CFCF93DF93282F30E0F90154
:1003F000EE5DFD4F8491F901E254FD4FD491F90176
:10040000E655FD4FC491CC23A1F081110E94CA0191
:10041000EC2FF0E0EE0FFF1FEA56FD4FA591B491CF
:10042000EC91ED2381E090E009F480E0DF91CF9141
:10043000089580E090E0FACF1F93CF93DF93282FA9
:1004400030E0F901EE5DFD4F8491F901E254FD4F7A
:10045000D491F901E655FD4FC491CC23A9F0162F94
:1004600081110E94CA01EC2FF0E0EE0FFF1FE05651
:10047000FD4FA591B4918FB7F894EC91111108C07C
:10048000D095DE23DC938FBFDF91CF911F9108952C
:10049000DE2BF8CFCF93DF9390E0FC01E254FD4FC9
:1004A000249186559D4FFC0184918823C9F090E0EA
:1004B000880F991FFC01E85EFD4FA591B491FC01E6
:1004C000E056FD4FC591D49161110DC09FB7F894CE
:1004D0008C91209582238C938881282328839FBF29
:1004E000DF91CF910895623051F49FB7F8943C9119
:1004F000822F809583238C93E8812E2BEFCF8FB7AB
:10050000F894EC912E2B2C938FBFEACF3FB7F89441
:100510008091390490913A04A0913B04B0913C043D
:1005200026B5A89B05C02F3F19F00196A11DB11D4E
:100530003FBFBA2FA92F982F8827BC01CD01620F8A
:10054000711D811D911D42E0660F771F881F991F45
:100550004A95D1F708958F929F92AF92BF92CF9212
:10056000DF92EF92FF924B015C010E9486026B01C9
:100570007C010E9486026C197D098E099F09683EE4
:10058000734081059105A8F321E0821A9108A10822
:10059000B10888EEC80E83E0D81EE11CF11C81145E
:1005A0009104A104B10429F7FF90EF90DF90CF9060
:1005B000BF90AF909F908F9008952FB7F89460915F
:1005C00035047091360480913704909138042FBF20
:1005D00008958F929F92AF92BF92CF92DF92EF9247
:1005E000FF921F93CF93DF93182FEB010E94DD0240
:1005F0006B017C0180903F0490904004A0904104E6
:10060000B0904204C814D904EA04FB0409F453C0AE
:100610000E94DD02DC01CB0188199909AA09BB09F6
:1006200082339105A105B10578F422E3C22ED12CC5
:10063000E12CF12CA7019601281B390B4A0B5B0B0F
:10064000CA01B9010E94AB02109342011092440109
:10065000C09345018091400190914101890F9927F4
:10066000991F810F911D20914301820F911DC80F89
:10067000D91FD195C195D109D0934601C0934701A7
:10068000E0913D04F0913E0409950E94DD026093E3
:100690003F04709340048093410490934204DF919F
:1006A000CF911F91FF90EF90DF90CF90BF90AF90D0
:1006B0009F908F9008950E94DD02A7019601261B4E
:1006C000370B480B590BDA01C901AACFCF93DF933F
:1006D000CFE3D1E08091D9039091DA036991DC01F5
:1006E000ED91FC910190F081E02D0995B1E0C934C4
:1006F000DB0781F7DF91CF910895AF92BF92CF9240
:10070000DF92EF92FF920F931F93CF93DF936C01D1
:100710007B018B01040F151FEB015E01AE18BF08B2
:10072000C017D10759F06991D601ED91FC91019064
:10073000F081E02DC6010995892B79F7C501DF917C
:10074000CF911F910F91FF90EF90DF90CF90BF90CE
:10075000AF900895CF92DF92EF92FF920F931F9385
:10076000CF93DF93EC018D850E94F301182F8C85C8
:10077000181759F10E94DD02C880D980EA80FB80F9
:100780006C197D098E099F09CC80DD80EE80FF8089
:100790006C157D058E059F05C0F00E94DD02688303
:1007A00079838A839B831C87188619861A861B8601
:1007B00081E08E8781E090E0DF91CF911F910F91D2
:1007C000FF90EF90DF90CF90089588859985AA8556
:1007D000BB85892B8A2B8B2BD1F00E94DD020881EF
:1007E00019812A813B81601B710B820B930B088559
:1007F00019852A853B85601771078207930738F0B2
:100800000E94DD02688379838A839B83CDCF1E8615
:1008100090E080E0D1CFCF93DF9365E070E080E09F
:1008200090E00E94AB028091D9039091DA03DC0141
:10083000ED91FC910084F185E02D09950A979CF0DB
:10084000CAE0D0E08091D9039091DA03DC01ED9108
:10085000FC910284F385E02D0995019621F0219702
:1008600089F781E001C080E0DF91CF910895209168
:10087000D7033091D8032817390771F49091D50325
:100880008091D603981741F0E091D503F0E0EE5641
:10089000FC4F808190E008958FEF9FEF08950895B9
:1008A000EF92FF920F931F93CF93DF93DC015C963F
:1008B000ED90FC905D97E114F10479F481E090E013
:1008C00013969C938E93129790E080E0DF91CF91E6
:1008D0001F910F91FF90EF9008955196ED91FC912B
:1008E000529750968C915097982F90950FB75E968F
:1008F0002C915E97122F127021FD6095F894208143
:10090000112319F1282B2083E7012197F1F728E023
:10091000462F50E0308160FF1AC0382B3083E7014A
:100920002197F1F7BA0175956795215089F7112341
:1009300081F08081892380830FBF5C968D919C918B
:100940000197F1F781E090E0C1CF2923DCCF392373
:10095000E5CF9081892BEFCF2091D7033091D80339
:100960002817390761F48091D6032091D50390E0D0
:10097000805C9F4F821B91098F739927089590E0A7
:1009800080E008952091D7033091D80328173907C4
:10099000B9F49091D5038091D603981789F0E0912E
:1009A000D503F0E0EE56FC4F80812091D50330E076
:1009B0002F5F3F4F2F7333272093D50390E0089587
:1009C0008FEF9FEF089520916403260F3327331F85
:1009D00021323105ECF420913F05FC0190E080E0EC
:1009E000243069F082E00895A09164032191AC0164
:1009F0004C5B5C4FA40FB52FB11D2C93019686174D
:100A000098F380916403680F6093640380E0089515
:100A100081E0089510923F0581E080933E05109299
:100A2000190561E082E10E941C0261E083E10E94FD
:100A30001C02E9EBF0E080818E7F808380818D7FD6
:100A4000808388E48093B80085E48093BC00089597
:100A5000109218051092170510924605109268051D
:100A60000E940A058FE991E0909316058093150581
:100A700080EA91E090931405809313050895CF9335
:100A8000DF9391E0909343038823B9F0C091B800BD
:100A9000D091BA008091BC008A7B8093BC0060E05A
:100AA00082E10E941C0260E083E10E941C020E941D
:100AB0000A05D093BA00C093B800DF91CF91089592
:100AC0008F929F92AF92BF92CF92DF92EF92FF925E
:100AD0000F931F93CF93DF93D0916805D13208F025
:100AE000D7C0182FC09167050E9486026B017C0158
:100AF00080913F0581116BC082E080933F05109388
:100B00003E058FEF80933D0510923C05D0933B0549
:100B1000A7E4B5E0EBE1F5E080E0D81391C01092D6
:100B20001A0580911A05CC0FC82BC0931A05809125
:100B30001905813009F088C0109219050E948602BB
:100B40006B017C0180911A058093BB008091410567
:100B500090914205A0914305B0914405892B8A2BC1
:100B60008B2BA1F00E948602009141051091420555
:100B700020914305309144056C197D098E099F0928
:100B8000061717072807390708F442C08091BC00F0
:100B900083FDD8CF85EC8093BC000E9486026B0158
:100BA0007C0180913F05823009F450C080913D0561
:100BB0008F3F09F46FC080913D05803209F46CC00D
:100BC00080913D05803309F469C084E026C080919E
:100BD000410590914205A0914305B0914405892BB0
:100BE0008A2B8B2B09F484CF0E94860280904105CA
:100BF00090904205A0904305B09044056C197D0982
:100C00008E099F0986169706A806B90608F070CFC8
:100C1000809140050E943F0585E0109246051092A4
:100C2000680510924505DF91CF911F910F91FF90BC
:100C3000EF90DF90CF90BF90AF909F908F900895EE
:100C40009D9191938F5F69CF85EEA5CF80914105EE
:100C500090914205A0914305B0914405892B8A2BC0
:100C60008B2B09F49ECF0E948602009141051091C2
:100C7000420520914305309144056C197D098E0988
:100C80009F09061717072807390708F08ACFC0CF32
:100C900081E0C3CF80E0C1CF82E0BFCF83E0BDCF92
:100CA000CF92DF92EF92FF920F931F93CF93DF9338
:100CB000D82FC62F613208F098C00E9486026B01BF
:100CC0007C0180913F0581116BC081E080933F05DD
:100CD00080933E059FEF90933D0510923C059C0F3D
:100CE00090933B0580931A0580911A05DD0FD82B50
:100CF000D0931A0580911905813009F078C01092BF
:100D000019050E9486026B017C0180911A0580936F
:100D1000BB008091410590914205A0914305B0919F
:100D20004405892B8A2B8B2BA1F00E94860200910F
:100D300041051091420520914305309144056C19FD
:100D40007D098E099F09061717072807390708F438
:100D500048C08091BC0083FDD8CF85EC8093BC0057
:100D60000E9486026B017C0180913F05813009F46D
:100D700040C080913C058C1710F4C0913C05EBE11C
:100D8000F5E0A3EFB4E080E08C1355C08C2FDF9129
:100D9000CF911F910F91FF90EF90DF90CF9008952A
:100DA0008091410590914205A0914305B091440581
:100DB000892B8A2B8B2B09F484CF0E948602009109
:100DC00041051091420520914305309144056C196D
:100DD0007D098E099F09061717072807390708F0AC
:100DE00070CF809140050E943F05C0E0CFCF85EED7
:100DF000B5CF8091410590914205A0914305B091F6
:100E00004405892B8A2B8B2B09F4AECF0E948602D6
:100E10000091410510914205209143053091440510
:100E20006C197D098E099F090617170728073907CE
:100E300008F09ACFD6CF91919D938F5FA5CFE09187
:100E4000180580911705E81730F4F0E0ED50FB4FDE
:100E5000808190E008958FEF9FEF0895909118059D
:100E6000809117052FEF3FEF981748F4E92FF0E036
:100E7000ED50FB4F208130E09F5F90931805C90132
:100E800008958091170590911805891B990B089575
:100E9000CF92DF92EF92FF920F931F93CF93DF9346
:100EA0007C01CB018A0120914505222389F0EB01C9
:100EB0006B01C40ED51ECC15DD0569F06991D70113
:100EC000ED91FC910190F081E02DC7010995F3CFE0
:100ED000642F0E94E304C801DF91CF911F910F910D
:100EE000FF90EF90DF90CF900895CF93DF931F9204
:100EF000CDB7DEB76983209145052223F9F0209113
:100F00006805203258F021E030E0FC013383228371
:100F100090E080E00F90DF91CF9108958091460599
:100F2000E82FF0E0E95BFA4F998190838F5F80931F
:100F300046058093680581E090E0ECCF61E0CE014A
:100F400001960E94E304F7CF682F84E096E00C94AA
:100F5000750781E00C946005CF93DF93C0E1D6E084
:100F60008A8388810E9495018E819F81DC01ED91A9
:100F7000FC910190F081E02D6A8109958E819F811D
:100F80000E94A90790E09D838C83DF91CF91089503
:100F9000CF93DF93EC018B81882371F088810E94CD
:100FA000950189819A810E94A90791E0811190E0C1
:100FB000892FDF91CF9108950E94280581E08B83CE
:100FC000CE010E94C807982F8111E8CFF1CFCF93AF
:100FD000DF93D62FC72FFC01808180620E9495018C
:100FE00082E10E94A4078D2F0E94A4078C2F0E94EB
:100FF000A40784E096E0DF91CF910C94A907CF93EA
:10100000DF93EC0168830E942805888180620E943A
:10101000950180E00E94A4078FEF0E94A40784E05E
:1010200096E00E94A907888180620E94950181E074
:101030000E94A4078FEF0E94A40784E096E0DF914E
:10104000CF910C94A9079C01DC01A058BF4FEC91F3
:1010500091E09E0F9C93E20FF32FF11D608397FDAB
:101060001C920895FC0180818076803611F4818184
:1010700008958081829586708E5F0895CF92DF9269
:10108000EF92FF920F931F93CF93DF93EC0109E14F
:101090001EE2EE24E394F12C93E0D92ECC24C394E9
:1010A000CE010E94320880936304E0916304E15012
:1010B000109262048FEF909162049E1768F4A091E1
:1010C0006204AC0FBD2FB11D9C91892790916204E1
:1010D0009F5F90936204EFCFEC0FFD2FF11D808393
:1010E000F89480916104813059F4809160048117F3
:1010F00038F01092610480916F008D7F80936F00B3
:10110000789480916104813031F48091600484315D
:1011100038F2C12CC5CF8091610481110EC0F894C2
:1011200080916F008F7D80936F00B59B09C0809187
:101130006F00806280936F007894C110B1CF56C069
:10114000E0915E04F0915F04808190915D049701CD
:1011500001C0220F9A95EAF7822B80838091840048
:10116000909185008A5A9C4F90935C0480935B0415
:1011700080915B0490915C04909389008093880037
:101180007894D0935A04C093590410926204109238
:101190005804888180935704D092610410926004AF
:1011A000B19A80916F00826080936F00809161049A
:1011B0008330E1F3809158048823B1F0E091550425
:1011C000F0915604E757FF4F8081918101969183FA
:1011D000808383E090E0DF91CF911F910F91FF908A
:1011E000EF90DF90CF900895809161041B3108F05B
:1011F0001150015009F052CF8091EF049091F0040A
:1012000001969093F0048093EF0486E090E0E3CFA2
:10121000CF93DF93CDB7DEB760970FB6F894DEBFFC
:101220000FBECDBF8BEB89838BE78A831B82CE01F8
:1012300001960E943E0860960FB6F894DEBF0FBE7E
:10124000CDBFDF91CF9108951092F60370E060E07A
:1012500086E10E94E90262E370E080E090E00C9495
:10126000AB020E942409109230040895809120015D
:10127000811103C0809107040895823019F4809190
:10128000F803089580E00895CF93DF93C0912E0472
:1012900080912D04DC2FC82F80912A0490912B047B
:1012A0008C179D0749F0BE018CE294E00E94E7078D
:1012B000D0932B04C0932A04DF91CF910895EF922D
:1012C000FF920F931F93CF93662309F44EC0209192
:1012D0002C01C1E027FD04C0411104C0C0E002C0E0
:1012E0004111FCCF8C01E0902E01F0902F01C7013D
:1012F00001978F3F974008F03EC00E151F0539F447
:10130000C0931704C1110E9424091092F503809123
:101310002C0181FF1BC0809130018823B9F0E114BA
:10132000F104A1F00E151F0588F08E0D9F2D911D63
:101330000817190758F4FF24F394F00EFE18C09311
:101340001704C1110E942409F092F503809136011F
:10135000909137019C01215031092F3F374028F4EB
:101360000817190711F4C093F703CF911F910F913C
:10137000FF90EF900895F12CE12CC9CF089590E0F3
:1013800080E00895EF92FF920F931F93CF93DF9326
:10139000DC0114962D913C912417350710F490E050
:1013A0001DC0EA017B018C01FC0180810E94950136
:1013B000D80111968D919C91DC01ED91FC910280F8
:1013C000F381E02DAE01B7010995C817D90739F7A8
:1013D00081E00E94600591E08111E1CF892FDF91CA
:1013E000CF911F910F91FF90EF900895CF93DF93CE
:1013F000CDB7DEB761970FB6F894DEBF0FBECDBF95
:101400001982A1EFB5E0FE013196BF019C911196C2
:101410008C911197129691838283329686E0A13047
:10142000B807A1F741E150E08091010690910206D2
:101430000E94C20961960FB6F894DEBF0FBECDBF01
:10144000DF91CF9108950E94500610921805809365
:1014500017050895FF920F931F93CF93DF938C018D
:10146000C62FDCE0683010F0C850DDE0F801808164
:1014700080620E9495018D2F0E94A40784E096E06F
:101480000E94A907F8018081806261E070E090E02D
:101490000E94230A84E096E00E942E07F82EF801AD
:1014A000808180620E9495018D2F0E94A40781E0B7
:1014B00090E001C0880FCA95EAF78F290E94A4071F
:1014C00084E096E0DF91CF911F910F91FF900C94F3
:1014D000A9070F931F93CF93DF938C01C62FD2E1FF
:1014E000683010F0C850D3E1F801808180620E941A
:1014F00095018D2F0E94A40784E096E00E94A90721
:10150000F8018081806261E070E090E00E94230A2F
:1015100084E096E00E942E07992702C09595879552
:10152000CA95E2F78170DF91CF911F910F910895D5
:10153000EF92FF920F931F93CF93DF9306EB15E08B
:10154000D0E0C0E08FE1F82EEC2EF80161918F0120
:1015500080E0603120F482EC95E00E94690A90E01E
:1015600002C0880F991FEA94E2F780959095F822BF
:101570002196C530D10541F78F2DDF91CF911F9175
:101580000F91FF90EF900895EF92FF920F931F93AA
:10159000CF93DF938091250428E0829FC00111241E
:1015A000C091020420E1C29FE0011124C82B809168
:1015B000170420E2829FC0011124C82B80911604D9
:1015C00020E4829FC0011124C82B8091F70320E8FA
:1015D000829FC0011124C82B0E94980A80FF15C069
:1015E00080912904880F0091270494E0099F8001CD
:1015F0001124802B00912604802B8C2BDF91CF911E
:101600001F910F91FF90EF90089584E00E94F301E5
:101610007C0185E00E94F3018C0188E00E94F301C7
:10162000000F111F880F991F880F991F082B0E2973
:101630008C2F802BE3CFFF920F931F93CF93DF93D9
:101640001F92CDB7DEB78C016983F42EF801478372
:10165000608785E090E095838483642FCE010196B6
:101660000E94690AF80116826F2DCE0101960E9430
:10167000690A882319F083E0F80186830E94DD025D
:10168000F80160837183828393830F90DF91CF9100
:101690001F910F91FF900895EF92FF920F931F9368
:1016A000CF93DF938C01C62FE42E84E1F82ED2E194
:1016B000683020F0C85095E1F92ED3E1F80180811F
:1016C00080620E9495018F2D0E94A40784E096E01D
:1016D0000E94A907F8018081806261E070E090E0DB
:1016E0000E94230A84E096E00E942E0721E030E069
:1016F00001C0220FCA95EAF7F1E0C82FC22BEF16FE
:1017000019F02095C22FC823F801808180620E94C1
:1017100095018D2F0E94A4078C2F0E94A40784E0BE
:1017200096E0DF91CF911F910F91FF90EF900C9475
:10173000A907FC01962F828D8F3F31F0603140F474
:10174000CF014B960C944C0B642F892F0C941C02E8
:1017500008950F931F93CF93DF93C62F8C01055EDF
:101760001F4FD1E062FB442740F94D2768E0C801D4
:101770000E944C0BC1FB442740F94D2767E0C8018C
:101780000E944C0B4C2F4095417066E0C801DF91E0
:10179000CF911F910F910C944C0BFF920F931F93BD
:1017A000CF93DF938C01C62FF42ED0E0683010F079
:1017B000C850D1E0F801808180620E9495018D2F90
:1017C0000E94A40784E096E00E94A907F8018081A6
:1017D000806261E070E090E00E94230A84E096E07D
:1017E0000E942E0721E030E001C0220FCA95EAF7DF
:1017F000C82FC22BFF2019F02095C22FC823F80153
:10180000808180620E9495018D2F0E94A4078C2FF9
:101810000E94A40784E096E0DF91CF911F910F9181
:10182000FF900C94A907603110F40C94CD0B08952F
:10183000CF93DF93EC01888180620E94950182E161
:101840000E94A40784E096E00E94A9078881806234
:1018500062E070E090E00E94230A84E096E00E943B
:101860002E07C82F84E096E00E942E0720E0382F34
:10187000C9018C2BDF91CF910895CF93DF93EC01B9
:1018800040E06E810E94990B41E06E81CE010E9482
:10189000990B40E06E81CE010E94990B8BE891E09C
:1018A0000197F1F7DF91CF910895AF92BF92CF9258
:1018B000DF92EF92FF920F931F93CF93DF93EC0190
:1018C0008A8D8E01095F1F4FC62ED12C8F3F09F4E0
:1018D00066C07E018BE1E80EF11CC7010E94180C66
:1018E000F80130E020E001E010E04191B801042E61
:1018F00002C0660F771F0A94E2F760957095862301
:101900009723B601022E02C0759567950A94E2F7F7
:101910006170772702C0660F771F4A95E2F7862B22
:10192000972B2F5F3F4F24303105F9F62E81680148
:1019300002C0CC0CDD1C2A95E2F7C094D094C822DA
:10194000D922B601C7010E94E7078E81B80102C003
:10195000660F771F8A95E2F7C62AD72AB601C70114
:101960000E94E7078E81B80102C0660F771F8A9533
:10197000E2F7609570956C217D21C7010E94E70711
:101980008BE891E00197F1F7DF91CF911F910F91D3
:10199000FF90EF90DF90CF90BF90AF900895F12C23
:1019A000E12C5E01EBE1AE0EB11CF80181918F01DB
:1019B0009A8D9F3F39F141E0682FC5010E94130CB9
:1019C000A6010E2C02C0559547950A94E2F7417086
:1019D000F80131976081CE010E94990BFFEFEF1A59
:1019E000FF0A84E0E816F10401F7CE01DF91CF9100
:1019F0001F910F91FF90EF90DF90CF90BF90AF902D
:101A00000C943D0C61E00E944A02DACFAF92BF9283
:101A1000CF92DF92EF92FF920F931F93CF93DF93BA
:101A2000EC01F62E6C810E94990B6D816F3F21F0C5
:101A300040E0CE010E94990B0F2D10E08C8984FFAD
:101A40003BC06E0187E0C80ED11CF12CE12C5E0179
:101A5000EBE1AE0EB11CF60181916F019A8D9F3FB3
:101A600039F141E0682FC5010E94130CA8010E2C2A
:101A700002C0559547950A94E2F74170F6013197F7
:101A80006081CE010E94990BFFEFEF1AFF0A88E0F8
:101A9000E816F10401F7CE01DF91CF911F910F916C
:101AA000FF90EF90DF90CF90BF90AF900C943D0CE3
:101AB00061E00E944A02DACFB80184E0759567952B
:101AC0008A95E1F7CE010E94550C6F2DCE01DF9172
:101AD000CF911F910F91FF90EF90DF90CF90BF902B
:101AE000AF900C94550C41E00E94060D81E090E00F
:101AF000089541E0682F87EA95E00E94060D81E095
:101B000090E008950F931F93CF93DF938C01D0E063
:101B1000C0E0F801EC0FFD1F6491662339F041E04D
:101B200087EA95E00E94060D2196F3CFCE01DF9162
:101B3000CF911F910F91089540E00C94060DCF9323
:101B4000DF93CDB7DEB728970FB6F894DEBF0FBE90
:101B5000CDBF98E0EFE4F1E0DE01119601900D9227
:101B60009A95E1F79091BF05961708F46FEF262F2D
:101B700030E0220F331F41E050E04C0F5D1F240F77
:101B8000351FF9016081680F606887EA95E0289643
:101B90000FB6F894DEBF0FBECDBFDF91CF910C948E
:101BA0009C0D61E00E949C0D8BE39FE10197F1F792
:101BB000089587EA95E00E94D10D60E080E00E94E0
:101BC0009F0D89ED90E00C94820D87EA95E00E94CC
:101BD000D10D60E080E00E949F0D8BEC90E00C94B2
:101BE000820D87EA95E00E94D10D60E080E00E94BE
:101BF0009F0D8FE890E00E94820D82ED8093190482
:101C0000089587EA95E00E94D10D60E080E00E948F
:101C10009F0D8BE890E00E94820D88EC8093190460
:101C2000089587EA95E00E94D10D60E080E00E946F
:101C30009F0D80E890E00E94820D88E08093190457
:101C4000089587EA95E00E94D10D60E080E00E944F
:101C50009F0D80E790E00E94820D82E0809319043E
:101C6000089587EA95E00E94D10D60E080E00E942F
:101C70009F0D88E690E00E94820D81E08093190418
:101C800008953F924F925F926F927F928F929F92B0
:101C9000AF92BF92CF92DF92EF92FF920F931F937A
:101CA000CF93DF93C82F362E142FD22F81E080934D
:101CB00039038091D3039091D40301969093D40378
:101CC0008093D303C093F3030093A90281E0C11171
:101CD00001C080E08093F4030E94DD026093EF0373
:101CE0007093F0038093F1039093F203011104C009
:101CF00080912C0183FF9BC0CC2309F498C0809174
:101D00003A03D81709F48DC080912C0190912D01D0
:101D100080729927D0FD04C0892B21F082E003C096
:101D2000892BE1F381E08093EC038091EE0388231B
:101D300029F08091EC038C6F0E94AC078091D20354
:101D4000882309F46EC06D2F70E084E6189F600D43
:101D5000711D1124072E000C880B990B0E94233053
:101D60002B013C0120E030E040E05FE30E940F2FB8
:101D70000E94F22F6B017C01812C912C30E8A32E64
:101D80003FE3B32E00E080E1C81687E2D806E10405
:101D9000F104E0F0015020E030E040E251E4C50100
:101DA000B4010E94802F4B015C01AC019B01C30177
:101DB000B2010E94D33020E030E040E05FE30E94B7
:101DC0000F2F0E94F22F6B017C01DDCF20E030E06D
:101DD00040E85FE3C501B4010E947B2F712CC4E091
:101DE0002AE0822E912CA12CB12C87FF32C080E4F6
:101DF00090E09093F2058093F1059093F405809321
:101E0000F3059093F8058093F7059093FA05809376
:101E1000F90582E090E09093F6058093F5050E9425
:101E2000F60910933B03D0933A033092A802DF9156
:101E3000CF911F910F91FF90EF90DF90CF90BF90C7
:101E4000AF909F908F907F906F905F904F903F905A
:101E50000895C114D104E104F10411F4071588F1C7
:101E6000002319F0442443940711412C5C2EC150E7
:101E70006C2E84E0851558F0C701B601A5019401C8
:101E80000E944C31605D442D852D0E94A101C2301D
:101E900069F4CEEFC50D84E0861540F0E62DF0E044
:101EA000EE0FFF1FEF50FA4F11821082C701B601EB
:101EB000A50194010E944C3169017A017394C9CF44
:101EC000C150C7FDA6CFC530DCF7EC2FF0E0EE0F18
:101ED000FF1FEF50FA4F11821082F2CF0F93082F9D
:101EE00020914C04235480914E0498E9980F883631
:101EF00018F468E10E944031492F60914F048091AD
:101F000049040E94410E0F9108950F93AC019091E6
:101F10002C0192FF30C08091F303882361F120915E
:101F2000E7033091E8032E5833404217530718F562
:101F30005093E8034093E70393FF1DC020913A03B9
:101F400091E0920F90933A039C3358F090913B03A9
:101F50002B5320933A0321E0290F283170F420936A
:101F60003B030091A90220913A0340913B03609109
:101F7000A8020E94410E0F910895975190933B0340
:101F8000F0CF8F929F92AF92BF920F931F93CF93F8
:101F9000DF93CDB7DEB7A1970FB6F894DEBF0FBEC3
:101FA000CDBF19A2423008F44AE08E010F5D1F4FE9
:101FB000842E912CB12CA12CA50194010E944C31AE
:101FC000E62FB901CA01EA3044F5E05DD801EE938D
:101FD0008D01232B242B252B79F790E080E010979F
:101FE00069F0FD0101900020E9F73197AF014A1B2C
:101FF0005B0BBD0187EA95E00E947D03A1960FB6B9
:10200000F894DEBF0FBECDBFDF91CF911F910F912E
:10201000BF90AF909F908F900895E95CD7CFCF93FA
:10202000C82F87FD21C080E30E94790DC034E0F401
:1020300080E30E94790DC032B8F480E30E94790DEC
:10204000C03190F480E30E94790DC83068F480E3D9
:102050000E94790DC43040F480E30E94790DC230B3
:1020600018F480E30E94790D6C2F70E090E080E01E
:1020700042E0CF910C94C10FCF93DF93EC01653018
:10208000D8F0C03187E2D80750F480E30E94790D80
:10209000C83E83E0D80718F480E30E94790DC43667
:1020A000D10518F480E30E94790DCA30D10550F4AF
:1020B00080E30E94790D06C0643051F3633079F3F8
:1020C000623099F3BE0190E080E04AE0DF91CF9169
:1020D0000C94C10F87EA95E00E94D10D60E080E08A
:1020E0000E949F0D8AEB90E00E94820D61E080E0EB
:1020F0000E949F0D81EB90E00E94820D609118017B
:102100007091190190E080E04AE00C94C10F0F93A8
:102110001F93CF93DF930E94280580E20E949501D0
:1021200084E096E00E94A9079091E203882341F1A0
:10213000992319F01092180490E09093E203DF9134
:10214000CF911F910F910895606287EA95E00E94F8
:102150009C0D8BE496E40197F1F76091BB056062FA
:1021600087EA95E00E949C0D83E592E00197F1F7E4
:102170006091BB05606287EA95E00E949C0DACC04F
:10218000911120C160E080EF95E00E94FF078091EF
:10219000C1058F3F09F458C00E94280560E082EC19
:1021A00095E00E94FF0741E068E082EC95E00E9424
:1021B000CD0B41E066E082EC95E00E94CD0B41E062
:1021C00067E082EC95E00E94CD0B67E087EA95E03E
:1021D0000E94A90B6091AC05662329F041E082ECD6
:1021E00095E00E94130C41E06091AB0582EC95E014
:1021F0000E94130C41E06091AD0582EC95E00E94D5
:10220000130C0EEA15E0C7EAD5E0F80161918F01E1
:1022100041E082EC95E00E94130CF5E0023B1F07C1
:10222000A1F70CEA15E040E06F8582EC95E00E9492
:10223000130C6F85603120F482EC95E00E942A0A2D
:1022400021960C171D0779F78091BB058860809354
:10225000BB0582E08093BF051092C0058BE39DE033
:102260000197F1F740E06091AB0587EA95E00E94A5
:10227000990B40E06091AD0587EA95E00E94990BCB
:102280006091AC056F3F29F040E087EA95E00E943D
:10229000990B6091BB0564FD57CF63E087EA95E039
:1022A0000E94550CCBE4D6E4CE010197F1F763E030
:1022B00087EA95E00E94550C2197F1F763E087EAE1
:1022C00095E00E94550C83E592E00197F1F762E0FA
:1022D00087EA95E00E94550C6091BB05606287EA31
:1022E00095E00E949C0D84E08093BC056CE087EA39
:1022F00095E00E949C0D87EA95E00E94D10D82E056
:102300008093BD0566E087EA95E00E949C0D40E061
:1023100065E080EF95E00E94CD0B65E080EF95E0F1
:102320000E942A0A44E050E06091F00583EC95E0B9
:102330000E941B0B43E050E06091F00585ED95E0B5
:102340000E941B0B42E050E06091F0058EED95E09D
:102350000E941B0B41E050E06091F0058CEC95E091
:102360000E941B0B50E040E06091F00587EE95E085
:102370000E941B0B80911A0190911B01059711F48B
:102380000E946A1010923C031092410310921904AB
:102390001092400310923F038FEF9FEF909309013B
:1023A00080930801909307018093060190930B019D
:1023B00080930A0190930501809304019093030197
:1023C0008093020191E0B9CECF92DF92EF92FF921B
:1023D00083EA90E00E94820D80912204811104C062
:1023E00080911D04882301F1809119048A50990B72
:1023F0006C01092E000CEE08FF0897FF11C08DE25A
:102400000E94790D66277727CB016C197D098E090B
:102410009F094AE0FF90EF90DF90CF900C94C10F9E
:102420004AE0C701B601F6CFFF90EF90DF90CF9062
:10243000089542E050E064EA72E087EA95E00C9487
:102440007D0385ED8093BC0080914105909142050C
:10245000A0914305B09144050796A11DB11D23E04D
:10246000B695A795979587952A95D1F72091BC00A9
:1024700024FD03C010923F050895409141055091FD
:1024800042056091430570914405452B462B472B2F
:1024900069F30097A105B10541F02AE22A95F1F709
:1024A00000C00197A109B109E1CF809140050C94CA
:1024B0003F052F923F924F925F926F927F928F9241
:1024C0009F92AF92BF92CF92DF92EF92FF920F93C3
:1024D0001F93CF93DF9300D000D0CDB7DEB79C839E
:1024E0008B837C0141E8E40EF11C6C0150E8C50EC1
:1024F000D11C8C010E571F4F8D579F4F2C018B8184
:102500009C818C579F4F4C0122242A94AB80BC8025
:1025100097E8A90EB11CEB81FC81EB57FF4FFA83C2
:10252000E983F7018081F6019081891709F4BAC027
:10253000EB81FC81E80FF11D308037FE6DC0F801A2
:102540009081891739F0F501208131812F5F3F4F4C
:1025500031832083F8018083F2012082832D8076ED
:10256000F401803609F441C0832D829586708E5F18
:102570008083F8012081F4018081820F9927991FBF
:10258000813891059CF180E8682E621AF894F60172
:102590004081F8018081841708F044C0F42FF81BB3
:1025A0008F2FF60180837894F80160814617E8F553
:1025B000712C50E06B817C81CB01860D971D0E94B0
:1025C0009932F80160814B815C81460F511DBA013F
:1025D000A3018B819C810E949932F7018081F801CF
:1025E0009081891BF7018083F8011082F7019081A7
:1025F0009F5F9083F8018081392F381B97FF02C0BD
:10260000F7011082F2012081F40190819317A9F063
:102610003226F201308285CFF40180818111E6CF2C
:102620003082A7CF862D840FBCCF461B50E08B8114
:102630009C81860F911DBC01CCCF32122AC04B81E8
:102640005C81480F511DCA01E981FA8140815181A5
:102650004F5F5F4F51834083F7013081F801308332
:102660000097B1F20F900F900F900F90DF91CF91E4
:102670001F910F91FF90EF90DF90CF90BF90AF90A0
:102680009F908F907F906F905F904F903F902F9092
:102690000895F5018081918101969183808390E076
:1026A00080E0DACF90E080E0DDCF6F927F928F9272
:1026B0009F92AF92BF92CF92DF92EF92FF920F93D1
:1026C0001F93CF93DF93E091E903F091EA03D58163
:1026D000D3709780868073806280A82EE894A7F8D4
:1026E00087FD9AC0D061B62EE894B7F867FDD86030
:1026F000C42EE894C7F811E147FF10E1D22EE89408
:10270000D7F827FD1260F02EE894F7F807FD146063
:102710000E2D0F77E7FC1860C92DC82588E0C82763
:10272000C725C625C027CF25CD25CC25CB25CA2535
:10273000CD27C12765EE8AEA92E00E94230860E176
:102740008AEA92E00E942308662D8AEA92E00E94BB
:102750002308672D8AEA92E00E94230862E08AEA51
:1027600092E00E9423086D2F8AEA92E00E942308DB
:10277000682D8AEA92E00E942308692D8AEA92E095
:102780000E9423086A2D8AEA92E00E9423086B2D9A
:102790008AEA92E00E942308612F8AEA92E00E946E
:1027A00023086C2D8AEA92E00E9423086D2D8AEAA4
:1027B00092E00E9423086F2D8AEA92E00E9423088B
:1027C000602F8AEA92E00E9423086C2F6F778AEAD2
:1027D00092E00E9423086FEF8AEA92E00E942308A9
:1027E0008AEA92E00E9459129093EA038093E903E7
:1027F000009711F00E943E0881E0DF91CF911F9178
:102800000F91FF90EF90DF90CF90BF90AF909F908F
:102810008F907F906F900895D46165CF0F931F9331
:10282000CF93DF93E82FF0E099E0899FD001112446
:10283000AF59BE4F15962D913C9126173707C0F022
:102840008B01C82FEE0FFF1FE45FFE4F7183608383
:10285000CF5FCC0FD0E0612FCE010E94002F602F00
:10286000CE010196DF91CF911F910F910C94002F13
:10287000DF91CF911F910F910895893110F40C943D
:102880000E140895CF93DF936DE490E080E00E94F2
:10289000002F6AE581E090E00E94002FC1E6D1E0C0
:1028A00069817A8188810E943D14299682E0C23430
:1028B000D807B1F7DF91CF910895EF92FF920F9370
:1028C0001F93CF93DF9365E080EF95E00E94690A44
:1028D00020E2829FC00111248095909561E085FDE2
:1028E00060E087EA95E00E94A90B0E94980A909107
:1028F000410381110CC0992309F466C01092410371
:10290000DF91CF911F910F91FF90EF90089589175C
:1029100009F45AC0909119048093410391110AC09F
:1029200082FFEECFDF91CF911F910F91FF90EF903B
:102930000C94310E9130C9F483FF05C00E946A10D7
:1029400010921904DDCF82FF08C0DF91CF911F9153
:102950000F91FF90EF900C94210E81FF35C00E94E3
:10296000E50D8AE080931904CBCF9230B1F483FD5A
:10297000D9CF82FF08C0DF91CF911F910F91FF90B7
:10298000EF900C94110E81FF1FC0DF91CF911F912A
:102990000F91FF90EF900C94010E953089F48C719B
:1029A00099F087EA95E00E94D10D60E080E00E94F6
:1029B0009F0D80911D04882309F480C08CE07FC0A6
:1029C0009730C1F583FDD7CF80911904853009F088
:1029D0009CC2C0913204D091330480910A0190913D
:1029E0000B01C817D90771F0D0930B01C0930A01EE
:1029F00061E080E00E949F0D8D2F0E940F108C2FB0
:102A00000E940F1080911904873009F089C261E09B
:102A100080E00E949F0D80913903882309F47CC2D5
:102A200080913B03C0913A03873108F46DC30E9443
:102A300019126EC39830A1F583FD87CF81FF15C0B1
:102A400080910E0190910F019093400380933F037A
:102A50000E94D90D82E180931904DF91CF911F91DB
:102A60000F91FF90EF900C94240982FFADCF8091DD
:102A70002C0182FF45CF87E08093190487EA95E017
:102A80000E94D10D60E080E00E949F0D8EE092E0F8
:102A9000DF91CF911F910F91FF90EF900C94820DD9
:102AA0009A30B9F484FD3ECF81FF8ECF87EA95E05E
:102AB0000E94D10D60E080E00E949F0D8BE080932A
:102AC0001904DF91CF911F910F91FF90EF900C941B
:102AD000E4119B30B1F484FD42CF81FF75CF87EACA
:102AE00095E00E94D10D60E080E00E949F0D8091F2
:102AF0001D04811163CF81EF91E00E94820D85E07A
:102B000031CF9C3069F484FDD1CF81FF5DCF87EA5E
:102B100095E00E94D10D60E080E00E949F0DEBCF18
:102B2000923199F584FF03C00E94240924CF83FFCA
:102B300010C00E94240980913F03909140030197A7
:102B400029F09093400380933F03DACE8FEF90E01B
:102B5000F8CF82FF0BC00E94240980913F0390911F
:102B60004003019671F781E090E0EBCF81FF0AC04E
:102B700080913F03DF91CF911F910F91FF90EF90D4
:102B80000C94721D80FF20CF68CF943108F49CC153
:102B90002091A605291708F47AC11CEE190F80FFB1
:102BA0004EC0F0903E03FF2009F4AACE60913F038F
:102BB00070914003C12FD0E01630E1F4672BA1F4EF
:102BC0000E944214CC0FDD1FC45FDE4F88819981C3
:102BD0000E94E51D61E08AE00E949F0DFF2009F43C
:102BE000F6C287E092E0F5C265E170E086E00E94FF
:102BF0000E14E8CF89E08C9FF0018D9FF00D112419
:102C0000EF59FE4F838194816817790708F4EEC26B
:102C1000858196818617970708F4E8C2808581111F
:102C2000E5C2812F0E943D14193160F28FEF9FEFB2
:102C30000E94E51D61E08AE00E949F0DD2CF84FFD3
:102C400012C080913E03882349F010923E03E12F89
:102C5000193108F4B5C08FEF9FEF07C10E94010E34
:102C6000109218044DCE81FF5CC080913E0381110B
:102C70001FC01931E8F4E12FF0E039E0139FD001D3
:102C80001124AF59BE4F18968C91811111C0EE0FCF
:102C9000FF1FE45FFE4F80819181909340038093FA
:102CA0003F0321E020933E0310923D030E94E51D67
:102CB00080913E03882309F423CEC0913D03CF5F6A
:102CC000C0933D03193148F449E0149FF0011124E9
:102CD000EF59FE4F8781823061F0812F0E94C41D21
:102CE00090E00196C817190631F481E080933D0306
:102CF00002C0C930D1F361E080913D030E949F0D75
:102D00006091BC05862F82608093BC056A6087EA6B
:102D100095E0DF91CF911F910F91FF90EF900C9470
:102D20009C0D83FF55C080913E038823E1F1C09143
:102D30003F03D09140038FEF9FEF193138F5E12E1B
:102D4000F12C59E0159FF0011124EF59FE4F078136
:102D5000023008F04FC2812F0E94921D8C0F9D1FE0
:102D60009093400380933F038C179D0708F042C265
:102D7000D0934003C0933F0389E08E9DF0018F9D67
:102D8000F00D1124EF59FE4F8581968120913F036C
:102D9000309140038217930708F063C0D09340033B
:102DA000C0933F035EC09F5F90931904921710F089
:102DB00020931904E0911904E451E93108F04BCF54
:102DC000F0E0EE0FFF1FE45FFE4F808191814DC068
:102DD00082FF4AC280913E03882309F44EC0C0910D
:102DE0003F03D091400390E080E0193140F5E12E9F
:102DF000F12C59E0159FF0011124EF59FE4F078186
:102E0000023008F014C2812F0E94921D9E01281BDF
:102E1000390B3093400320933F03C217D30708F0C8
:102E200006C2D0934003C0933F0389E08E9DF0011A
:102E30008F9DF00D1124EF59FE4F838194812091D5
:102E40003F03309140032817390720F4D093400303
:102E5000C0933F0380913F0390914003019609F492
:102E60009DCF80913F0390914003DF91CF911F91BF
:102E70000F91FF90EF900C94E51D915090931904E1
:102E8000933109F097CF84E18093190493CF983C54
:102E9000D9F482FF08C0DF91CF911F910F91FF906D
:102EA000EF900C94F10D84FD50CD81FF8DCD84E128
:102EB0008093190480910C0190910D010E94E51DF1
:102EC00081E0809318041CCD923D09F0D3C183FDAD
:102ED0005CCD84FD3ACD81FF77CD83ED80931904DD
:102EE00060E088E00E949F0D80E20E94790D8FEFE4
:102EF0009FEF9093400380933F03DF91CF911F9109
:102F00000F91FF90EF900C94111F8FEF9FEF909314
:102F10000B0180930A0176CD8AEF91E00E94820D29
:102F2000809119048A3009F01EC161E080E00E949E
:102F30009F0D0E94C40AC0912404DC2FC82F0E9458
:102F40003609E0903004F82E1091F60380910801C4
:102F500090910901C817D90761F4809106019091F9
:102F60000701E816F90629F480913C03181709F4C3
:102F700053C0D0930901C09308010E94E50D8FEF63
:102F80009FEF909307018093060161E080E00E942B
:102F90009F0D0E94C40A0E940F1061E08CE00E9405
:102FA0009F0DC091240480912304882309F4C6C096
:102FB000C0FDBCC0C1FDBCC0C2FDBCC0C3FDBCC027
:102FC00086E60E94790D63E08C2F90E00E943C1011
:102FD00061E089E00E949F0DF0920701E0920601F6
:102FE0006091300470E090E080E04AE00E94C10F00
:102FF0000E943609682F70E090E080E04AE00E946D
:10300000C10F60E08EE00E949F0D63E0812F90E091
:103010000E943C1010933C03809119048B3009F0FE
:10302000B4C0C0911F04D0912004809104019091FC
:103030000501C817D90799F0D0930501C093040181
:1030400061E080E00E949F0D80912204882309F4B2
:1030500097C08D2F0E940F108C2F0E940F1080910F
:1030600019048C3009F09DC0C0911A04D0911B0442
:103070008091020190910301C817D90799F0D0936C
:103080000301C093020161E080E00E949F0D8091E6
:103090001D04882309F480C08D2F0E940F108C2FEF
:1030A0000E940F1080911904823109F081C061E003
:1030B00080E00E949F0D0E94C40AC0913F03D091FE
:1030C000400320E03C2F282B8091000190910101CA
:1030D0002817390709F414CC30930101209300011B
:1030E0000E94D90D61E080E00E949F0D8EE30E9456
:1030F000790D63E0CE010E943C100E94C40A83FF58
:10310000FFCB80EE91E0C4CC62E090E00E943C10E6
:103110008AE30E94790DCC3330F462E08C2F90E08A
:103120000E943C10FDCE0E941912FACEC1E048CF99
:10313000C2E046CFC3E044CFC4E042CF20911C019F
:1031400030911D01C9018270992720FF05C0892B8C
:1031500029F4CF5F83E735CF892B19F0CC0F8CE6AC
:1031600030CF8EE22ECF8FEF9FEF909309018093A7
:103170000801909307018093060180933C034CCF94
:103180008CEE91E00E94820D6ACF8FEF9FEF9093BB
:1031900005018093040163CF8CEE91E00E94820DC3
:1031A00081CF8FEF9FEF90930301809302017ACF3D
:1031B0008FEF9FEF9093010180930001A1CB8FEFE0
:1031C0009FEF0E94E51D61E08AE00E949F0D80E074
:1031D00092E00E94820D61E080913D03DF91CF91EA
:1031E0001F910F91FF90EF900C949F0D193138F7BC
:1031F000F12CE8CC023009F0BFCD80913D0328E0EE
:1032000030E0281B310981E090E0AC0102C0440F9E
:10321000551F2A95E2F79A0180913F039091400350
:10322000842B932B9093400380933F03A5CD0230D2
:1032300009F0FBCD80913D0328E030E0281B3109E7
:1032400081E090E002C0880F991F2A95E2F78095EF
:10325000909520913F0330914003822393239093D4
:10326000400380933F03E1CD983C09F41CCE923D8E
:1032700009F42FCE933D09F0A7CB84FD0CCE82FF3D
:10328000A3CB3BCE1F920F920FB60F9211242F9318
:103290003F938F939F93AF93BF9380913504909109
:1032A0003604A0913704B09138043091340423E0FF
:1032B000230F2D3758F50196A11DB11D209334041D
:1032C0008093350490933604A0933704B093380468
:1032D0008091390490913A04A0913B04B0913C0450
:1032E0000196A11DB11D8093390490933A04A093D7
:1032F0003B04B0933C04BF91AF919F918F913F915C
:103300002F910F900FBE0F901F90189526E8230F56
:103310000296A11DB11DD2CF1F920F920FB60F9230
:1033200011242F933F934F935F936F937F938F93CA
:103330009F93AF93BF93EF93FF93E091D703F091E7
:10334000D803309749F0A685B7858585968D91FF7E
:1033500014C09C918923A1F4FF91EF91BF91AF918B
:103360009F918F917F916F915F914F913F912F919D
:103370000F900FBE0F901F9018959C91892361F7B5
:10338000A389B4899C918589809589238C938689AA
:1033900097890197F1F7608D718DA685B785558561
:1033A00038E020E0CB010197F1F7822F90E095956E
:1033B0008795282F4C91452309F02068315091F7CB
:1033C000868D81FD20958091D60390E001968F73C4
:1033D00099273091D503381799F0A091D603B0E022
:1033E000AE56BC4F2C938093D603828D938D01975C
:1033F000F1F7A389B4898C919589892B8C93ACCFF3
:10340000868D8160868FF1CF1F920F920FB60F923B
:1034100011242F933F934F935F938F939F93AF9379
:10342000BF93EF93FF9380919103882309F448C0E1
:1034300088B18F6088B985B1817C85B9E0919003AE
:10344000F0E0E457FC4F808125B190E09595879599
:10345000959587958E739927822B85B98BB1877C3B
:103460008BB9E0919003F0E0E457FC4F80812BB1E1
:1034700038E0839FC001112488739927822B8BB970
:103480004091900380918B0328B1480F5527551F19
:1034900081E090E002C0880F991F4A95E2F780957D
:1034A0009095822388B9809190038F5F80939003D9
:1034B0009091900380919103981710F010929003CF
:1034C0008091870390918803A0918903B0918A032A
:1034D0000196A11DB11D8093870390938803A0934B
:1034E0008903B0938A03FF91EF91BF91AF919F91B0
:1034F0008F915F914F913F912F910F900FBE0F9041
:103500001F9018951F920F920FB60F9211242F93B0
:103510003F934F935F936F937F938F939F93AF935B
:10352000BF93EF93FF938091B900887F803609F4B1
:103530004AC0F0F5883209F4A7C018F5803109F4C3
:103540009BC0B8F4882309F4F9C0883009F494C00A
:10355000FF91EF91BF91AF919F918F917F916F916B
:103560005F914F913F912F910F900FBE0F901F9041
:103570001895883109F488C0803251F780933D0551
:1035800014C0803409F49DC040F48033B9F388330B
:10359000F9F680933D0585ECB0C0803509F485C00F
:1035A000883509F496C0883499F60E942112D0CF4C
:1035B000883909F48CC038F5883729F050F48836FA
:1035C00011F0803729F683E080933F05109286033F
:1035D00057C0883809F47BC0803919F0803809F069
:1035E000B7CF80918603803208F071C0E0918603E6
:1035F00081E08E0F809386038091BB00F0E0EA5952
:10360000FC4F80833DC0803B39F0E0F4803A09F400
:1036100079C0883A09F09CCF84E080933F051092EE
:10362000650310926403E0911505F0911605099564
:103630008091640381110FC081E080936403109234
:10364000440309C0803C09F4A6CF883C09F4A3CF09
:10365000883B09F07DCFE091650381E08E0F809378
:103660006503F0E0EC5BFC4F80818093BB009091A0
:1036700065038091640329C080911A058093BB0083
:1036800085EC8093BC0064CF90913C0580913B0514
:10369000981758F5E0913C0581E08E0F80933C052A
:1036A000F0E0E55EFA4F8081E9CFE0913C0581E0F2
:1036B0008E0F80933C058091BB00F0E0E55EFA4FF1
:1036C000808390913C0580913B059817C8F285E86E
:1036D000D8CFE0913C0581E08E0F80933C0580912E
:1036E000BB00F0E0E55EFA4F808380913E058111DA
:1036F0005CCF81E08093190584EA8093BC0010922E
:103700003F0526CF85EC8093BC0010923F05809149
:103710008603803230F4E0918603F0E0EA59FC4FF2
:1037200010826091860370E0E0911305F09114051A
:1037300086E693E00995109286030ACF10923D0524
:1037400034CF1F920F920FB60F921124DF92EF9297
:10375000FF920F931F932F933F934F935F936F931A
:103760007F938F939F93AF93BF93CF93DF93EF9309
:10377000FF93B19A80915B0490915C0480549C4FBC
:1037800090935C0480935B0480915B0490915C0453
:10379000909389008093880080914203882371F080
:1037A00010924203189B26C081E080936104B59A71
:1037B00080916F00806280936F001CC080916004D4
:1037C0008F5F8093600480916104843009F043C06E
:1037D00080916004893030F58091570490E0959590
:1037E000879580935704189B05C080915704806883
:1037F00080935704FF91EF91DF91CF91BF91AF91EB
:103800009F918F917F916F915F914F913F912F91F8
:103810001F910F91FF90EF90DF900F900FBE0F90D0
:103820001F901895B59A80916F00806280936F0009
:103830008091550490915604189929C0FC01E957CC
:10384000FF4F808191810196918380831092600463
:1038500081E080936104809161048330E9F5E09117
:103860005E04F0915F04808120915D0433B190E0AB
:10387000022E02C0959587950A94E2F7832780FD72
:1038800011C01092600482E08093610425C06091B1
:1038900057040E94230880E090E0892BB9F20E942F
:1038A0000000D4CF80916004893008F043C030918B
:1038B000570481E090E001C0880F2A95EAF79081D3
:1038C00030FF36C08095892380838091570490E033
:1038D000959587958093570480916104823099F47F
:1038E0008091600481118EC0E0915E04F0915F04CC
:1038F000808190915D0421E030E001C0220F9A9513
:10390000EAF7822B808380916104813009F072CFC5
:1039100080916004882309F44ACF80916004883341
:1039200008F468CF1092610480916F008D7F43CFBF
:10393000892BCACF80916004893059F4308181E0AD
:1039400090E001C0880F2A95EAF780958323808351
:10395000C3CF809162048F5F80936204909163046F
:10396000891750F5109260048091590490915A047F
:10397000A0916204A80FB92FB11D8C9180935704B8
:10398000808141E050E001C0440F2A95EAF7842B82
:10399000808380918400909185008A5A9C4F9093F7
:1039A0005C0480935B0480915B0490915C04909331
:1039B00089008093880090CF81E080935804009123
:1039C000590410915A04E0905504F0905604C8012F
:1039D0000E943208D82ED0E0C0E0CD1548F4F8019E
:1039E000EC0FFD1F6081C7010E9423082196F5CFCF
:1039F00080E090E0892B11F00E940000109260049A
:103A000081E042CF809160048F3008F47CCFE09158
:103A10005E04F0915F04208130915D0481E090E0CC
:103A200001C0880F3A95EAF780958223808310922F
:103A3000600481E080936104E0915504F0915604A4
:103A4000E357FF4F808191810196918380835BCF03
:103A50001F920F920FB60F9211248F939F93EF93A3
:103A6000FF93B59AEFE6F0E080818F7D80838091AF
:103A700086009091870080529E4F90935C048093C3
:103A80005B0480915B0490915C0490938900809327
:103A90008800B19A80818260808384E08093610491
:103AA0001092600481E080934203FF91EF919F9117
:103AB0008F910F900FBE0F901F901895CF93C82F26
:103AC00061E070E080E090E00E94AB026C2F70E05B
:103AD00086E00E94E90262E370E080E090E0CF912E
:103AE0000C94AB02CF93C82F80912304811117C08F
:103AF00080911C0181FF13C080912404880F0E94D3
:103B00005E1DC093F6036C2F70E082E10E94E90213
:103B100062E370E080E090E0CF910C94AB02809182
:103B20001001EDCF893128F529E0829FF0011124A1
:103B3000EF59FE4F85819681803127E29207C8F4C4
:103B4000883E23E09207B8F484369105B0F40A97D2
:103B5000B0F481E090913D03891B990B853091056C
:103B600080F4880F991FFC01E95AFE4F80819181F2
:103B7000089585E0EFCF84E0EDCF83E0EBCF82E0E6
:103B8000E9CF90E080E008958931B8F429E0829F80
:103B9000F0011124EF59FE4F85819681803127E293
:103BA000920758F4883E23E0920748F48436910542
:103BB00040F40A9740F481E0089585E0089584E098
:103BC000089583E0089582E00895EF92FF920F93A5
:103BD0001F93CF93DF93CDB7DEB7E2970FB6F8947C
:103BE000DEBF0FBECDBF082FF92E6091BC056D7FE3
:103BF0006093BC05686087EA95E00E949C0D87EAA7
:103C000095E00E94D10D60E080E00E949F0D8DED57
:103C100091E00E94820D60E083E00E949F0DE090A1
:103C200019041DEE1E0D1A3018F480E20E94790D61
:103C3000612F70E090E080E04AE00E94C10F1CEE2E
:103C40001E0D60E086E00E949F0D81ED91E09A8359
:103C5000898389EC91E09C838B838FEB91E09E8339
:103C60008D8385EB91E098878F838DEA91E09A8729
:103C7000898785EA91E09C878B878DE991E09E8713
:103C80008D8783E991E0988B8F878CE891E09A8B00
:103C9000898B82E891E09C8B8B8B89E791E09E8BEE
:103CA0008D8B80E791E0988F8F8B87E691E09A8FDC
:103CB000898F8DE591E09C8F8B8F83E591E09E8FBE
:103CC0008D8F88E491E098A38F8F80E491E09AA390
:103CD00089A385E391E09CA38BA38AE291E09EA354
:103CE0008DA381E291E098A78FA386E191E09AA746
:103CF00089A78CE091E09CA78BA782E091E09EA72A
:103D00008DA787EF90E098AB8FA78CEE90E09AABF1
:103D100089AB88EE90E0193140F4E12FF0E0EE0F2E
:103D2000FF1FEC0FFD1F818192810E94820D61E0D7
:103D300080E00E949F0D80913E03882319F08EE35E
:103D40000E94790D193180F589E0189FF001112446
:103D5000EF59FE4F8781823039F5802F0E940F1076
:103D600080913E0381114EC0193150F489E0189FB3
:103D7000F0011124EF59FE4F8085882309F444C0D7
:103D800061E08EE00E949F0D8AED91E0E2960FB611
:103D9000F894DEBF0FBECDBFDF91CF911F910F9181
:103DA000FF90EF900C94820D812F0E94C41D682F0C
:103DB000802F9F2D0E943C10D3CF89E0189FF001E7
:103DC0001124EF59FE4F808581111EC061E0809162
:103DD0003D030E949F0D6091BC05862F82608093F9
:103DE000BC056A6087EA95E0E2960FB6F894DEBFFC
:103DF0000FBECDBFDF91CF911F910F91FF90EF903C
:103E00000C949C0D1931C8F2E2960FB6F894DEBFFF
:103E10000FBECDBFDF91CF911F910F91FF90EF901B
:103E200008951F93CF93DF93C0913F03D091400338
:103E30002196D0934003C0933F0361E080E00E944D
:103E40009F0DC038D10538F089E990E0DF91CF911E
:103E50001F910C94820DC0913F03D09140038C2F91
:103E60000E94950184E096E00E94A907182F8823FC
:103E700011F08430D1F480EA90E00E94820DDD27B9
:103E8000C031D10518F480E30E94790DBE0190E0A5
:103E900080E040E10E94C10F80E2143009F48FE31A
:103EA000DF91CF911F910C94790D2196D09340030F
:103EB000C0933F03C6CFCF92DF92EF92FF92109252
:103EC00007061092060628EEC22E23E0D22EE12C21
:103ED000F12CC0920806D0920906E0920A06F092F0
:103EE0000B0688E792E0909305068093040686E02F
:103EF0008093180680E88093190688E080931A065C
:103F000010921B0610921C0610921D0610921E069F
:103F100061E086E00E944A020E94DD0260931B0677
:103F200070931C0680931D0690931E068DE380936C
:103F3000100684E096E09093170680931606109280
:103F400011068FEF809312068093130610921506C8
:103F500010921406109202061092010610920306A7
:103F60001092AA051092A9051092C1051092BB05E6
:103F70008FE08093AB058EE08093AC058DE080935D
:103F8000AD058CE08093AE058BE08093AF058AE0B1
:103F90008093B00589E08093B1051092B60561E089
:103FA0006093B70582E08093B80583E08093B905FC
:103FB00084E08093BA058CE992E09093A805809301
:103FC000A7051092C3051092C4051092C505109262
:103FD000C6052AE030E03093C8052093C70510924B
:103FE000C9051092CA051092CC051092CD05109209
:103FF000CE051092CF053093D1052093D0051092B5
:10400000D2051092D3051092D5051092D6051092C4
:10401000D7051092D8053093DA052093D905109270
:10402000DB051092DC051092DE051092DF05109280
:10403000E0051092E1053093E3052093E20510922C
:10404000E4051092E5051092E7051092E80510923C
:10405000E9051092EA053093EC052093EB051092E8
:10406000ED051092EE058CE28093A60510928A056C
:1040700010928905C0928B05D0928C05E0928D0537
:10408000F0928E058AE892E09093880580938705E8
:1040900010929E0510929D051092A00510929F050A
:1040A0001092A2051092A1051092A4051092A305EA
:1040B0008091A5058E7F8D7F8093A5058695817063
:1040C00068278BE00E941C0261E08BE00E944A029C
:1040D000E9ECF2E0E491E0939705E5EBF2E0E4919E
:1040E000F0E0EE0FFF1FE056FD4F85919491909305
:1040F00099058093980560E08AE00E944A028091C9
:10410000A50581FD04C061E08AE00E941C028AE0EE
:1041100080939305E8ECF2E0E491E0939405E4EBFE
:10412000F2E0E491F0E0EE0FFF1FEA56FD4F8591BB
:104130009491909396058093950594E1C92ED12C86
:10414000E12CF12CC0927C05D0927D05E0927E0599
:10415000F0927F05109280051092810510928205E1
:10416000109283050E94DD026093780570937905B3
:1041700080937A0590937B0584E00E94F3018093FD
:10418000840584E080938505C0926D05D0926E050C
:10419000E0926F05F0927005109271051092720511
:1041A00010927305109274050E94DD0260936905F8
:1041B00070936A0580936B0590936C0585E00E946F
:1041C000F3018093750585E080937605FF90EF906D
:1041D000DF90CF900895CF93DF93CDB7DEB761978F
:1041E0000FB6F894DEBF0FBECDBF789484B5826061
:1041F00084BD84B5816084BD85B5826085BD85B58B
:10420000816085BD80916E00816080936E00109208
:104210008100809181008260809381008091810083
:104220008160809381008091800081608093800014
:104230008091B10084608093B1008091B000816072
:104240008093B00080917A00846080937A0080919E
:104250007A00826080937A0080917A0081608093F6
:104260007A0080917A00806880937A001092C10071
:104270006CE0E62E61E0F62E72E0C72ED12CC6016E
:104280000E94F82E182FC60101960E94F82E212FA9
:1042900030E0322F2227820F932F911DD7018D936B
:1042A0009D937D01B2E0CB0ED11CE4E3CE16D10488
:1042B00031F78091180190911901459728F465E133
:1042C00070E086E00E940E1480911A0190911B010B
:1042D000059711F00E94421480912C0180FF64C068
:1042E000E4E6F4E08FE8DF011D928A95E9F761E0EA
:1042F00087E00E944A02E5ECF2E02491E1EBF2E073
:10430000E491F0E0EE0FFF1FE056FD4F4591549110
:1043100080E091E031E0291741F08F5F932F082E64
:1043200001C0990F0A94EAF7F6CF50935F044093C7
:104330005E0480935D0484E694E090935604809339
:1043400055042098E0915E04F0915F042081309143
:104350005D0481E090E001C0880F3A95EAF780950E
:10436000822380831092800091E0909381001092CC
:104370006104B59A80916F00806280936F00809194
:104380008100887F8160809381009093EB0380910E
:104390002C0182FF09C0109244041092430484E06F
:1043A000809345040E9408091092F3031092D403ED
:1043B0001092D3031092EF031092F0031092F103C6
:1043C0001092F2031092F40380912C0190912D0130
:1043D00085709927059709F08CC00E9428058DE308
:1043E0000E94950184E096E00E94A907811103C014
:1043F00081E08093EE0380E70E94950184E096E0DF
:104400000E94A907811175C081E08093D203809139
:10441000010690910206009711F00E94103286E08A
:1044200090E00E9474318C0180E7F801808384E081
:1044300096E092838183138280E290E09583848367
:1044400010930206009301060E94280581E0D8011E
:1044500013968C93C8010E94C807882309F449C0A9
:1044600081E2898B41E050E0BE016F5E7F4F809119
:104470000106909102060E94C2091092F205109264
:10448000F1051092F4051092F3051092F6051092C2
:10449000F5051092F8051092F7051092FA051092A2
:1044A000F9051092FC051092FB051092FE05109282
:1044B000FD05109200061092FF050E94F60981E8A2
:1044C000898341E050E0BE016F5F7F4F809101061C
:1044D000909102060E94C2098FEE898341E050E06C
:1044E000BE016F5F7F4F80910106909102060E948E
:1044F000C2090E948710E090140180911501F0908C
:104500001601D0901C01D7FE07C090912C0190FDA0
:1045100003C0BF2DBC7EFB2E0E2D182FF0FC07C054
:10452000B801660F771F627084E00E944A02F1FCB6
:1045300005C06E2D627085E00E944A02F4FC0EC038
:1045400080912C0180FD0AC0B80123E07595679524
:104550002A95E1F7627088E00E944A0295E015957D
:1045600007959A95E1F7602F62708CE00E944A02ED
:1045700062E083E00E944A0262E08FE00E944A0209
:1045800062E080E10E944A0262E081E10E944A0208
:10459000F5FC04C061E089E00E944A0261E08DE020
:1045A0000E944A0220913401309135014AE0429F35
:1045B000C001439F900D1124B0E0A0E080937C05E2
:1045C00090937D05A0937E05B0937F0510928005A2
:1045D00010928105109282051092830580936D05DB
:1045E00090936E05A0936F05B093700510927105BE
:1045F00010927205109273051092740510922204A5
:10460000D2FE42C00E94280584E20E94950184E007
:1046100096E00E94A907182F811136C064E081E25C
:1046200094E00E94FF0740E0612F81E294E00E9445
:10463000130C612F81E294E00E942A0A1F5F10315F
:1046400091F781E08093220485E20E94950184E045
:1046500096E00E94A907182F811116C065E08CE131
:1046600094E00E94FF0740E0612F8CE194E00E94FB
:10467000130C612F8CE194E00E942A0A1F5F103115
:1046800091F781E080931D041092A2051092A1057C
:104690001092A00510929F0510929E0510929D0504
:1046A0008DE991E09093A4058093A30590919305E3
:1046B000963108F047C02DEB30E030939E052093F3
:1046C0009D052BE931E03093A00520939F052CE256
:1046D00031E03093A2052093A1052091680084E089
:1046E000983048F031E09E3008F430E081E001C0BD
:1046F000880F3A95EAF7822B809368002DE630E028
:10470000983050F02BE630E09E3030F02CE630E070
:10471000963110F030E020E030939B0520939A050D
:10472000292F30E0983008F0BDC081E001C0880F2B
:104730009A95EAF780939C058091A3059091A40532
:104740000197F1F78091A1059091A205892B49F17C
:10475000E091D703F091D80325E0E738F20709F19B
:10476000309739F0A389B4899C91858980958923F4
:104770008C938091A5058E7F8093A5051092D6031A
:104780001092D50387E895E09093D8038093D703E0
:10479000E0919A05F0919B05808190919C05892B71
:1047A000808387E895E09093DA038093D90386E6C7
:1047B00093E090933E0480933D0461E070E080E0DC
:1047C00090E00E94AB020E94240922242A948FE3E5
:1047D000382EFF24F39411E00E94DD028090DE0366
:1047E0009090DF03A090E003B090E103681979098D
:1047F0008A099B096E3771058105910520F10E9498
:10480000DD026093DE037093DF038093E0039093F7
:10481000E1038091DD038F258093DD03882399F0E8
:10482000809131048F2580933104882361F0809139
:10483000DC038F258093DC03882329F08091DB0340
:104840008F258093DB038091320490913304892B70
:1048500009F026C10E94DD0280901B0690901C0684
:10486000A0901D06B0901E06681979098A099B0957
:10487000653171058105910508F462C00E94DD0271
:1048800060931B0670931C0680931D0690931E0672
:104890000091190680911A06013C88F08195809359
:1048A0001A060FC09E3040F42850310981E001C043
:1048B000880F2A95EAF73ECF2E503109F7CF003204
:1048C00068F380911A06080F00931906E090180605
:1048D00061E08E2D0E944A02011105C060E08E2D1C
:1048E0000E941C022DC00F3F11F461E0F8CFEE2DA5
:1048F000F0E0EE5DFD4FE491E33009F4B5C040F423
:10490000E130D1F0E23009F4AAC007FDEECFE6CFE6
:10491000E73009F4B5C0E83009F4BAC0E430A9F7CB
:1049200080918000806280938000802F90E090933F
:104930008B0080938A0004C084B5806884BD07BD65
:104940000E9487108091E203813011F40E945D146F
:104950008091EB038111A8C0109217041092F50307
:104960008091F403882381F180912C0182FF2CC077
:1049700083FD2AC02091F303F0E68F2EFAEE9F2EDE
:10498000A12CB12C222359F030E050E040E060E649
:104990007AEE80E090E00E944C3149015A010E9479
:1049A000DD024090EF035090F0036090F1037090AF
:1049B000F203641975098609970986169706A806F1
:1049C000B90610F40E9408098091EE03882309F4C7
:1049D00097C461E0809110060E945006109218055D
:1049E00080931705813009F47DC482E890E09093AC
:1049F0001506809314068091110682FD81C4809172
:104A0000ED03882309F47FC44090140150901501F0
:104A1000D0901601E0901C0160902C0170902D0147
:104A2000B1E06B227724E7FE85C46114710409F0BC
:104A300081C4ED2DEC7EDE2ECC24C39488E00E9450
:104A4000F3015201BB244201F0E18F22992401E0DD
:104A500044FC72C4892B09F472C400E070C484B5AC
:104A6000806284BD08BD6CCF809180008068809397
:104A70008000802F90E0909389008093880060CF21
:104A80008091B00080688093B0000093B30058CF4D
:104A90008091B00080628093B0000093B40050CF4A
:104AA0006091310486E01CCF84E694E00E945912A4
:104AB000FC019093EA038093E903892B09F463C313
:104AC0007181272F30E06281462F50E0CA01969510
:104AD000982F88279795879580789770872B932BA9
:104AE000A081A23B29F10196A13B09F49CC070F47E
:104AF000A33809F48AC0A03B09F490C0A23849F554
:104B000080E090E0892B29F180E085C0AC3B09F47E
:104B1000A0C0A03D09F4A7C0A43BD9F47C33C9F4DC
:104B200080E090E0892BA9F08CE30E94000011C086
:104B300022E030E065FD02C021E030E040E050E0DE
:104B4000452B39F0880F991F6071820F931F0E94C7
:104B5000000090912C0192FFF5C0E091E903F091E3
:104B6000EA03828194FFEBC08B3709F0EBC08081B0
:104B70008F3E29F4828586FD02C080648287808111
:104B8000877F873E09F0DEC0858190E8899F90018C
:104B900011248481820F932F911DD101A81BB90B81
:104BA000B093E803A093E703828586FF75C38091E5
:104BB000430490914404181619060CF0C3C08EE00B
:104BC000A6E4B4E001900D928A95E1F781E00E949D
:104BD0006E0F8091450482FF11C080914B04B0E8B4
:104BE0008B9F9001112480914A04820F932F911D75
:104BF000F101E81BF90BCF010E94850F22E030E0A4
:104C000030934404209343049DC080E090E0892BBE
:104C100009F49FCF81E00E9400009BCF4072607139
:104C20000E945F0996CF66FF0AC0A0E0B0E0AB2B00
:104C300009F48FCF407260710E9400008ACFE0E0DB
:104C4000F0E0EF2B09F485CF407160720E94000004
:104C500080CF20E030E0232B09F47BCF40726071DD
:104C60000E94000076CF7076703221F07036C1F16C
:104C700071116FCF80E090E0892B09F46ACFC901F0
:104C80009695982F88279795879580789F70840FA1
:104C9000951FA5E035952795AA95E1F72170019616
:104CA00033814481E42FF0E0AF013D3731F070E80B
:104CB000379FA00111244E0F5F1F6F7081F162308A
:104CC00081F1643081F1663081F1683081F16A30C0
:104CD00081F16C3081F16E3081F10E94000039CF9A
:104CE00080E090E0892B09F434CFE3808E2D807D25
:104CF000803109F02ECFC480DD24D39401E041E05F
:104D00008E2D8D2109F040E02C2D2D21DD0C602F02
:104D100080E80E9400000F5F053089F71ACF61E438
:104D2000DCCF62E4DACF63E4D8CF64E4D6CF65E4C5
:104D3000D4CF66E4D2CF67E4D0CF68E4CECF8B3750
:104D400009F41DCF6090E9037090EA03C3010E944B
:104D50003208803109F017C2D3018C91853E09F0E9
:104D600012C214968C911497823009F00CC21696D8
:104D70002C91169780910C0190910D01281719061E
:104D800009F0E8C117962C91179780911A0190911C
:104D90001B012817190609F0DDC115968C9115978E
:104DA00090E09C01E4E0220F331FEA95E1F72078C0
:104DB0001996AC901997E894A7F82A2930E0322F79
:104DC000222705E0880F991F0A95E1F78078189649
:104DD000AC90E894A7F8A82AA20EB32EB11C6501E6
:104DE000B1E0CB1AD1088C2CE8E1EC1550F029E0A9
:104DF000C29EF0011124EF59FE4F31E087818130CE
:104E000009F030E0D30113968C918130F1F5B9E1CE
:104E1000CB16D104D0F5F301828590E063856F77DE
:104E2000AC015695542F442757954795262F240FAC
:104E3000332309F438C246E0880F991F4A95E1F7F9
:104E4000807864856F77862B682F70E0762F6627D1
:104E5000620F711D8C2D0E943D14E091E903F091C9
:104E6000EA03838180648383F8E14FEFF81530F023
:104E7000F601EE0FFF1FE45FFE4F4081E12C00E0E2
:104E800020E060E08A2D0E945513E091E903F09143
:104E9000EA0383818230B9F429E1C216D10498F47F
:104EA00082E4838338E14FEF381530F0F601EE0FDE
:104EB000FF1FE45FFE4F4081E12C00E020E060E056
:104EC0008A2D0E945513E091E903F091EA03838152
:104ED000833009F04BC049E1C416D10408F046C044
:104EE000628570E0CB019695982F882797958795D6
:104EF000992723852F77280F392F311D06E0660F5C
:104F0000771F0A95E1F76078772784858F77682B7C
:104F100058E18FEF9FEF581538F0F601EE0FFF1FA5
:104F2000E45FFE4F8081918126233723232B09F4F0
:104F3000BCC1682B792B8C2D0E943D14E091E903B4
:104F4000F091EA0383818064838378E14FEF7815E1
:104F500030F0F601EE0FFF1FE45FFE4F4081E12CC1
:104F600000E020E060E08A2D0E945513E091E90303
:104F7000F091EA038381853009F084C089E1C81685
:104F8000D10408F07FC0828590E0BC01A6E0660FE6
:104F9000771FAA95E1F7A62FA078EA2E64856F7790
:104FA000E62ABC01B5E0660F771FBA95E1F7062F38
:104FB000007865856F77062BBC0124E0660F771FAC
:104FC0002A95E1F7B62FB0787B2E66856F77762A23
:104FD00063856F779695982F882797958795680FA3
:104FE00070E08C2D0E943D14992493949C0C6E2D9E
:104FF00070E0892D0E943D1442E0E42EEC0C602FFD
:1050000070E08E2D0E943D1403E00C0D672D70E0C2
:10501000802F0E943D14E091E903F091EA0383811F
:1050200080648383E8E14FEFE81530F0F601EE0F7E
:10503000FF1FE45FFE4F4081F8E12FEFF91538F0D4
:10504000E92DF0E0EE0FFF1FE45FFE4F208138E115
:105050008FEF3E1538F0EE2DF0E0EE0FFF1FE45F0E
:10506000FE4F8081EE24EA94093138F4E02FF0E01D
:10507000EE0FFF1FE45FFE4FE080082F60E08A2DF7
:105080000E945513E091E903F091EA038381863091
:10509000B1F549E1C416D10490F586E4838358E163
:1050A0004FEF581530F0F601EE0FFF1FE45FFE4F93
:1050B0004081E1E0EC0D2FEFE93130F4F0E0EE0F4C
:1050C000FF1FE45FFE4F2081E2E0EC0D0FEFE931BE
:1050D00030F4F0E0EE0FFF1FE45FFE4F0081E3E0ED
:1050E000EC0DEE24EA94E93130F4F0E0EE0FFF1F0E
:1050F000E45FFE4FE08060E08A2D0E945513E0914E
:10510000E903F091EA038381883061F488E48383C2
:1051100040911A01E42E00910C0120E06DE08AE339
:105120000E945513E091E903F091EA0383818F30E7
:1051300089F40E944214E091E903F091EA0383812B
:1051400080648383E12C00E020E040E06B2D8A2D19
:105150000E945513E091E903F091EA0386818111E1
:1051600012C0878181110FC08381873061F487E489
:10517000838340911A01E42E00910C0120E06DE040
:105180008AE30E94551380912C0182FFE9CB0E9493
:10519000DD028090E3039090E403A090E503B090DB
:1051A000E603AB01BC01481959096A097B0943347C
:1051B00051056105710508F4D3CBD501C4018D5BA0
:1051C0009F4FAF4FBF4F8093E3039093E403A093AF
:1051D000E503B093E6038091430490914404029761
:1051E00009F043C080914A0490914904890F80934B
:1051F0004A0487FF25C0909145048F7780934A0425
:1052000080914B048F5F80934B0487FF19C08DE61C
:1052100080934A04892F8170885880934B04809131
:105220004C048F5F8F3708F045C080934C0491FF8A
:1052300055C08FEE8093460486E494E00E943E08B9
:105240008091450482FF11C080914B0470E8879FD4
:105250009001112480914A04820F932F911DD10156
:10526000A81BB90BCD010E94850F8091430490913A
:105270004404892B09F074CB8BEB89838BE78A83F9
:105280001B82CE0101960E943E08E1E0F0E0F0931F
:105290004404E093430464CB43E050E0509344045F
:1052A000409343044FCD80E0CFCD60957095682347
:1052B000792341CE83E480934C0480914E048F5F28
:1052C00087FD03C080934E04B2CF88E680934E04DE
:1052D00080914F048F5F80934F04A9CF80E00E949C
:1052E0006E0FAECF8091160690911706DC01ED91FE
:1052F000FC910284F385E02D0995809311067DCB06
:105300001092ED0381CB1093ED038091EC0381307B
:1053100071F482E08093EC038091EE03882309F41A
:1053200073CB8091EC038C6F0E94AC076DCB109314
:10533000EC03F2CFC12C82CB892B09F48ECB6728EA
:1053400011F000E0C12CD1FED3C010922904D4FC8E
:105350002FC180912C0180FD2BC188E00E94F301B8
:105360009C01892809F027C181E0232B09F480E002
:1053700080932704E0901C01D0FE24C110922604E3
:10538000C0902904E3FE5AC1109229048CE00E94C7
:10539000F3019C01A6FC5AC181E0232B09F480E0B3
:1053A0008093250483E00E94F301EE24E394892B8B
:1053B00009F0E12C8FE00E94F301892B09F04DC127
:1053C00082E0E82A80E10E94F301892B09F047C1BD
:1053D00084E0E82A81E10E94F301892B09F041C1B0
:1053E00088E0E82AE09224040091120181E0043070
:1053F00009F080E080932304043009F438C18091DF
:105400002204882309F433C181E294E00E94180C3D
:105410009093200480931F048F3F980761F080953C
:10542000909521E09695879531E0320F009709F02D
:105430001AC120931E0480911D048823B9F08CE1C9
:1054400094E00E94180C90931B0480931A048F3FE1
:10545000980761F08095909520E19695879531E0C9
:10546000320F009709F001C120931E0480911904A6
:10547000823109F4D2C1809118048111CEC1C110CA
:10548000F9C0E0902604E1100FC0E0901704E1108D
:105490000BC080911E04EE24E394811105C080911D
:1054A0002804811101C0E12C80912304882309F490
:1054B00031C1EE24E3948091240481112EC1E12CAA
:1054C000023009F02AC10E943109E0913004E9302C
:1054D00008F0DAC0F0E0E159F54D0C946E31992BEB
:1054E000DF2B102C272C3B2C512C722C972C9A2C18
:1054F000E4FE41C089E695E00E94AA03809175050B
:1055000090917705A0FE19C0992309F420CF882334
:1055100019F01092280419CF80913C01809328043F
:10552000CC2019F0011110922804809128048111D7
:105530000E943109109329040ACF992391F08823FE
:1055400081F080913C0180932804CC2019F0011156
:10555000109228048091280481110E94310910932F
:10556000290480917705882309F4F1CE809175058F
:105570008111EDCECECF85E00E94F30121E0892B91
:1055800009F420E020932904CC2019F00111109295
:105590002904A1FE05C0809129048F258093290448
:1055A00080912904882309F4D2CE10922804CFCE0A
:1055B00010922704DFCE91E0232B09F090E0909326
:1055C0002704D8CE450121E082229924E4FE1EC0A2
:1055D00088E795E00E94AA03809184059091860552
:1055E000892869F0992309F4CBCE8111C7CE109395
:1055F0002604CC2009F4C4CE0111C2CEBFCE99231B
:1056000009F4BECE882309F4B9CEF1CF84E00E941C
:10561000F30121E0892B09F420E020932604CC201B
:1056200021F0011102C010922604892809F4A8CEA5
:10563000809126048F2580932604A2CE8091270492
:10564000082F0C2900932904C12CA0CE91E0232B14
:1056500009F090E090932504A5CE80E0B2CE80E0E2
:10566000B8CE80E0BECE232FDDCE232FF6CE109213
:105670001E04FCCE80901E0190901F01D7FC02C03A
:10568000811038C00E943109609116048DE00E949B
:105690001C02D5FC98C1E0902001E1109FC2D7FE0A
:1056A00064C180912704811102C0CC2021F01092A6
:1056B00009041092080480912604811109C0809188
:1056C0000904811105C080910804882309F481C26E
:1056D000E0910704E83008F048C1F0E0EE58F44DDE
:1056E0000C946E31A02C422D4C2D7C2D842DAA2D96
:1056F000C02DE42D0E94B90163E0880C991C6A95C5
:10570000E1F758EF852257E095228816990608F4AC
:10571000BBCFB8CFEE2009F4D3CE033009F0D5CEFD
:1057200080912904882309F4D0CE84E0809330044A
:10573000CCCEE0921604EE2009F4A6CF10933004EC
:10574000809123048823F1F08091240480FF0EC00F
:1057500081E00E94721D0E94DD026093120470932A
:10576000130480931404909315048ECF81FF02C01C
:1057700082E0EFCF82FF02C083E0EBCF83FFEBCF6D
:1057800084E0E7CF809128048111E3CF80911E044B
:105790008111DFCF80911704882321F08091F503D8
:1057A0008111D7CF80911C0180FF06C081FD04C00C
:1057B000809124048F5FCDCF80910E01CACF80915C
:1057C0002504882369F080913204909133048E7F00
:1057D000909333048093320482E08093300454CF5A
:1057E0000E94DD0240901204509013046090140453
:1057F000709015046419750986099709613D774011
:105800008105910508F440CF8091320490913304D2
:10581000816090933304809332041092300434CF2B
:10582000023019F4EE2009F42DCF80912504811166
:105830002BCF83E0809330040E94DD0260930E043E
:1058400070930F0480931004909311041DCF84E093
:10585000002319F2023059F4EE2009F413CF80919D
:10586000260190912701892BC1F285E0B6CF88E00F
:105870000430A9F7B2CFE11007CF0111CECF80914C
:10588000320190913301892B41F20E94DD02609335
:105890000A0470930B0480930C0490930D0486E02B
:1058A0009CCF809126019091270124E6289F20011A
:1058B000299F500C1124712C612C0E94DD02209133
:1058C0000E0430910F044091100450911104621B9A
:1058D000730B840B950B461657066806790608F479
:1058E0009CCFD2CE209132013091330188EE93E0EB
:1058F000289F2001299F500C389F500C1124712C97
:10590000612C0E94DD0220910A0430910B04409129
:105910000C0450910D04621B730B840B950B4616FF
:1059200057066806790608F0AFCE87E056CFE1103B
:10593000ABCE73CF80912404882309F46ECFA4CE1C
:105940000E94DD02609303047093040480930504B5
:1059500090930604109307041092080480911C0190
:1059600085FB882780F98093090480910204909137
:10597000F703892B8093020480911C0186FF1CC0D1
:1059800020913A012223C1F08091F6038F709FEF9E
:10599000980F983088F490910204992369F081500F
:1059A000990B41E050E002C0440F551F8A95E2F781
:1059B000242311F41092020460910204A5FC6F25C7
:1059C00089E00E941C020E94280582E20E94950143
:1059D00084E096E00E94A907E12C811119C0009192
:1059E0002F04011113C041E0602F8CE294E00E946B
:1059F000130C0F5F0031B9F710922B0410922A0498
:105A000070E060E08CE294E00E94E707EE24E3940B
:105A1000E0922F0410933E010E94C40AEE2089F008
:105A2000E09130049FEFE33320F4F0E0EE5BFD4FB4
:105A3000908183FF90C19F77909590932D040E9451
:105A400044090E94C40A082F0E943609EE2081F002
:105A5000833308F082C1E82FF0E0EE5BFD4F8081D8
:105A600004FF7DC18F77809580932E040E944409A6
:105A700080E090E0892B11F40C94EC230E9400004C
:105A80000C94E9238091220190912301892B21F12B
:105A900082E08093070469CF8091220190912301D5
:105AA00024E6289F2001299F500C1124712C612C81
:105AB0000E94DD022091030430910404409105040A
:105AC00050910604621B730B840B950B4616570608
:105AD0006806790608F049CF1093020483E08093AA
