:100000000C946A010C9492010C9492010C94541972
:100010000C9454190C9454190C9492010C94CC190E
:100020000C9492010C9492010C94F01C0C94691B9A
:100030000C9492010C9492010C9492010C949201F4
:100040000C940A190C9492010C9492010C94920154
:100050000C9492010C9492010C9492010C949201D4
:100060000C944A1A0C9492015374617475733F0096
:10007000496E626574726965626E61686D653F00A4
:10008000537465756572756E673F0043563F00494E
:1000900032432D5363616E3F006665727469670079
:1000A000307800506F7274457870616E64657220AC
:1000B0000056657273696F6E20004156522D536F62
:1000C000756E642D4652454400506C617965722D01
:1000D00053746174757300506C617965722D436F50
:1000E0006E74726F6C003F3F3F00536E64206F6E02
:1000F0002053747000535726536E642D4E6F2E009C
:1001000053572D44656C4F464600416472204C4E57
:100110002D5357004465626F756E632E4F4E00532A
:100120004E442D57616974004C4E206D617820411A
:10013000647200416472204C4E2D536E64004C4E2C
:100140002D46756E63004C65762053572D4F6666BD
:10015000004C65762053572D4F6E00536E642D5022
:10016000617573650053572D447572617400535760
:100170002D44656C4F4E0053572D4D6F64757300C1
:100180005044352D4C6576656C00436F6E6669672B
:1001900000536F6674772E2D49440056657273695B
:1001A0006F6E0050696E206E632E0050696E20697C
:1001B0006E7600536E642D4D6F64757300536E64DC
:1001C0002D4C6576656C00536E642D4E6F2E004489
:1001D0006576696365494400726F00435600205795
:1001E000696564657267616265006F686E6500537A
:1001F000746F6572756E67002D2D3A2D2D00666146
:10020000696C65640073746F726564004661737431
:10021000436C6F636B0000000000240027002A007D
:1002200000000008000201000003040700000000B5
:10023000000000000086227E6DD24620290B21702E
:10024000104080523F065B4F666D7D077F6F090D42
:10025000614843D35F777C395E79713D76301E7596
:100260003815373F736B336D783E3E2A766E5B39B7
:10027000640F2308025F7C585E7B716F74100C75ED
:100280003014545C7367506D781C1C14766E5B469A
:10029000307001000000000023002600290000004B
:1002A0000000250028002B000404040404040404B6
:1002B0000202020202020303030303030102040811
:1002C00010204080010204081020010204081020C0
:1002D0002F1FEA2D11241FBECFEFD8E0DEBFCDBF08
:1002E00012E0A0E0B1E0EAEFF3E602C005900D9263
:1002F000A43AB107D9F726E0A4EAB2E001C01D9202
:10030000A531B207E1F711E0C9E6D1E004C02197B9
:10031000FE010E94AA30C836D107C9F70E94BF204B
:100320000C94F0310C94000091E090933705809389
:1003300059051092380510925A05089508950895A8
:100340008530A8F4262F2052330BF901EC5CFD4FC9
:10035000E491A82FB0E0AA0FBB1FAD51BA4F30E80F
:10036000439FA0011124E42BF0E0ED93FC9308954A
:1003700080E480937C0080917A00806480937A008E
:1003800080917A0086FDFCCF809178009091790071
:100390000895833081F028F4813099F08230A9F0FB
:1003A00008958730A9F08830C9F08430B1F4809185
:1003B00080008F7D03C0809180008F7780938000C4
:1003C000089584B58F7784BD089584B58F7DFBCF64
:1003D0008091B0008F778093B00008958091B00035
:1003E0008F7DF9CFCF93DF93282F30E0F901E05EC6
:1003F000FD4F8491F901E454FD4FD491F901E85582
:10040000FD4FC491CC23A1F081110E94C901EC2FB2
:10041000F0E0EE0FFF1FEC56FD4FA591B491EC916B
:10042000ED2381E090E009F480E0DF91CF91089521
:1004300080E090E0FACF1F93CF93DF93282F30E036
:10044000F901E05EFD4F8491F901E454FD4FD49130
:10045000F901E855FD4FC491CC23A9F0162F811165
:100460000E94C901EC2FF0E0EE0FFF1FE256FD4F96
:10047000A591B4918FB7F894EC91111108C0D09563
:10048000DE23DC938FBFDF91CF911F910895DE2B88
:10049000F8CFCF93DF9390E0FC01E454FD4F24911B
:1004A00088559D4FFC0184918823C9F090E0880F06
:1004B000991FFC01EA5EFD4FA591B491FC01E25643
:1004C000FD4FC591D49161110DC09FB7F8948C91E7
:1004D000209582238C938881282328839FBFDF91D6
:1004E000CF910895623051F49FB7F8943C91822FD8
:1004F000809583238C93E8812E2BEFCF8FB7F894D0
:10050000EC912E2B2C938FBFEACF3FB7F8948091BC
:100510002B0490912C04A0912D04B0912E0426B5AB
:10052000A89B05C02F3F19F00196A11DB11D3FBF2B
:10053000BA2FA92F982F8827BC01CD01620F711DFA
:10054000811D911D43E0660F771F881F991F4A95F3
:10055000D1F708958F929F92AF92BF92CF92DF9280
:10056000EF92FF924B015C010E9485026B017C01BE
:100570000E9485026C197D098E099F09683E7340AF
:1005800081059105A8F321E0821A9108A108B1081C
:1005900088EEC80E83E0D81EE11CF11C8114910482
:1005A000A104B10429F7FF90EF90DF90CF90BF90A6
:1005B000AF909F908F9008952FB7F8946091270483
:1005C000709128048091290490912A042FBF0895E6
:1005D0008F929F92AF92BF92CF92DF92EF92FF9253
:1005E0001F93CF93DF93182FEB010E94DC026B0166
:1005F0007C018090310490903204A0903304B0903C
:100600003404C814D904EA04FB0409F453C00E945A
:10061000DC02DC01CB0188199909AA09BB098233E4
:100620009105A105B10578F422E3C22ED12CE12C6D
:10063000F12CA7019601281B390B4A0B5B0BCA0151
:10064000B9010E94AA021093420110924401C09382
:1006500045018091400190914101890F9927991F8F
:10066000810F911D20914301820F911DC80FD91F49
:10067000D195C195D109D0934601C0934701E0912E
:100680002F04F091300409950E94DC02609331043C
:10069000709332048093330490933404DF91CF91AC
:1006A0001F91FF90EF90DF90CF90BF90AF909F9001
:1006B0008F9008950E94DC02A7019601261B370B3C
:1006C000480B590BDA01C901AACFCF93DF93CFE3CF
:1006D000D1E08091D3039091D4036991DC01ED9135
:1006E000FC910190F081E02D0995B1E0C934DB0760
:1006F00081F7DF91CF910895AF92BF92CF92DF92B1
:10070000EF92FF920F931F93CF93DF936C017B01C6
:100710008B01040F151FEB015E01AE18BF08C01757
:10072000D10759F06991D601ED91FC910190F081CA
:10073000E02DC6010995892B79F7C501DF91CF918D
:100740001F910F91FF90EF90DF90CF90BF90AF90EF
:100750000895CF92DF92EF92FF920F931F93CF9362
:10076000DF93EC018D850E94F201182F8C851817FC
:1007700059F10E94DC02C880D980EA80FB806C19A4
:100780007D098E099F09CC80DD80EE80FF806C158D
:100790007D058E059F05C0F00E94DC026883798389
:1007A0008A839B831C87188619861A861B8681E09C
:1007B0008E8781E090E0DF91CF911F910F91FF90A4
:1007C000EF90DF90CF90089588859985AA85BB85A5
:1007D000892B8A2B8B2BD1F00E94DC020881198196
:1007E0002A813B81601B710B820B930B0885198555
:1007F0002A853B85601771078207930738F00E94AE
:10080000DC02688379838A839B83CDCF1E8690E048
:1008100080E0D1CFCF93DF9365E070E080E090E09F
:100820000E94AA028091D3039091D403DC01ED9140
:10083000FC910084F185E02D09950A979CF0CAE0AF
:10084000D0E08091D3039091D403DC01ED91FC9131
:100850000284F385E02D0995019621F0219789F70F
:1008600081E001C080E0DF91CF9108952091D10314
:100870003091D2032817390771F49091CF038091FA
:10088000D003981741F0E091CF03F0E0E457FC4F1C
:10089000808190E008958FEF9FEF08950895EF9283
:1008A000FF920F931F93CF93DF93DC015C96ED9043
:1008B000FC905D97E114F10479F481E090E01396E7
:1008C0009C938E93129790E080E0DF91CF911F91DF
:1008D0000F91FF90EF9008955196ED91FC915297F2
:1008E00050968C915097982F90950FB75E962C91BB
:1008F0005E97122F127021FD6095F89420811123CC
:1009000019F1282B2083E7012197F1F728E0462FE2
:1009100050E0308160FF1AC0382B3083E701219707
:10092000F1F7BA0175956795215089F7112381F088
:100930008081892380830FBF5C968D919C91019764
:10094000F1F781E090E0C1CF2923DCCF3923E5CF57
:100950009081892BEFCF2091D1033091D2032817BA
:10096000390761F48091D0032091CF0390E0805C3F
:100970009F4F821B91098F739927089590E080E023
:1009800008952091D1033091D20328173907B9F483
:100990009091CF038091D003981789F0E091CF0315
:1009A000F0E0E457FC4F80812091CF0330E02F5FCF
:1009B0003F4F2F7333272093CF0390E008958FEF9D
:1009C0009FEF089520915E03260F3327331F2132B6
:1009D0003105ECF420913105FC0190E080E02430F9
:1009E00069F082E00895A0915E032191AC01425C20
:1009F0005C4FA40FB52FB11D2C930196861798F369
:100A000080915E03680F60935E0380E0089581E04B
:100A100008951092310581E08093300510920B0506
:100A200061E082E10E941B0261E083E10E941B02FF
:100A3000E9EBF0E080818E7F808380818D7F8083F1
:100A400080E28093B80085E48093BC000895109202
:100A50000A05109209051092380510925A050E9455
:100A600009058EE991E090930805809307058FE9C9
:100A700091E090930605809305050895CF93DF9349
:100A800091E090933D038823B9F0C091B800D091D4
:100A9000BA008091BC008A7B8093BC0060E082E158
:100AA0000E941B0260E083E10E941B020E94090574
:100AB000D093BA00C093B800DF91CF9108958F9280
:100AC0009F92AF92BF92CF92DF92EF92FF920F93DD
:100AD0001F93CF93DF93D0915A05D13208F0D7C03E
:100AE000182FC09159050E9485026B017C018091ED
:100AF000310581116BC082E0809331051093300580
:100B00008FEF80932F0510922E05D0932D05A9E32A
:100B1000B5E0EDE0F5E080E0D81391C010920C054F
:100B200080910C05CC0FC82BC0930C0580910B0550
:100B3000813009F088C010920B050E9485026B017C
:100B40007C0180910C058093BB00809133059091CE
:100B50003405A0913505B0913605892B8A2B8B2B56
:100B6000A1F00E9485020091330510913405209177
:100B70003505309136056C197D098E099F090617D8
:100B800017072807390708F442C08091BC0083FD8D
:100B9000D8CF85EC8093BC000E9485026B017C015C
:100BA00080913105823009F450C080912F058F3F2C
:100BB00009F46FC080912F05803209F46CC08091D8
:100BC0002F05803309F469C084E026C08091330585
:100BD00090913405A0913505B0913605892B8A2B6B
:100BE0008B2B09F484CF0E9485028090330590906E
:100BF0003405A0903505B09036056C197D098E0935
:100C00009F0986169706A806B90608F070CF80914E
:100C100032050E943E0585E01092380510925A0573
:100C200010923705DF91CF911F910F91FF90EF90B8
:100C3000DF90CF90BF90AF909F908F9008959D913F
:100C400091938F5F69CF85EEA5CF80913305909109
:100C50003405A0913505B0913605892B8A2B8B2B55
:100C600009F49ECF0E94850200913305109134054E
:100C700020913505309136056C197D098E099F0943
:100C8000061717072807390708F08ACFC0CF81E079
:100C9000C3CF80E0C1CF82E0BFCF83E0BDCFCF9292
:100CA000DF92EF92FF920F931F93CF93DF93D82F92
:100CB000C62F613208F098C00E9485026B017C014A
:100CC0008091310581116BC081E080933105809363
:100CD00030059FEF90932F0510922E059C0F909357
:100CE0002D0580930C0580910C05DD0FD82BD0933A
:100CF0000C0580910B05813009F078C010920B052E
:100D00000E9485026B017C0180910C058093BB00E1
:100D10008091330590913405A0913505B091360549
:100D2000892B8A2B8B2BA1F00E9485020091330521
:100D30001091340520913505309136056C197D09E7
:100D40008E099F09061717072807390708F448C0B6
:100D50008091BC0083FDD8CF85EC8093BC000E94BD
:100D600085026B017C0180913105813009F440C01E
:100D700080912E058C1710F4C0912E05EDE0F5E062
:100D8000A5E3B4E080E08C1355C08C2FDF91CF91A8
:100D90001F910F91FF90EF90DF90CF900895809179
:100DA000330590913405A0913505B0913605892B16
:100DB0008A2B8B2B09F484CF0E9485020091330586
:100DC0001091340520913505309136056C197D0957
:100DD0008E099F09061717072807390708F070CFF3
:100DE000809132050E943E05C0E0CFCF85EEB5CFA1
:100DF0008091330590913405A0913505B091360569
:100E0000892B8A2B8B2B09F4AECF0E94850200918F
:100E100033051091340520913505309136056C1954
:100E20007D098E099F09061717072807390708F05B
:100E30009ACFD6CF91919D938F5FA5CFE0910A0570
:100E400080910905E81730F4F0E0EB5CFB4F8081FE
:100E500090E008958FEF9FEF089590910A0580919B
:100E600009052FEF3FEF981748F4E92FF0E0EB5C0E
:100E7000FB4F208130E09F5F90930A05C9010895E0
:100E80008091090590910A05891B990B0895CF92CD
:100E9000DF92EF92FF920F931F93CF93DF937C012A
:100EA000CB018A0120913705222389F0EB016B01E8
:100EB000C40ED51ECC15DD0569F06991D701ED9101
:100EC000FC910190F081E02DC7010995F3CF642FCB
:100ED0000E94E204C801DF91CF911F910F91FF9012
:100EE000EF90DF90CF900895CF93DF931F92CDB70F
:100EF000DEB76983209137052223F9F020915A0546
:100F0000203258F021E030E0FC013383228390E06E
:100F100080E00F90DF91CF91089580913805E82F00
:100F2000F0E0E75CFA4F998190838F5F80933805FA
:100F300080935A0581E090E0ECCF61E0CE0101960C
:100F40000E94E204F7CF682F86EF95E00C947407B7
:100F500081E00C945F05CF93DF93C2E0D6E08A83F3
:100F600088810E9494018E819F81DC01ED91FC912A
:100F70000190F081E02D6A8109958E819F810E9408
:100F8000A80790E09D838C83DF91CF910895CF9344
:100F9000DF93EC018B81882371F088810E9494019A
:100FA00089819A810E94A80791E0811190E0892FA0
:100FB000DF91CF9108950E94270581E08B83CE01B8
:100FC0000E94C707982F8111E8CFF1CFCF93DF930D
:100FD000D62FC72FFC01808180620E94940182E19C
:100FE0000E94A3078D2F0E94A3078C2F0E94A307A6
:100FF00086EF95E0DF91CF910C94A807CF93DF9314
:10100000EC0168830E942705888180620E94940118
:1010100080E00E94A3078FEF0E94A30786EF95E070
:101020000E94A807888180620E94940181E00E944A
:10103000A3078FEF0E94A30786EF95E0DF91CF9182
:101040000C94A8079C01DC01A058BF4FEC9191E0E3
:101050009E0F9C93E20FF32FF11D608397FD1C926E
:101060000895FC0180818076803611F48181089595
:101070008081829586708E5F0895CF92DF92EF9285
:10108000FF920F931F93CF93DF93EC0109E11EE2D0
:10109000EE24E394F12C93E0D92ECC24C394CE011A
:1010A0000E94310880937504E0917504E15010921C
:1010B00074048FEF909174049E1768F4A0917404E7
:1010C000AC0FBD2FB11D9C918927909174049F5F37
:1010D00090937404EFCFEC0FFD2FF11D8083F894F3
:1010E00080917304813059F480917204811738F033
:1010F0001092730480916F008D7F80936F007894BD
:1011000080917304813031F480917204843138F21B
:10111000C12CC5CF8091730481110EC0F8948091C9
:101120006F008F7D80936F00B59B09C080916F0029
:10113000806280936F007894C110B1CF56C0E09167
:101140007004F0917104808190916F04970101C047
:10115000220F9A95EAF7822B8083809184009091E8
:1011600085008A589E4F90936E0480936D04809101
:101170006D0490916E049093890080938800789418
:10118000D0936C04C0936B041092740410926A04A0
:10119000888180936904D092730410927204B19A8A
:1011A00080916F00826080936F0080917304833020
:1011B000E1F380916A048823B1F0E0916704F09133
:1011C0006804E757FF4F8081918101969183808366
:1011D00083E090E0DF91CF911F910F91FF90EF900E
:1011E000DF90CF900895809173041B3108F0115067
:1011F000015009F052CF80910105909102050196AE
:10120000909302058093010586E090E0E3CFCF93B1
:10121000DF93CDB7DEB760970FB6F894DEBF0FBE91
:10122000CDBF8BEB89838BE78A831B82CE0101962E
:101230000E943D0860960FB6F894DEBF0FBECDBF8A
:10124000DF91CF9108951092F10370E060E086E1A4
:101250000E94E80262E370E080E090E00C94AA0251
:101260000E94230910922204089580912001811187
:1012700003C0809102040895823019F48091F30331
:10128000089580E00895CF93DF93C091200480916A
:101290001F04DC2FC82F80911C0490911D048C1713
:1012A0009D0749F0BE018EE194E00E94E607D093CD
:1012B0001D04C0931C04DF91CF910895EF92FF921B
:1012C0000F931F93CF93662309F44EC020912C01F6
:1012D000C1E027FD04C0411104C0C0E002C04111BB
:1012E000FCCF8C01E0902E01F0902F01C7010197F7
:1012F0008F3F974008F03EC00E151F0539F4C0938C
:10130000F003C1110E9423091092EF0380912C0178
:1013100081FF1BC0809130018823B9F0E114F104F2
:10132000A1F00E151F0588F08E0D9F2D911D081739
:10133000190758F4FF24F394F00EFE18C093F0033D
:10134000C1110E942309F092EF0380913601909120
:1013500037019C01215031092F3F374028F40817ED
:10136000190711F4C093F203CF911F910F91FF90D1
:10137000EF900895F12CE12CC9CF089590E080E022
:101380000895EF92FF920F931F93CF93DF93DC01A9
:1013900014962D913C912417350710F490E01DC050
:1013A000EA017B018C01FC0180810E949401D8013B
:1013B00011968D919C91DC01ED91FC910280F3815D
:1013C000E02DAE01B7010995C817D90739F781E0BB
:1013D0000E945F0591E08111E1CF892FDF91CF91CC
:1013E0001F910F91FF90EF900895CF93DF93CDB7AA
:1013F000DEB761970FB6F894DEBF0FBECDBF19827E
:10140000A3EEB5E0FE013196BF019C9111968C913F
:101410001197129691838283329685E0A33FB80795
:10142000A1F741E150E08091F3059091F4050E940D
:10143000C10961960FB6F894DEBF0FBECDBFDF9134
:10144000CF9108950E944F0610920A0580930905D6
:101450000895FF920F931F93CF93DF938C01C62FB4
:10146000DCE0683010F0C850DDE0F8018081806277
:101470000E9494018D2F0E94A30786EF95E00E94A1
:10148000A807F8018081806261E070E090E00E942E
:10149000220A86EF95E00E942D07F82EF801808140
:1014A00080620E9494018D2F0E94A30781E090E04A
:1014B00001C0880FCA95EAF78F290E94A30786EF1B
:1014C00095E0DF91CF911F910F91FF900C94A807A9
:1014D0000F931F93CF93DF938C01C62FD2E1683017
:1014E00010F0C850D3E1F801808180620E9494011D
:1014F0008D2F0E94A30786EF95E00E94A807F801B0
:101500008081806261E070E090E00E94220A86EFB4
:1015100095E00E942D07992702C095958795CA9559
:10152000E2F78170DF91CF911F910F910895EF92B3
:10153000FF920F931F93CF93DF9308EA15E0D0E05B
:10154000C0E08FE1F82EEC2EF80161918F0180E070
:10155000603120F484EB95E00E94680A90E002C0BC
:10156000880F991FEA94E2F780959095F8222196CA
:10157000C530D10541F78F2DDF91CF911F910F918C
:10158000FF90EF900895EF92FF920F931F93CF93E8
:10159000DF938091170428E0829FC0011124C0913D
:1015A000FD0320E1C29FE0011124C82B8091F003CC
:1015B00020E2829FC0011124C82B8091110420E4F5
:1015C000829FC0011124C82B8091F20320E8829FE2
:1015D000C0011124C82B0E94970A80FF15C080917A
:1015E0001B04880F0091190494E0099F80011124C5
:1015F000802B00911804802B8C2BDF91CF911F91B1
:101600000F91FF90EF90089584E00E94F2017C0119
:1016100085E00E94F2018C0188E00E94F201000F37
:10162000111F880F991F880F991F082B0E298C2FC7
:10163000802BE3CFFF920F931F93CF93DF931F92E3
:10164000CDB7DEB78C016983F42EF801478360873C
:1016500085E090E095838483642FCE0101960E94FB
:10166000680AF80116826F2DCE0101960E94680A61
:10167000882319F083E0F80186830E94DC02F801D8
:1016800060837183828393830F90DF91CF911F9149
:101690000F91FF900895EF92FF920F931F93CF93B6
:1016A000DF938C01C62FE42E84E1F82ED2E168305E
:1016B00020F0C85095E1F92ED3E1F80180818062D5
:1016C0000E9494018F2D0E94A30786EF95E00E944F
:1016D000A807F8018081806261E070E090E00E94DC
:1016E000220A86EF95E00E942D0721E030E001C03C
:1016F000220FCA95EAF7F1E0C82FC22BEF1619F0B6
:101700002095C22FC823F801808180620E94940135
:101710008D2F0E94A3078C2F0E94A30786EF95E0D0
:10172000DF91CF911F910F91FF90EF900C94A8073C
:10173000FC01962F828D8F3F31F0603140F4CF0154
:101740004B960C944B0B642F892F0C941B0208951D
:101750000F931F93CF93DF93C62F8C01055E1F4F0E
:10176000D1E062FB442740F94D2768E0C8010E94A0
:101770004B0BC1FB442740F94D2767E0C8010E948D
:101780004B0B4C2F4095417066E0C801DF91CF9123
:101790001F910F910C944B0BFF920F931F93CF93BC
:1017A000DF938C01C62FF42ED0E0683010F0C850C3
:1017B000D1E0F801808180620E9494018D2F0E9407
:1017C000A30786EF95E00E94A807F8018081806258
:1017D00061E070E090E00E94220A86EF95E00E94AE
:1017E0002D0721E030E001C0220FCA95EAF7C82F8B
:1017F000C22BFF2019F02095C22FC823F801808149
:1018000080620E9494018D2F0E94A3078C2F0E945A
:10181000A30786EF95E0DF91CF911F910F91FF9085
:101820000C94A807603110F40C94CC0B0895CF935E
:10183000DF93EC0140E06E810E94980B41E06E81E5
:10184000CE010E94980B40E06E81CE010E94980B61
:1018500084EC90E00197F1F7DF91CF910895AF927A
:10186000BF92CF92DF92EF92FF920F931F93CF938D
:10187000DF93EC018A8D8E01095F1F4FC62ED12C9C
:101880008F3F09F482C07E018BE1E80EF11C8B8D45
:1018900080620E94940182E10E94A30786EF95E096
:1018A0000E94A8078B8D806262E070E090E00E9449
:1018B000220A86EF95E00E942D07B82E86EF95E06C
:1018C0000E942D0760E0782FCB018B29F80130E0D2
:1018D00020E001E010E04191B801042E02C0660F43
:1018E000771F0A94E2F76095709586239723B601D7
:1018F000022E02C0759567950A94E2F7617077270A
:1019000002C0660F771F4A95E2F7862B972B2F5F51
:101910003F4F24303105F9F62E81680102C0CC0C0E
:10192000DD1C2A95E2F7C094D094C822D922B601D2
:10193000C7010E94E6078E81B80102C0660F771FBB
:101940008A95E2F7C62AD72AB601C7010E94E607A0
:101950008E81B80102C0660F771F8A95E2F7609505
:1019600070956C217D21C7010E94E60784EC90E010
:101970000197F1F7DF91CF911F910F91FF90EF90B9
:10198000DF90CF90BF90AF900895F12CE12C5E01D5
:10199000EBE1AE0EB11CF80181918F019A8D9F3F52
:1019A00039F141E0682FC5010E94120CA6010E2CEE
:1019B00002C0559547950A94E2F74170F8013197B6
:1019C0006081CE010E94980BFFEFEF1AFF0A84E0BE
:1019D000E816F10401F7CE01DF91CF911F910F912D
:1019E000FF90EF90DF90CF90BF90AF900C94170CCA
:1019F00061E00E944902DACFAF92BF92CF92DF92AC
:101A0000EF92FF920F931F93CF93DF93EC01F62E8B
:101A10006C810E94980B6D816F3F21F040E0CE01F8
:101A20000E94980B0F2D10E08C8984FF3BC06E0143
:101A300087E0C80ED11CF12CE12C5E01EBE1AE0E6B
:101A4000B11CF60181916F019A8D9F3F39F141E000
:101A5000682FC5010E94120CA8010E2C02C05595DA
:101A600047950A94E2F74170F60131976081CE0103
:101A70000E94980BFFEFEF1AFF0A88E0E816F104C6
:101A800001F7CE01DF91CF911F910F91FF90EF9061
:101A9000DF90CF90BF90AF900C94170C61E00E9444
:101AA0004902DACFB80184E0759567958A95E1F728
:101AB000CE010E942F0C6F2DCE01DF91CF911F918F
:101AC0000F91FF90EF90DF90CF90BF90AF900C946C
:101AD0002F0C41E00E94FC0C81E090E0089541E071
:101AE000682F89E995E00E94FC0C81E090E0089560
:101AF0000F931F93CF93DF938C01D0E0C0E0F801E8
:101B0000EC0FFD1F6491662339F041E089E995E00F
:101B10000E94FC0C2196F3CFCE01DF91CF911F9153
:101B20000F91089540E00C94FC0CCF93DF93CDB758
:101B3000DEB728970FB6F894DEBF0FBECDBF98E092
:101B4000EFE4F1E0DE01119601900D929A95E1F734
:101B50009091B105961708F46FEF262F30E0220F11
:101B6000331F41E050E04C0F5D1F240F351FF9017A
:101B70006081680F606889E995E028960FB6F8944F
:101B8000DEBF0FBECDBFDF91CF910C94920D61E00F
:101B90000E94920D8CE99FE00197F1F7089589E981
:101BA00095E00E94C70D60E080E00E94950D87EDF2
:101BB00090E00C94780D89E995E00E94C70D60E0F3
:101BC00080E00E94950D89EC90E00C94780D89E9F5
:101BD00095E00E94C70D60E080E00E94950D8FE8BF
:101BE00090E00E94780D82ED80931304089589E9B6
:101BF00095E00E94C70D60E080E00E94950D8BE8A3
:101C000090E00E94780D88EC80931304089589E990
:101C100095E00E94C70D60E080E00E94950D80E88D
:101C200090E00E94780D88E080931304089589E97C
:101C300095E00E94C70D60E080E00E94950D80E76E
:101C400090E00E94780D82E080931304089589E962
:101C500095E00E94C70D60E080E00E94950D88E647
:101C600090E00E94780D81E08093130408954F92D4
:101C70005F926F927F928F929F92AF92BF92CF921C
:101C8000DF92EF92FF920F931F93CF93DF9381E048
:101C9000809333038091CD039091CE03019690936E
:101CA000CE038093CD03011104C080912C0183FFEA
:101CB000A2C0D22F042F0E94DC026093EB0370932A
:101CC000EC038093ED039093EE0380913403D817D7
:101CD00009F48DC080912C0190912D01807299277B
:101CE000D0FD04C0892B21F082E003C0892BE1F3F1
:101CF00081E08093E8038091EA03882329F08091B2
:101D0000E8038C6F0E94AB078091CC03882309F411
:101D10006EC06D2F70E084E6089F600D711D112468
:101D2000072E000C880B990B0E94812F2B013C0180
:101D300020E030E040E05FE30E946D2E0E94502FD3
:101D40006B017C01812C912C30E8A32E3FE3B32E54
:101D500010E080E1C81687E2D806E104F104E0F063
:101D6000115020E030E040E251E4C501B4010E948E
:101D7000DE2E4B015C01AC019B01C301B2010E944C
:101D8000313020E030E040E05FE30E946D2E0E94A1
:101D9000502F6B017C01DDCF20E030E040E85FE3B5
:101DA000C501B4010E94D92E712CC4E02AE0822E14
:101DB000912CA12CB12C87FF2FC080E490E0909350
:101DC000E4058093E3059093E6058093E505909301
:101DD000EA058093E9059093EC058093EB0582E09A
:101DE00090E09093E8058093E7050E94F509009341
:101DF0003503D0933403DF91CF911F910F91FF9062
:101E0000EF90DF90CF90BF90AF909F908F907F909A
:101E10006F905F904F900895C114D104E104F104D4
:101E200011F4171588F1112319F044244394171164
:101E3000412C5C2EC1506C2E84E0851558F0C701F2
:101E4000B601A50194010E943B2E605D442D852DB5
:101E50000E94A001C23069F4CEEFC50D84E0861562
:101E600040F0E62DF0E0EE0FFF1FED51FA4F11822A
:101E70001082C701B601A50194010E943B2E6901A1
:101E80007A017394C9CFC150C7FDA9CFC530DCF723
:101E9000EC2FF0E0EE0FFF1FED51FA4F1182108290
:101EA000F2CF0F93082F20915E0423548091600499
:101EB00098E9980F883618F468E10E949E30492FFF
:101EC0006091610480915B040E94370E0F91089528
:101ED0008F929F92AF92BF920F931F93CF93DF93F6
:101EE000CDB7DEB7A1970FB6F894DEBF0FBECDBF5A
:101EF00019A2423008F44AE08E010F5D1F4F842E74
:101F0000912CB12CA12CA50194010E943B2EE62F0F
:101F1000B901CA01EA3044F5E05DD801EE938D01C4
:101F2000232B242B252B79F790E080E0109769F084
:101F3000FD0101900020E9F73197AF014A1B5B0BCF
:101F4000BD0189E995E00E947C03A1960FB6F89443
:101F5000DEBF0FBECDBFDF91CF911F910F91BF901C
:101F6000AF909F908F900895E95CD7CFCF93DF9388
:101F7000EC016530D8F0C03187E2D80750F480E337
:101F80000E946F0DC83E83E0D80718F480E30E94DA
:101F90006F0DC436D10518F480E30E946F0DCA306E
:101FA000D10550F480E30E946F0D06C0643051F3F8
:101FB000633079F3623099F3BE0190E080E04AE04B
:101FC000DF91CF910C94680FCF93C82F87FD21C06C
:101FD00080E30E946F0DC034E0F480E30E946F0D37
:101FE000C032B8F480E30E946F0DC03190F480E3FA
:101FF0000E946F0DC83068F480E30E946F0DC430FA
:1020000040F480E30E946F0DC23018F480E30E9418
:102010006F0D6C2F70E090E080E042E0CF910C9467
:10202000680F89E995E00E94C70D60E080E00E949A
:10203000950D8AEB90E00E94780D61E080E00E94AF
:10204000950D81EB90E00E94780D609118017091E0
:10205000190190E080E04AE00C94680F0F931F9301
:10206000CF93DF930E94270580E20E94940186EFC0
:1020700095E00E94A8079091E003882341F19923FD
:1020800019F01092120490E09093E003DF91CF9149
:102090001F910F910895606289E995E00E94920D69
:1020A00084E293E20197F1F76091AD05606289E9FE
:1020B00095E00E94920D88E291E00197F1F760911E
:1020C000AD05606289E995E00E94920DACC0911166
:1020D00020C160E082EE95E00E94FE078091B3058A
:1020E0008F3F09F458C00E94270560E084EB95E01B
:1020F0000E94FE0741E068E084EB95E00E94CC0B73
:1021000041E066E084EB95E00E94CC0B41E067E0A3
:1021100084EB95E00E94CC0B67E089E995E00E9492
:10212000A80B60919E05662329F041E084EB95E0C1
:102130000E94120C41E060919D0584EB95E00E94A5
:10214000120C41E060919F0584EB95E00E94120C17
:1021500000EA15E0C9E9D5E0F80161918F0141E09D
:1021600084EB95E00E94120CF5E0043A1F07A1F7FA
:102170000EE915E040E06F8584EB95E00E94120CBB
:102180006F85603120F484EB95E00E94290A219646
:102190000C171D0779F78091AD0588608093AD0518
:1021A00082E08093B1051092B2058CE996E8019720
:1021B000F1F740E060919D0589E995E00E94980B58
:1021C00040E060919F0589E995E00E94980B60913D
:1021D0009E056F3F29F040E089E995E00E94980B49
:1021E0006091AD0564FD57CF63E089E995E00E94F9
:1021F0002F0CC4E2D3E2CE010197F1F763E089E945
:1022000095E00E942F0C2197F1F763E089E995E0B2
:102210000E942F0C88E291E00197F1F762E089E9D2
:1022200095E00E942F0C6091AD05606289E995E010
:102230000E94920D84E08093AE056CE089E995E000
:102240000E94920D89E995E00E94C70D82E080937B
:10225000AF0566E089E995E00E94920D40E065E0F7
:1022600082EE95E00E94CC0B65E082EE95E00E9444
:10227000290A44E050E06091E20585EB95E00E9478
:102280001A0B43E050E06091E20587EC95E00E9474
:102290001A0B42E050E06091E20580ED95E00E946B
:1022A0001A0B41E050E06091E2058EEB95E00E9450
:1022B0001A0B50E040E06091E20589ED95E00E9444
:1022C0001A0B80911A0190911B01059711F40E943D
:1022D00011101092360310923B03109213041092C7
:1022E0003A03109239038FEF9FEF90930901809387
:1022F0000801909307018093060190930B0180934E
:102300000A01909305018093040190930301809347
:10231000020191E0B9CECF92DF92EF92FF9283EA71
:1023200090E00E94780D8091D803811104C08091C3
:10233000D503882301F1809113048A50990B6C0115
:10234000092E000CEE08FF0897FF11C08DE20E94D5
:102350006F0D66277727CB016C197D098E099F09C0
:102360004AE0FF90EF90DF90CF900C94680F4AE026
:10237000C701B601F6CFFF90EF90DF90CF900895A0
:10238000FC0182818B37B9F58081877F873E99F583
:10239000828586FF31C080915504909156041816AD
:1023A00019064CF58EE0A8E5B4E001900D928A95EF
:1023B000E1F781E00E94510F80E090E0892BA9F0C5
:1023C0008091570482FF11C020915D0430E8239F63
:1023D000C001112420915C04280F392F311D8FEF8B
:1023E0009FE3821B930B0E94000082E090E0909399
:1023F000560480935504089583E090E0F8CF85ED6E
:102400008093BC008091330590913405A0913505EF
:10241000B09136050796A11DB11D23E0B695A7958D
:10242000979587952A95D1F72091BC0024FD03C08C
:102430001092310508954091330550913405609113
:10244000350570913605452B462B472B69F30097D0
:10245000A105B10541F025E12A95F1F700000197AA
:10246000A109B109E1CF809132050C943E052F926C
:102470003F924F925F926F927F928F929F92AF9214
:10248000BF92CF92DF92EF92FF920F931F93CF9361
:10249000DF9300D000D0CDB7DEB79C838B837C0167
:1024A00041E8E40EF11C6C0150E8C50ED11C8C0112
:1024B0000E571F4F8D579F4F2C018B819C818C573E
:1024C0009F4F4C0122242A94AB80BC8097E8A90E30
:1024D000B11CEB81FC81EB57FF4FFA83E983F701D5
:1024E0008081F6019081891709F4BAC0EB81FC81E3
:1024F000E80FF11D308037FE6DC0F801908189171B
:1025000039F0F501208131812F5F3F4F31832083E6
:10251000F8018083F2012082832D8076F4018036D9
:1025200009F441C0832D829586708E5F8083F80107
:102530002081F4018081820F9927991F81389105AC
:102540009CF180E8682E621AF894F6014081F80147
:102550008081841708F044C0F42FF81B8F2FF601F8
:1025600080837894F80160814617E8F5712C50E07B
:102570006B817C81CB01860D971D0E94D531F801BE
:1025800060814B815C81460F511DBA01A3018B8193
:102590009C810E94D531F7018081F8019081891BCF
:1025A000F7018083F8011082F70190819F5F90838B
:1025B000F8018081392F381B97FF02C0F701108284
:1025C000F2012081F40190819317A9F03226F201E3
:1025D000308285CFF40180818111E6CF3082A7CF90
:1025E000862D840FBCCF461B50E08B819C81860FCB
:1025F000911DBC01CCCF32122AC04B815C81480FA7
:10260000511DCA01E981FA81408151814F5F5F4FBD
:1026100051834083F7013081F80130830097B1F294
:102620000F900F900F900F90DF91CF911F910F910E
:10263000FF90EF90DF90CF90BF90AF909F908F90E2
:102640007F906F905F904F903F902F900895F5018D
:102650008081918101969183808390E080E0DACF40
:1026600090E080E0DDCF8F929F92AF92BF92CF92A9
:10267000DF92EF92FF920F931F93CF93DF93C0905F
:10268000E503D090E603F601D581D370D061882EA2
:10269000E89487F887FDDC5F962EE89497F867FD4D
:1026A000D85FA42EE894A7F811E147FF10E1B22EFD
:1026B000E894B7F827FD1E5FF02EE894F7F807FDC1
:1026C0001C5F0E2D0F77E7FC185FF601C281838136
:1026D000C82788E0C8278681C8278781C827C027E0
:1026E000CF25CB25CA25C925C825CD27C12765EE0D
:1026F00084EA92E00E94220860E184EA92E00E946B
:102700002208F601628184EA92E00E942208F60122
:10271000638184EA92E00E94220862E084EA92E007
:102720000E9422086D2F84EA92E00E942208F6019E
:10273000668184EA92E00E942208F601678184EAB9
:1027400092E00E942208682D84EA92E00E9422080A
:10275000692D84EA92E00E942208612F84EA92E0C7
:102760000E9422086A2D84EA92E00E9422086B2DC2
:1027700084EA92E00E9422086F2D84EA92E00E948F
:102780002208602F84EA92E00E9422086C2F6F7763
:1027900084EA92E00E9422086FEF84EA92E00E94AD
:1027A000220884EA92E00E9437129093E603809315
:1027B000E503009711F00E943D0881E0DF91CF9181
:1027C0001F910F91FF90EF90DF90CF90BF90AF904F
:1027D0009F908F9008950F931F93CF93DF93E82FCF
:1027E000F0E099E0899FD0011124AF59BE4F1596B2
:1027F0002D913C9126173707C0F08B01C82FEE0FA3
:10280000FF1FE45FFE4F71836083CF5FCC0FD0E08A
:10281000612FCE010E940E2E602FCE010196DF9116
:10282000CF911F910F910C940E2EDF91CF911F919C
:102830000F910895893110F40C94EB130895CF9300
:10284000DF936DE490E080E00E940E2E6AE581E067
:1028500090E00E940E2EC1E6D1E069817A818881E4
:102860000E941A14299682E0C234D807B1F7DF918A
:10287000CF910895EF92FF920F931F93CF93DF9321
:1028800065E082EE95E00E94680A20E2829FC00126
:1028900011248095909561E085FD60E089E995E0DF
:1028A0000E94A80B0E94970A90913B0381110CC0D3
:1028B000992309F467C010923B03DF91CF911F91D8
:1028C0000F91FF90EF900895891709F45BC09091E4
:1028D000130480933B0391110AC082FFEECFDF9176
:1028E000CF911F910F91FF90EF900C94270E913094
:1028F000C9F483FF05C00E94111010921304DDCFAC
:1029000082FF08C0DF91CF911F910F91FF90EF9050
:102910000C94170E81FF36C00E94DB0D8AE0809375
:102920001304CBCF9230B1F483FDD9CF82FF08C01E
:10293000DF91CF911F910F91FF90EF900C94070EB4
:1029400081FF20C0DF91CF911F910F91FF90EF90F9
:102950000C94F70D953089F48C71A1F089E995E01C
:102960000E94C70D60E080E00E94950D8091D50324
:10297000882309F470C18CE06FC1973009F027C13A
:1029800083FDD6CF80911304853009F08BC3C091AD
:102990002404D091250480910A0190910B01C8175D
:1029A000D90771F0D0930B01C0930A0161E080E078
:1029B0000E94950D8D2F0E94E40F8C2F0E94E40F32
:1029C000809113048730C9F461E080E00E94950D86
:1029D00080913303882309F46CC3C0913403809140
:1029E000350362E090E00E94B60F8AE30E946F0D0B
:1029F00062E08C2F90E00E94B60F809113048A3021
:102A000009F079C361E080E00E94950D0E94C30A3D
:102A1000C0911604DC2FC82F0E943509E0902204D3
:102A2000F82E1091F1038091080190910901C817C7
:102A3000D90761F48091060190910701E816F90623
:102A400029F480913603181709F453C0D093090173
:102A5000C09308010E94DB0D8FEF9FEF9093070159
:102A60008093060161E080E00E94950D0E94C30AF8
:102A70000E94E40F61E08CE00E94950DC091160465
:102A800080911504882309F421C3C0FD17C3C1FD3B
:102A900017C3C2FD17C3C3FD17C386E60E946F0D9F
:102AA00063E08C2F90E00E94B60F61E089E00E9405
:102AB000950DF0920701E09206016091220470E00A
:102AC00090E080E04AE00E94680F0E943509682F7C
:102AD00070E090E080E04AE00E94680F60E08EE0E5
:102AE0000E94950D63E0812F90E00E94B60F109335
:102AF0003603809113048B3009F00FC380910401D9
:102B000090910501892B99F0109205011092040112
:102B100061E080E00E94950D8091D803882309F43C
:102B2000F7C280E00E94E40F80E00E94E40F8091F1
:102B300013048C3009F0FDC28091020190910301D1
:102B4000892B99F0109203011092020161E080E05C
:102B50000E94950D8091D503882309F4E5C280E099
:102B60000E94E40F80E00E94E40F80911304823100
:102B700009F0E6C261E080E00E94950D0E94C30A60
:102B8000C0913903D0913A0320E03C2F282B80914B
:102B90000001909101012817390709F48ECE309376
:102BA0000101209300010E94CF0D61E080E00E94AE
:102BB000950D8EE30E946F0D63E0CE010E94B60F6B
:102BC0000E94C30A83FF79CE8EED91E02EC098302B
:102BD000A1F583FD97CE81FF15C080910E019091E4
:102BE0000F0190933A03809339030E94CF0D82E145
:102BF00080931304DF91CF911F910F91FF90EF907D
:102C00000C94230982FFBECE80912C0182FF55CE09
:102C100087E08093130489E995E00E94C70D60E086
:102C200080E00E94950D8CE092E0DF91CF911F91A2
:102C30000F91FF90EF900C94780D9A30B9F484FDC9
:102C40004ECE81FF9FCE89E995E00E94C70D60E0DE
:102C500080E00E94950D8BE080931304DF91CF916B
:102C60001F910F91FF90EF900C948B119B30B1F45A
:102C700084FD52CE81FF86CE89E995E00E94C70D82
:102C800060E080E00E94950D8091D503811173CEA4
:102C90008FEE91E00E94780D85E041CE9C3069F482
:102CA00084FDD1CF81FF6ECE89E995E00E94C70DEA
:102CB00060E080E00E94950DEBCF923199F584FFA2
:102CC00003C00E94230934CE83FF10C00E94230951
:102CD0008091390390913A03019729F090933A0338
:102CE00080933903EACD8FEF90E0F8CF82FF0BC0DD
:102CF0000E9423098091390390913A03019671F75C
:102D000081E090E0EBCF81FF0AC080913903DF9131
:102D1000CF911F910F91FF90EF900C943A1D80FF7F
:102D200031CE68CF943108F49CC1209198052917C1
:102D300008F47AC11CEE190F80FF4EC0F0903803E2
:102D4000FF2009F4BACD6091390370913A03C12F85
:102D5000D0E01630E1F4672BA1F40E941F14CC0FD1
:102D6000DD1FC45FDE4F888199810E94B91D61E03B
:102D70008AE00E94950DFF2009F4F1C185E092E000
:102D8000F0C164E170E086E00E94EB13E8CF89E0D7
:102D90008C9FF0018D9FF00D1124EF59FE4F838120
:102DA00094816817790708F4E9C1858196818617AF
:102DB000970708F4E3C180858111E0C1812F0E944B
:102DC0001A14193160F28FEF9FEF0E94B91D61E074
:102DD0008AE00E94950DD2CF84FF12C08091380303
:102DE000882349F010923803E12F193108F4B5C057
:102DF0008FEF9FEF07C10E94F70D109212045DCD77
:102E000081FF5CC08091380381111FC01931E8F443
:102E1000E12FF0E039E0139FD0011124AF59BE4FEC
:102E200018968C91811111C0EE0FFF1FE45FFE4FC9
:102E30008081918190933A038093390321E020931C
:102E40003803109237030E94B91D809138038823FC
:102E500009F433CDC0913703CF5FC09337031931E5
:102E600048F449E0149FF0011124EF59FE4F878187
:102E7000823061F0812F0E94981D90E00196C81762
:102E8000190631F481E08093370302C0C930D1F3D1
:102E900061E0809137030E94950D6091AE05862F09
:102EA00082608093AE056A6089E995E0DF91CF91F9
:102EB0001F910F91FF90EF900C94920D83FF55C0DE
:102EC000809138038823E1F1C0913903D0913A030E
:102ED0008FEF9FEF193138F5E12EF12C59E0159F56
:102EE000F0011124EF59FE4F0781023008F04AC16A
:102EF000812F0E94661D8C0F9D1F90933A03809333
:102F000039038C179D0708F03DC1D0933A03C09355
:102F1000390389E08E9DF0018F9DF00D1124EF594A
:102F2000FE4F858196812091390330913A038217B3
:102F3000930708F063C0D0933A03C09339035EC08F
:102F40009F5F90931304921710F020931304E09165
:102F50001304E451E93108F04BCFF0E0EE0FFF1F0E
:102F6000E45FFE4F808191814DC082FF45C1809119
:102F70003803882309F44EC0C0913903D0913A0335
:102F800090E080E0193140F5E12EF12C59E0159FD9
:102F9000F0011124EF59FE4F0781023008F00FC1F4
:102FA000812F0E94661D9E01281B390B30933A0326
:102FB00020933903C217D30708F001C1D0933A0315
:102FC000C093390389E08E9DF0018F9DF00D11248F
:102FD000EF59FE4F838194812091390330913A0358
:102FE0002817390720F4D0933A03C093390380910E
:102FF000390390913A03019609F49DCF80913903EA
:1030000090913A03DF91CF911F910F91FF90EF9034
:103010000C94B91D915090931304933109F097CFFC
:1030200084E18093130493CF983CD9F482FF08C0C5
:10303000DF91CF911F910F91FF90EF900C94E70DCE
:1030400084FD60CC81FF9ECC84E180931304809149
:103050000C0190910D010E94B91D81E08093120432
:103060002CCC923D09F0CEC083FD6CCC84FD4ACCC3
:1030700081FF88CC83ED8093130460E088E00E9498
:10308000950D80E20E946F0D8FEF9FEF90933A03B2
:1030900080933903DF91CF911F910F91FF90EF90B3
:1030A0000C94E51E8FEF9FEF90930B0180930A0124
:1030B00087CC88EF91E00E94780D9FCCC1E0EDCCE9
:1030C000C2E0EBCCC3E0E9CCC4E0E7CC20911C012A
:1030D00030911D01C9018270992720FF05C0892BFD
:1030E00029F4CF5F83E7DACC892B19F0CC0F8CE67B
:1030F000D5CC8EE2D3CC8FEF9FEF909309018093D4
:103100000801909307018093060180933603F1CC68
:103110008AEE91E00E94780D0ACD8FEF9FEF909399
:1031200005018093040103CD8AEE91E00E94780DA1
:103130001CCD8FEF9FEF909303018093020115CD7B
:103140008FEF9FEF9093010180930001B6CB8FEF3B
:103150009FEF0E94B91D61E08AE00E94950D8EEFFD
:1031600091E00E94780D61E080913703DF91CF916B
:103170001F910F91FF90EF900C94950D193138F736
:10318000F12CEDCD023009F0C4CE8091370328E058
:1031900030E0281B310981E090E0AC0102C0440F0F
:1031A000551F2A95E2F79A018091390390913A03CD
:1031B000842B932B90933A0380933903AACE023049
:1031C00009F000CF8091370328E030E0281B310957
:1031D00081E090E002C0880F991F2A95E2F7809560
:1031E00090952091390330913A0382239323909351
:1031F0003A0380933903E6CE983C09F421CF923DFF
:1032000009F434CF933D09F0BDCB84FD11CF82FF8B
:10321000B9CB40CF1F920F920FB60F9211242F936C
:103220003F938F939F93AF93BF9380912704909187
:103230002804A0912904B0912A043091260426E0A4
:10324000230F2D3758F50296A11DB11D209326049A
:103250008093270490932804A0932904B0932A0410
:1032600080912B0490912C04A0912D04B0912E04F8
:103270000196A11DB11D80932B0490932C04A09363
:103280002D04B0932E04BF91AF919F918F913F91E8
:103290002F910F900FBE0F901F90189529E8230FC4
:1032A0000396A11DB11DD2CF1F920F920FB60F92A0
:1032B00011242F933F934F935F936F937F938F933B
:1032C0009F93AF93BF93EF93FF93E091D103F0915E
:1032D000D203309749F0A685B7858585968D91FFF5
:1032E00014C09C918923A1F4FF91EF91BF91AF91FC
:1032F0009F918F917F916F915F914F913F912F910E
:103300000F900FBE0F901F9018959C91892361F725
:10331000A389B4899C918589809589238C9386891A
:1033200097890197F1F7608D718DA685B7855585D1
:1033300038E020E0CB010197F1F7822F90E09595DE
:103340008795282F4C91452309F02068315091F73B
:10335000868D81FD20958091D00390E001968F733A
:1033600099273091CF03381799F0A091D003B0E09E
:10337000A457BC4F2C938093D003828D938D0197DB
:10338000F1F7A389B4898C919589892B8C93ACCF63
:10339000868D8160868FF1CF1F920F920FB60F92AC
:1033A00011242F933F934F935F938F939F93AF93EA
:1033B000BF93EF93FF9380918B03882309F448C058
:1033C00088B18F6088B985B1817C85B9E0918A0325
:1033D000F0E0EA57FC4F808125B190E09595879504
:1033E000959587958E739927822B85B98BB1877CAC
:1033F0008BB9E0918A03F0E0EA57FC4F80812BB152
:1034000038E0839FC001112488739927822B8BB9E0
:1034100040918A038091850328B1480F5527551F95
:1034200081E090E002C0880F991F4A95E2F78095ED
:103430009095822388B980918A038F5F80938A0355
:1034400090918A0380918B03981710F010928A0351
:103450008091810390918203A0918303B0918403B2
:103460000196A11DB11D8093810390938203A093C7
:103470008303B0938403FF91EF91BF91AF919F912C
:103480008F915F914F913F912F910F900FBE0F90B1
:103490001F9018951F920F920FB60F9211242F9321
:1034A0003F934F935F936F937F938F939F93AF93CC
:1034B000BF93EF93FF938091B900887F803609F422
:1034C0004AC0F0F5883209F4A7C018F5803109F434
:1034D0009BC0B8F4882309F4F9C0883009F494C07B
:1034E000FF91EF91BF91AF919F918F917F916F91DC
:1034F0005F914F913F912F910F900FBE0F901F90B2
:103500001895883109F488C0803251F780932F05CF
:1035100014C0803409F49DC040F48033B9F388337B
:10352000F9F680932F0585ECB0C0803509F485C08D
:10353000883509F496C0883499F60E94FF11D0CFDF
:10354000883909F48CC038F5883729F050F488366A
:1035500011F0803729F683E08093310510928003C3
:1035600057C0883809F47BC0803919F0803809F0D9
:10357000B7CF80918003803208F071C0E091800362
:1035800081E08E0F809380038091BB00F0E0E05AD1
:10359000FC4F80833DC0803B39F0E0F4803A09F471
:1035A00079C0883A09F09CCF84E08093310510926D
:1035B0005F0310925E03E0910705F09108050995FD
:1035C00080915E0381110FC081E080935E031092B1
:1035D0003E0309C0803C09F4A6CF883C09F4A3CF80
:1035E000883B09F07DCFE0915F0381E08E0F8093EF
:1035F0005F03F0E0E25CFC4F80818093BB00909120
:103600005F0380915E0329C080910C058093BB000D
:1036100085EC8093BC0064CF90912E0580912D05A0
:10362000981758F5E0912E0581E08E0F80932E05B6
:10363000F0E0E35FFA4F8081E9CFE0912E0581E071
:103640008E0F80932E058091BB00F0E0E35FFA4F70
:10365000808390912E0580912D059817C8F285E8FA
:10366000D8CFE0912E0581E08E0F80932E058091BA
:10367000BB00F0E0E35FFA4F808380913005811159
:103680005CCF81E080930B0584EA8093BC001092AC
:10369000310526CF85EC8093BC00109231058091D6
:1036A0008003803230F4E0918003F0E0E05AFC4F78
:1036B00010826091800370E0E0910505F0910605AD
:1036C00080E693E00995109280030ACF10922F05AF
:1036D00034CF1F920F920FB60F921124DF92EF9208
:1036E000FF920F931F932F933F934F935F936F938B
:1036F0007F938F939F93AF93BF93CF93DF93EF937A
:10370000FF93B19A80916D0490916E0480529E4F08
:1037100090936E0480936D0480916D0490916E047B
:10372000909389008093880080913C03882371F0F6
:1037300010923C03189B26C081E080937304B59AD5
:1037400080916F00806280936F001CC08091720432
:103750008F5F8093720480917304843009F043C0BA
:1037600080917204893030F58091690490E09595DC
:10377000879580936904189B05C0809169048068CF
:1037800080936904FF91EF91DF91CF91BF91AF9149
:103790009F918F917F916F915F914F913F912F9169
:1037A0001F910F91FF90EF90DF900F900FBE0F9041
:1037B0001F901895B59A80916F00806280936F007A
:1037C0008091670490916804189929C0FC01E95719
:1037D000FF4F8081918101969183808310927204C2
:1037E00081E080937304809173048330E9F5E09164
:1037F0007004F0917104808120916F0433B190E0E6
:10380000022E02C0959587950A94E2F7832780FDE2
:1038100011C01092720482E08093730425C06091FD
:1038200069040E94220880E090E0892BB9F20E948E
:103830000000D4CF80917204893008F043C03091E9
:10384000690481E090E001C0880F2A95EAF7908131
:1038500030FF36C08095892380838091690490E091
:10386000959587958093690480917304823099F4CB
:103870008091720481118EC0E0917004F091710406
:10388000808190916F0421E030E001C0220F9A9571
:10389000EAF7822B808380917304813009F072CF24
:1038A00080917204882309F44ACF8091720488338E
:1038B00008F468CF1092730480916F008D7F43CF1E
:1038C000892BCACF80917204893059F4308181E00C
:1038D00090E001C0880F2A95EAF7809583238083C2
:1038E000C3CF809174048F5F8093740490917504AA
:1038F000891750F51092720480916B0490916C04BA
:10390000A0917404A80FB92FB11D8C918093690404
:10391000808141E050E001C0440F2A95EAF7842BF2
:10392000808380918400909185008A589E4F909367
:103930006E0480936D0480916D0490916E04909359
:1039400089008093880090CF81E080936A04009181
:103950006B0410916C04E0906704F0906804C80157
:103960000E943108D82ED0E0C0E0CD1548F4F8010F
:10397000EC0FFD1F6081C7010E9422082196F5CF40
:1039800080E090E0892B11F00E94000010927204F8
:1039900081E042CF809172048F3008F47CCFE091B7
:1039A0007004F0917104208130916F0481E090E007
:1039B00001C0880F3A95EAF78095822380831092A0
:1039C000720481E080937304E0916704F0916804CD
:1039D000E357FF4F808191810196918380835BCF74
:1039E0001F920F920FB60F9211248F939F93EF9314
:1039F000FF93B59AEFE6F0E080818F7D8083809120
:103A000086009091870080519F4F90936E04809321
:103A10006D0480916D0490916E0490938900809361
:103A20008800B19A80818260808384E080937304EF
:103A30001092720481E080933C03FF91EF919F917B
:103A40008F910F900FBE0F901F901895CF93C82F96
:103A500061E070E080E090E00E94AA026C2F70E0CC
:103A600086E00E94E80262E370E080E090E0CF919F
:103A70000C94AA02CF93C82F80911504811117C00E
:103A800080911C0181FF13C080911604880F0E9451
:103A9000261DC093F1036C2F70E082E10E94E802C2
:103AA00062E370E080E090E0CF910C94AA020E9463
:103AB000B8019C01AEE1B0E00E945D2E2FEF33E033
:103AC00040E050E00E941C2E822FE1CF893128F582
:103AD00029E0829FF0011124EF59FE4F85819681E4
:103AE000803127E29207C8F4883E23E09207B8F4B9
:103AF00084369105B0F40A97B0F481E090913703D1
:103B0000891B990B8530910580F4880F991FFC0162
:103B1000E95AFE4F80819181089585E0EFCF84E0DE
:103B2000EDCF83E0EBCF82E0E9CF90E080E0089535
:103B30008931B8F429E0829FF0011124EF59FE4F3A
:103B400085819681803127E2920758F4883E23E0F0
:103B5000920748F48436910540F40A9740F481E0D6
:103B6000089585E0089584E0089583E0089582E053
:103B70000895EF92FF920F931F93CF93DF93CDB7EA
:103B8000DEB7E2970FB6F894DEBF0FBECDBF082FA9
:103B9000F92E6091AE056D7F6093AE05686089E98E
:103BA00095E00E94920D89E995E00E94C70D60E0C2
:103BB00080E00E94950D8BED91E00E94780D60E011
:103BC00083E00E94950DE09013041DEE1E0D1A3047
:103BD00018F480E20E946F0D612F70E090E080E0A9
:103BE0004AE00E94680F1CEE1E0D60E086E00E9415
:103BF000950D8FEC91E09A83898387EC91E09C830B
:103C00008B838DEB91E09E838D8383EB91E098878E
:103C10008F838BEA91E09A87898783EA91E09C877A
:103C20008B878BE991E09E878D8781E991E0988B66
:103C30008F878AE891E09A8B898B80E891E09C8B52
:103C40008B8B87E791E09E8B8D8B8EE691E0988F32
:103C50008F8B85E691E09A8F898F8BE591E09C8F21
:103C60008B8F81E591E09E8F8D8F86E491E098A304
:103C70008F8F8EE391E09AA389A383E391E09CA3C5
:103C80008BA388E291E09EA38DA38FE191E098A79A
:103C90008FA384E191E09AA789A78AE091E09CA78D
:103CA0008BA780E091E09EA78DA785EF90E098AB71
:103CB0008FA78AEE90E09AAB89AB86EE90E019313F
:103CC00040F4E12FF0E0EE0FFF1FEC0FFD1F8181AC
:103CD00092810E94780D61E080E00E94950D8091B4
:103CE0003803882319F08EE30E946F0D193180F597
:103CF00089E0189FF0011124EF59FE4F878182302F
:103D000039F5802F0E94E40F8091380381114EC055
:103D1000193150F489E0189FF0011124EF59FE4F3A
:103D20008085882309F444C061E08EE00E94950DEF
:103D300088ED91E0E2960FB6F894DEBF0FBECDBFDE
:103D4000DF91CF911F910F91FF90EF900C94780D20
:103D5000812F0E94981D682F802F9F2D0E94B60FE3
:103D6000D3CF89E0189FF0011124EF59FE4F8085D1
:103D700081111EC061E0809137030E94950D609112
:103D8000AE05862F82608093AE056A6089E995E072
:103D9000E2960FB6F894DEBF0FBECDBFDF91CF9194
:103DA0001F910F91FF90EF900C94920D1931C8F272
:103DB000E2960FB6F894DEBF0FBECDBFDF91CF9174
:103DC0001F910F91FF90EF9008951F93CF93DF9372
:103DD000C0913903D0913A032196D0933A03C0930E
:103DE000390361E080E00E94950DC038D10538F0BC
:103DF00089E990E0DF91CF911F910C94780DC091EB
:103E00003903D0913A038C2F0E94940186EF95E0FC
:103E10000E94A807182F882311F08430D1F480EA7B
:103E200090E00E94780DDD27C031D10518F480E3C1
:103E30000E946F0DBE0190E080E040E10E94680F9B
:103E400080E2143009F48FE3DF91CF911F910C943D
:103E50006F0D2196D0933A03C0933903C6CFCF920A
:103E6000DF92EF92FF921092F9051092F80528EE7A
:103E7000C22E23E0D22EE12CF12CC092FA05D09272
:103E8000FB05E092FC05F092FD0588E792E0909337
:103E9000F7058093F60586E080930A0680E8809314
:103EA0000B0688E080930C0610920D0610920E0609
:103EB00010920F061092100661E086E00E944902FF
:103EC0000E94DC0260930D0670930E0680930F062D
:103ED000909310068DE38093020686EF95E0909311
:103EE000090680930806109203068FEF809304065C
:103EF0008093050610920706109206061092F405AC
:103F00001092F3051092F50510929C0510929B05F6
:103F10001092B3051092AD058FE080939D058EE061
:103F200080939E058DE080939F058CE08093A00593
:103F30008BE08093A1058AE08093A20589E08093BD
:103F4000A3051092A80561E06093A90582E0809323
:103F5000AA0583E08093AB0584E08093AC058CE9EF
:103F600092E090939A05809399051092B50510926E
:103F7000B6051092B7051092B8052AE030E03093EC
:103F8000BA052093B9051092BB051092BC0510929A
:103F9000BE051092BF051092C0051092C105309366
:103FA000C3052093C2051092C4051092C505109256
:103FB000C7051092C8051092C9051092CA05309322
:103FC000CC052093CB051092CD051092CE05109212
:103FD000D0051092D1051092D2051092D3053093DE
:103FE000D5052093D4051092D6051092D7051092CE
:103FF000D9051092DA051092DB051092DC0530939A
:10400000DE052093DD051092DF051092E0058CE2BD
:104010008093980510927C0510927B05C0927D05D7
:10402000D0927E05E0927F05F09280058AE892E0CA
:1040300090937A05809379051092900510928F05E0
:10404000109292051092910510929405109293058A
:104050001092960510929505809197058E7F8D7F21
:10406000809397058695817068278BE00E941B02DC
:1040700061E08BE00E944902E7ECF2E0E491E0931A
:104080008905E3EBF2E0E491F0E0EE0FFF1FE2566A
:10409000FD4F8591949190938B0580938A0560E004
:1040A0008AE00E9449028091970581FD04C061E089
:1040B0008AE00E941B028AE080938505E6ECF2E02C
:1040C000E491E0938605E2EBF2E0E491F0E0EE0F9C
:1040D000FF1FEC56FD4F8591949190938805809336
:1040E000870594E1C92ED12CE12CF12CC0926E05EC
:1040F000D0926F05E0927005F092710510927205F2
:104100001092730510927405109275050E94DC02DE
:1041100060936A0570936B0580936C0590936D05B1
:1041200084E00E94F2018093760584E08093770515
:10413000C0925F05D0926005E0926105F092620541
:104140001092630510926405109265051092660541
:104150000E94DC0260935B0570935C0580935D05B3
:1041600090935E0585E00E94F2018093670585E0EB
:1041700080936805FF90EF90DF90CF900895CF93E4
:10418000DF93CDB7DEB761970FB6F894DEBF0FBEF1
:10419000CDBF789484B5826084BD84B5816084BDD0
:1041A00085B5826085BD85B5816085BD80916E00D5
:1041B000816080936E001092810080918100826006
:1041C0008093810080918100816080938100809143
:1041D00080008160809380008091B1008460809332
:1041E000B1008091B00081608093B00080917A002E
:1041F000846080937A0080917A00826080937A0054
:1042000080917A008E7F80937A0080917A00806816
:1042100080937A001092C1006CE0E62E61E0F62EE9
:1042200072E0C72ED12CC6010E94062E182FC6019F
:1042300001960E94062E212F30E0322F2227820F76
:10424000932F911DD7018D939D937D01B2E0CB0EED
:10425000D11CE4E3CE16D10431F78091180190917E
:104260001901449728F464E170E086E00E94EB13A2
:1042700080911A0190911B01059711F00E941F1463
:1042800080912C0180FF63C0E6E7F4E08FE8DF0156
:104290001D928A95E9F761E087E00E944902E3EC0C
:1042A000F2E02491EFEAF2E0E491F0E0EE0FFF1F7C
:1042B000E256FD4F4591549180E091E031E029179D
:1042C00041F08F5F932F082E01C0990F0A94EAF7EF
:1042D000F6CF509371044093700480936F0486E787
:1042E00094E090936804809367042098E0917004B0
:1042F000F0917104208130916F0481E090E001C061
:10430000880F3A95EAF78095822380831092800087
:1043100091E09093810010927304B59A80916F00A0
:10432000806280936F0080918100887F816080939C
:1043300081009093E70380912C0182FF08C01092C6
:10434000560410925504109257040E9407091092C7
:10435000CE031092CD031092EB031092EC03109257
:10436000ED031092EE0380912C0190912D01857048
:104370009927059709F08CC00E9427058DE30E94BC
:10438000940186EF95E00E94A807811103C081E0A7
:104390008093EA0380E70E94940186EF95E00E94F3
:1043A000A807811175C081E08093CC038091F3054B
:1043B0009091F405009711F00E944C3186E090E056
:1043C0000E94B0308C0180E7F801808386EF95E091
:1043D00092838183138280E290E09583848310939B
:1043E000F4050093F3050E94270581E0D801139698
:1043F0008C93C8010E94C707882309F449C081E251
:10440000898B41E050E0BE016F5E7F4F8091F305E4
:104410009091F4050E94C1091092E4051092E30501
:104420001092E6051092E5051092E8051092E70556
:104430001092EA051092E9051092EC051092EB0536
:104440001092EE051092ED051092F0051092EF0516
:104450001092F2051092F1050E94F50981E8898316
:1044600041E050E0BE016F5F7F4F8091F305909176
:10447000F4050E94C1098FEE898341E050E0BE013E
:104480006F5F7F4F8091F3059091F4050E94C10901
:104490000E942E10E090140180911501F0901601F9
:1044A000D0901C01D7FE07C090912C0190FD03C055
:1044B000BF2DBC7EFB2E0E2D182FF0FC07C0B801BF
:1044C000660F771F627084E00E944902F1FC05C00C
:1044D0006E2D627085E00E944902F4FC0EC080914E
:1044E0002C0180FD0AC0B80123E0759567952A95D7
:1044F000E1F7627088E00E94490295E01595079502
:104500009A95E1F7602F62708CE00E94490262E0A8
:1045100083E00E94490262E08FE00E94490262E06B
:1045200080E10E94490262E081E10E944902F5FCBB
:1045300004C061E089E00E94490261E08DE00E94D0
:10454000490220913401309135014AE0429FC00177
:10455000439F900D1124B0E0A0E080936E059093EE
:104560006F05A0937005B0937105109272051092BB
:104570007305109274051092750580935F059093F2
:104580006005A0936105B0936205109263051092D7
:10459000640510926505109266051092D803D2FE4C
:1045A00042C00E94270584E20E94940186EF95E0B4
:1045B0000E94A807182F811136C064E087ED93E0B0
:1045C0000E94FE0740E0612F87ED93E00E94120CED
:1045D000612F87ED93E00E94290A1F5F103191F748
:1045E00081E08093D80385E20E94940186EF95E0F4
:1045F0000E94A807182F811116C065E086ED93E090
:104600000E94FE0740E0612F86ED93E00E94120CAD
:10461000612F86ED93E00E94290A1F5F103191F708
:1046200081E08093D5031092940510929305109227
:104630009205109291051092900510928F058DECC5
:1046400090E090939605809395059091850596311D
:1046500008F047C025E530E03093900520938F05A2
:104660002BEC30E0309392052093910520E930E067
:1046700030939405209393052091680084E098304E
:1046800048F031E09E3008F430E081E001C0880F4E
:104690003A95EAF7822B809368002DE630E0983057
:1046A00050F02BE630E09E3030F02CE630E09631D2
:1046B00010F030E020E030938D0520938C05292FF9
:1046C00030E0983008F0BDC081E001C0880F9A95B5
:1046D000EAF780938E058091950590919605019754
:1046E000F1F78091930590919405892B49F1E09120
:1046F000D103F091D20325E0E937F20709F13097B1
:1047000039F0A389B4899C918589809589238C93FC
:10471000809197058E7F809397051092D003109219
:10472000CF0389E795E09093D2038093D103E09182
:104730008C05F0918D05808190918E05892B808369
:1047400089E795E09093D4038093D30385E693E0C3
:104750009093300480932F0461E070E080E090E05B
:104760000E94AA020E94230980E0A82E80E0B82EB1
:104770005524539411E00E94DC02C090DC03D090D9
:10478000DD03E090DE03F090DF036C197D098E09F4
:104790009F096E3771058105910520F10E94DC02A9
:1047A0006093DC037093DD038093DE039093DF035B
:1047B0008091DB0385258093DB03882399F080912A
:1047C0002304852580932304882361F08091DA03F4
:1047D00085258093DA03882329F08091D9038525E4
:1047E0008093D9038091240490912504892B09F0AA
:1047F0000AC10E94DC02C0900D06D0900E06E09027
:104800000F06F09010066C197D098E099F0965311D
:1048100071058105910508F462C00E94DC02609375
:104820000D0670930E0680930F069093100600916C
:104830000B0680910C06013C88F0819580930C0654
:104840000FC09E3040F42850310981E001C0880F2C
:104850002A95EAF73ECF2E503109F7CF003268F3A0
:1048600080910C06080F00930B06F0900A0661E099
:104870008F2D0E944902011105C060E08F2D0E941A
:104880001B022DC00F3F11F461E0F8CFEF2DF0E0D7
:10489000E05EFD4FE491E33009F499C040F4E1306B
:1048A000D1F0E23009F48EC007FDEECFE6CFE7305D
:1048B00009F499C0E83009F49EC0E430A9F780916A
:1048C0008000806280938000802F90E090938B0026
:1048D00080938A0004C084B5806884BD07BD0E94AF
:1048E0002E108091E003813011F40E943A148091DF
:1048F000E70381118CC01092F0031092EF038091B6
:104900002C0182FF15C00E94DC02C090EB03D09006
:10491000EC03E090ED03F090EE036C197D098E0935
:104920009F09613C744D8140910510F00E94070978
:104930008091EA03882309F445C461E0809102066E
:104940000E944F0610920A0580930905813009F4F0
:104950002BC482E890E0909307068093060680912E
:10496000030682FD2FC48091E903882309F42DC436
:1049700080901401909015010091160130901C0157
:10498000E0902C01F0902D01B1E0EB22FF2437FEE6
:1049900033C4E114F10409F02FC40C7E4424439481
:1049A00088E00E94F2016401DD243401E0E16E221E
:1049B00077249924939484FC21C4892B09F421C47D
:1049C000912C1FC484B5806284BD08BD88CF8091BE
:1049D0008000806880938000802F90E09093890011
:1049E000809388007CCF8091B00080688093B00075
:1049F0000093B30074CF8091B00080628093B000C8
:104A00000093B4006CCF6091230486E038CF86E732
:104A100094E00E943712FC019093E6038093E50333
:104A2000892B09F417C37181272F30E06281462F4B
:104A300050E0CA019695982F88279795879580789A
:104A40009770872B932BA081A23B29F10196A13B64
:104A500009F45DC070F4A33809F44CC0A03B09F41C
:104A600051C0A23849F580E090E0892B29F180E01F
:104A700046C0AC3B09F45FC0A03D09F466C0A43B4E
:104A8000D9F47C33C9F480E090E0892BA9F08CE361
:104A90000E94000011C022E030E065FD02C021E06C
:104AA00030E040E050E0452B39F0880F991F6071ED
:104AB000820F931F0E94000080912C0182FFB4C0DE
:104AC000E091E503F091E6038081877F873E09F05E
:104AD000A8C081818E3009F0A4C082818B3709F093
:104AE000A0C0828586FD9DC080648287CF010E9420
:104AF000C01105CF80E090E0892BF1F281E00E94A7
:104B00000000DACF407260710E945E09D5CF66FF67
:104B100009C0A0E0B0E0AB2B79F2407260710E9456
:104B20000000CACFE0E0F0E0EF2B31F2407160729C
:104B30000E940000C1CF20E030E0232B09F4BCCF5D
:104B4000407260710E940000B7CF7076703221F021
:104B50007036C1F17111B0CF80E090E0892B09F47B
:104B6000ABCFC9019695982F882797958795807820
:104B70009F70840F951FA5E035952795AA95E1F7BD
:104B80002170019633814481E42FF0E0AF013D377D
:104B900031F0A0E83A9FA00111244E0F5F1F6F7003
:104BA00081F1623081F1643081F1663081F16830E9
:104BB00081F16A3081F16C3081F16E3081F10E94B7
:104BC00000007ACF80E090E0892B09F475CFF38064
:104BD0008F2D807D803109F06FCFD480EE24E39457
:104BE00001E041E08F2D8E2109F040E02D2D2E2196
:104BF000EE0C602F80E80E9400000F5F053089F7FF
:104C00005BCF61E4DCCF62E4DACF63E4D8CF64E465
:104C1000D6CF65E4D4CF66E4D2CF67E4D0CF68E4E2
:104C2000CECFCF010E94C011E090E503F090E603E3
:104C3000C7010E943108803109F00CC2F701808160
:104C4000853E09F007C28481823009F003C22681C3
:104C500080910C0190910D012817190609F0E1C10E
:104C6000278180911A0190911B012817190609F0DC
:104C7000D8C1858190E09C01A4E0220F331FAA9542
:104C8000E1F720788184E89487F8282930E0322FF2
:104C9000222705E0880F991F0A95E1F78078808424
:104CA000E89487F8882A820E932E911C6401F1E023
:104CB000CF1AD1087C2C28E12C1550F039E0C39E86
:104CC000F0011124EF59FE4F31E08781813009F066
:104CD00030E0D70113968C918130F1F5B9E1CB1614
:104CE000D104D0F5F701828590E063856F77AC0140
:104CF0005695542F442757954795262F240F332335
:104D000009F433C246E0880F991F4A95E1F780788D
:104D100064856F77862B682F70E0762F6627620F89
:104D2000711D8C2D0E941A14E091E503F091E603A9
:104D3000838180648383F8E14FEFF71530F0F6014B
:104D4000EE0FFF1FE45FFE4F4081E12C00E020E00A
:104D500060E0882D0E943313E091E503F091E603B3
:104D600083818230B9F429E1C216D10498F482E437
:104D7000838338E14FEF371530F0F601EE0FFF1F58
:104D8000E45FFE4F4081E12C00E020E060E0882DF0
:104D90000E943313E091E503F091E60383818330B1
:104DA00009F04BC049E1C416D10408F046C0628541
:104DB00070E0CB019695982F88279795879599272E
:104DC00023852F77280F392F311D06E0660F771FB7
:104DD0000A95E1F76078772784858F77682B58E10B
:104DE0008FEF9FEF571538F0F601EE0FFF1FE45FCE
:104DF000FE4F8081918126233723232B09F4B7C1ED
:104E0000682B792B8C2D0E941A14E091E503F09108
:104E1000E60383818064838378E14FEF771530F078
:104E2000F601EE0FFF1FE45FFE4F4081E12C00E032
:104E300020E060E0882D0E943313E091E503F091BB
:104E4000E6038381853009F084C089E1C816D10466
:104E500008F07FC0828590E0BC01A6E0660F771F56
:104E6000AA95E1F7A62FA078FA2E64856F77F62A27
:104E7000BC01B5E0660F771FBA95E1F7062F007801
:104E800065856F77062BBC0124E0660F771F2A9596
:104E9000E1F7B62FB0786B2E66856F77662A63854B
:104EA0006F779695982F882797958795680F70E06C
:104EB0008C2D0E941A14EE24E394EC0C6F2D70E0FC
:104EC0008E2D0E941A1442E0F42EFC0C602F70E02C
:104ED0008F2D0E941A1403E00C0D662D70E0802FB8
:104EE0000E941A14E091E503F091E6038381806447
:104EF0008383E8E14FEFE71530F0F601EE0FFF1F77
:104F0000E45FFE4F4081F8E12FEFFE1538F0EE2D03
:104F1000F0E0EE0FFF1FE45FFE4F208138E18FEFDE
:104F20003F1538F0EF2DF0E0EE0FFF1FE45FFE4F6E
:104F30008081EE24EA94093138F4E02FF0E0EE0F9E
:104F4000FF1FE45FFE4FE080082F60E0882D0E9485
:104F50003313E091E503F091E60383818630B1F5E8
:104F600049E1C416D10490F586E4838358E14FEFFC
:104F7000571530F0F601EE0FFF1FE45FFE4F408142
:104F8000E1E0EC0D2FEFE93130F4F0E0EE0FFF1F20
:104F9000E45FFE4F2081E2E0EC0D0FEFE93130F4E9
:104FA000F0E0EE0FFF1FE45FFE4F0081E3E0EC0D49
:104FB000EE24EA94E93130F4F0E0EE0FFF1FE45FF5
:104FC000FE4FE08060E0882D0E943313E091E503FE
:104FD000F091E6038381883061F488E48383409113
:104FE0001A01E42E00910C0120E06DE08AE30E949A
:104FF0003313E091E503F091E60383818F3089F468
:105000000E941F14E091E503F091E6038381806420
:105010008383E12C00E020E040E0692D882D0E9490
:105020003313E091E503F091E6038681811112C00C
:10503000878181110FC08381873061F487E4838386
:1050400040911A01E42E00910C0120E06DE08AE30A
:105050000E94331380912C0182FF6ACC0E94DC02F3
:10506000C090E103D090E203E090E303F090E4030A
:10507000AB01BC014C195D096E097F094334510530
:105080006105710508F43FCCD701C6018D5B9F4FC8
:10509000AF4FBF4F8093E1039093E203A093E303EC
:1050A000B093E4038091550490915604029709F05F
:1050B00045C080915C0490915B04890F87FF7BC59C
:1050C0008F7780935C0480915D048F5F80935D0493
:1050D00087FF73C58DE680935C0490915704892FF8
:1050E0008170885880935D0480915E048F5F8F3754
:1050F00008F042C080935E0491FF52C08FEE80930F
:10510000580488E594E00E943D08A114B104B1F070
:105110008091570482FF12C080915D0470E8879FE0
:105120009001112480915C04820F932F911DAFEFA9
:10513000BFE3A81BB90BCD010E940000809155046C
:1051400090915604892B09F0DACB8BEB89838BE79E
:105150008A831B82CE0101960E943D08E1E0F0E0C7
:10516000F0935604E0935504CACB80E0D4CD60950B
:1051700070956823792346CE83E480935E04809102
:1051800060048F5F87FD03C080936004B5CF88E61D
:1051900080936004809161048F5F80936104ACCF41
:1051A00080E00E94510FB1CF8091080690910906CE
:1051B000DC01ED91FC910284F385E02D099580934B
:1051C0000306CFCB1092E903D3CB1093E903809170
:1051D000E803813071F482E08093E8038091EA0370
:1051E000882309F4C5CB8091E8038C6F0E94AB073C
:1051F000BFCB1093E803F2CF412CD2CB892B09F41B
:10520000DFCBEF2811F0912C412C01FF7AC01092D6
:105210001B0404FDD6C080912C0180FDD2C088E023
:105220000E94F2019C01672809F0CEC081E0232B87
:1052300009F480E08093190480901C0100FFCBC02A
:105240001092180440901B0483FE01C110921B04AD
:105250008CE00E94F2019C01C6FC01C181E0232B7D
:1052600009F480E08093170483E00E94F201FF2498
:10527000F394892B09F0F12C8FE00E94F201892B25
:1052800009F0F4C082E0F82A80E10E94F201892B43
:1052900009F0EEC084E0F82A81E10E94F201892B36
:1052A00009F0E8C088E0F82AF0921604E0901201B4
:1052B000109315041092140480911304823109F4A0
:1052C000AFC1809112048111ABC14110D5C0F11062
:1052D00023C132E0E31220C10E943009E091220490
:1052E000E93008F0D3C0F0E0E858F64D0C94AA304D
:1052F000982AE22A132B2B2B412B572B782B9D2BF3
:10530000A02B34FE41C08BE595E00E94A90380915B
:10531000670590916905C0FE19C0992309F479CFFA
:10532000882319F010921A0472CF80913C01809367
:105330001A04442019F0911010921A0480911A0452
:1053400081110E94300910931B0463CF992391F0BF
:10535000882381F080913C0180931A04442019F045
:10536000911010921A0480911A0481110E94300940
:1053700010931B0480916905882309F44ACF80911A
:105380006705811146CFCECF85E00E94F20121E072
:10539000892B09F420E020931B04442019F091107C
:1053A00010921B04C1FE05C080911B0485258093CB
:1053B0001B0480911B04882309F42BCF10921A043C
:1053C00028CF1092190438CF91E0232B09F090E0F8
:1053D0009093190431CF7601F1E0EF22FF2484FE8F
:1053E0001EC08AE695E00E94A903809176059091FF
:1053F0007805EF2869F0992309F424CF811120CF93
:1054000010931804442009F41DCF91101BCF18CF1E
:10541000992309F417CF882309F412CFF1CF84E040
:105420000E94F20121E0892B09F420E02093180466
:10543000442021F0911002C010921804EF2809F4C2
:1054400001CF80911804852580931804FBCE8091AC
:105450001904982E942890921B04412CF9CE91E0C7
:10546000232B09F090E090931704FECE80E00BCF41
:1054700080E011CF80E017CFE0901E01F0901F0177
:1054800007FD02C0E11038C00E943009609111048C
:105490008DE00E941B0205FD9CC1F0902001F110DF
:1054A000A3C207FF68C180911904811102C0442082
:1054B00021F01092040410920304809118048111C9
:1054C00009C080910404811105C0809103048823E0
:1054D00009F485C2E0910204E83008F04CC1F0E024
:1054E000EC58F54D0C94AA30A62B482C522C822C4B
:1054F0008A2CB02CC62CEA2C0E94B80163E0EE0C7A
:10550000FF1C6A95E1F728EFE22227E0F222E81675
:10551000F90608F4BBCFB8CF43E0E412DFCE8091A8
:105520001B04882309F4DACE84E080932204D6CECB
:1055300081E0F11001C080E080931104FF2009F4A4
:10554000A5CF10932204809115048823F1F0809157
:10555000160480FF0EC081E00E943A1D0E94DC020A
:1055600060930D0470930E0480930F0490931004C5
:105570008DCF81FF02C082E0EFCF82FF02C083E0C7
:10558000EBCF83FFEBCF84E0E7CF80911A0481114A
:10559000E3CF809114048111DFCF8091F003882341
:1055A00021F08091EF038111D7CF80911C0180FF02
:1055B00006C081FD04C0809116048F5FCDCF80911D
:1055C0000E01CACF80911704882369F080912404CA
:1055D000909125048E7F909325048093240482E08B
:1055E0008093220453CF0E94DC0220910D0430915D
:1055F0000E0440910F0450911004621B730B840B36
:10560000950B613D77408105910508F43FCF80916E
:1056100024049091250481609093250480932404B0
:105620001092220433CF72E0E71203C0FF2009F486
:105630002BCF80911704811129CF83E0809322041E
:105640000E94DC026093090470930A0480930B04A7
:1056500090930C041BCF84E0EE2011F282E0E8125C
:105660000BC0FF2009F410CF8091260190912701F3
:10567000892BB1F285E0B4CF94E088E0E912F4CF51
:10568000AFCFF11003CFE110CBCF809132019091D9
:105690003301892B29F20E94DC0260930504709388
:1056A0000604809307049093080486E099CF209124
:1056B00026013091270144E6429F3001439F700C40
:1056C0001124912C812C0E94DC022091090430913C
:1056D0000A0440910B0450910C04621B730B840B61
:1056E000950B661677068806990608F499CFCECEF4
:1056F000409132015091330128EE33E0429F300156
:10570000439F700C529F700C1124912C812C0E948D
:10571000DC02209105043091060440910704509169
:105720000804621B730B840B950B661677068806BC
:10573000990608F0ABCE87E053CFF110A7CE70CF1B
:1057400080911604882309F46BCFA0CE0E94DC025E
:105750006093FE037093FF03809300049093010411
:10576000109302041092030480911C0185FB88278A
:1057700080F9809304048091FD039091F203892BBA
:105780008093FD0380911C0186FF1CC020913A018B
:105790002223C1F08091F1038F709FEF980F983012
:1057A00088F49091FD03992369F08150990BE1E011
:1057B000F0E002C0EE0FFF1F8A95E2F72E2311F4EE
:1057C0001092FD036091FD03C5FC652589E00E94F0
:1057D0001B020E94270582E20E94940186EF95E059
:1057E0000E94A807F12C811119C000912104011118
:1057F00013C041E0602F8EE194E00E94120C0F5F15
:105800000031B9F710921D0410921C0470E060E0A2
:105810008EE194E00E94E607FF24F394F0922104C5
:1058200010933E010E94C30AFF2089F0E0912204F8
:105830009FEFE33320F4F0E0EE5BFD4F908183FFB8
:1058400090C19F77909590931F040E9443090E94F6
:10585000C30A082F0E943509FF2081F0833308F026
:1058600082C1E82FF0E0EE5BFD4F808104FF7DC137
:105870008F778095809320040E94430980E090E018
:10588000892B11F40C94BB230E9400000C94B823C4
:105890008091220190912301892B21F182E0809354
:1058A000020469CF809122019091230124E6289F70
:1058B0003001299F700C1124912C812C0E94DC0254
:1058C0002091FE033091FF034091000450910104A8
:1058D000621B730B840B950B661677068806990678
:1058E00008F049CF1093FD0383E0809302040E94E7
:1058F000DC026093F9037093FA038093FB039093A7
:10590000FC0339CF8091240190912501892B31F13D
:1059100084E0C5CF809124019091250124E6289F41
:105920003001299F700C1124912C812C0E94DC02E3
:105930002091F9033091FA034091FB035091FC034D
:10594000621B730B840B950B661677068806990607
:1059500008F011CF1092FD031092040485E09FCF50
:105960008091380190913901892B91F10E94DC02DC
:105970006093F5037093F6038093F7039093F80315
:1059800086E08093020410930304F5CE80913801E1
:105990009091390124E6289F3001299F700C112431
:1059A000912C812C0E94DC022091F5033091F603AA
:1059B0004091F7035091F803621B730B840B950B16
:1059C000661677068806990608F0D5CE1092FD0374
:1059D00087E065CF1092030410920404CCCE10929D
:1059E000FD0310920204C7CEA1E0FA122AC08091F2
:1059F0001704882319F107FDBECE80911C0183FD99
:105A0000BACE0E94B801209128013091290153E0BB
:105A1000220F331F5A95E1F78217930710F0F09287
:105A2000FD0320912A0130912B0143E0220F331F07
:105A30004A95E1F72817390708F49DCE1092FD0327
:105A40009ACEB2E0FB12BFC0009117040093FD0391
:105A50008091F403002309F48AC081111EC0809153
:105A6000220190912301892BC1F08091FE03909136
:105A7000FF03A0910004B0910104892B8A2B8B2B8A
:105A800051F40E94DC026093FE037093FF03809345
:105A90000004909301041093F3030093F4038091A6
:105AA000F303813049F5809122019091230124E68E
:105AB000289F3001299F700C1124912C812C0E9469
:105AC000DC022091FE033091FF03409100045091CD
:105AD0000104621B730B840B950B66167706880610
