:100000000C946A010C9492010C9492010C9478194E
:100010000C9478190C9478190C9492010C94F019A2
:100020000C9492010C9492010C94141D0C948D1B51
:100030000C9492010C9492010C9492010C949201F4
:100040000C942E190C9492010C9492010C94920130
:100050000C9492010C9492010C9492010C949201D4
:100060000C946E1A0C9492015374617475733F0072
:10007000496E626574726965626E61686D653F00A4
:10008000537465756572756E673F0043563F00494E
:1000900032432D5363616E3F006665727469670079
:1000A000307800506F7274457870616E64657220AC
:1000B0000056657273696F6E20004156522D536F62
:1000C000756E642D4652454400506C617965722D01
:1000D00053746174757300506C617965722D436F50
:1000E0006E74726F6C003F3F3F00536E64206F6E02
:1000F0002053747000535726536E642D4E6F2E009C
:1001000053572D44656C4F464600416472204C4E57
:100110002D5357004465626F756E632E4F4E00532A
:100120004E442D57616974004C4E206D617820411A
:10013000647200416472204C4E2D536E64004C4E2C
:100140002D46756E63004C65762053572D4F6666BD
:10015000004C65762053572D4F6E00536E642D5022
:10016000617573650053572D447572617400535760
:100170002D44656C4F4E0053572D4D6F64757300C1
:100180005044352D4C6576656C00436F6E6669672B
:1001900000536F6674772E2D49440056657273695B
:1001A0006F6E0050696E206E632E0050696E20697C
:1001B0006E7600536E642D4D6F64757300536E64DC
:1001C0002D4C6576656C00536E642D4E6F2E004489
:1001D0006576696365494400726F00435600205795
:1001E000696564657267616265006F686E6500537A
:1001F000746F6572756E67002D2D3A2D2D00666146
:10020000696C65640073746F726564004661737431
:10021000436C6F636B0000000000240027002A007D
:1002200000000008000201000003040700000000B5
:10023000000000000086227E6DD24620290B21702E
:10024000104080523F065B4F666D7D077F6F090D42
:10025000614843D35F777C395E79713D76301E7596
:100260003815373F736B336D783E3E2A766E5B39B7
:10027000640F2308025F7C585E7B716F74100C75ED
:100280003014545C7367506D781C1C14766E5B469A
:10029000307001000000000023002600290000004B
:1002A0000000250028002B000404040404040404B6
:1002B0000202020202020303030303030102040811
:1002C00010204080010204081020010204081020C0
:1002D000531F772E11241FBECFEFD8E0DEBFCDBF56
:1002E00012E0A0E0B1E0E4E1F5E602C005900D9275
:1002F000A83AB107D9F726E0A8EAB2E001C01D92FA
:10030000AF31B207E1F711E0C9E6D1E004C02197AF
:10031000FE010E943731C836D107C9F70E94E32099
:100320000C947D320C94000091E0909341058093F1
:10033000630510924205109264050895089508958A
:100340008530A8F4262F2052330BF901EC5CFD4FC9
:10035000E491A82FB0E0AA0FBB1FA351BA4F30E819
:10036000439FA0011124E42BF0E0ED93FC9308954A
:1003700080E480937C0080917A00806480937A008E
:1003800080917A0086FDFCCF809178009091790071
:100390000895833081F028F4813099F08230A9F0FB
:1003A00008958730A9F08830C9F08430B1F4809185
:1003B00080008F7D03C0809180008F7780938000C4
:1003C000089584B58F7784BD089584B58F7DFBCF64
:1003D0008091B0008F778093B00008958091B00035
:1003E0008F7DF9CFCF93DF93282F30E0F901E05EC6
:1003F000FD4F8491F901E454FD4FD491F901E85582
:10040000FD4FC491CC23A1F081110E94C901EC2FB2
:10041000F0E0EE0FFF1FEC56FD4FA591B491EC916B
:10042000ED2381E090E009F480E0DF91CF91089521
:1004300080E090E0FACF1F93CF93DF93282F30E036
:10044000F901E05EFD4F8491F901E454FD4FD49130
:10045000F901E855FD4FC491CC23A9F0162F811165
:100460000E94C901EC2FF0E0EE0FFF1FE256FD4F96
:10047000A591B4918FB7F894EC91111108C0D09563
:10048000DE23DC938FBFDF91CF911F910895DE2B88
:10049000F8CFCF93DF9390E0FC01E454FD4F24911B
:1004A00088559D4FFC0184918823C9F090E0880F06
:1004B000991FFC01EA5EFD4FA591B491FC01E25643
:1004C000FD4FC591D49161110DC09FB7F8948C91E7
:1004D000209582238C938881282328839FBFDF91D6
:1004E000CF910895623051F49FB7F8943C91822FD8
:1004F000809583238C93E8812E2BEFCF8FB7F894D0
:10050000EC912E2B2C938FBFEACF3FB7F8948091BC
:10051000350490913604A0913704B091380426B583
:10052000A89B05C02F3F19F00196A11DB11D3FBF2B
:10053000BA2FA92F982F8827BC01CD01620F711DFA
:10054000811D911D43E0660F771F881F991F4A95F3
:10055000D1F708958F929F92AF92BF92CF92DF9280
:10056000EF92FF924B015C010E9485026B017C01BE
:100570000E9485026C197D098E099F09683E7340AF
:1005800081059105A8F321E0821A9108A108B1081C
:1005900088EEC80E83E0D81EE11CF11C8114910482
:1005A000A104B10429F7FF90EF90DF90CF90BF90A6
:1005B000AF909F908F9008952FB7F8946091310479
:1005C0007091320480913304909134042FBF0895C8
:1005D0008F929F92AF92BF92CF92DF92EF92FF9253
:1005E0001F93CF93DF93182FEB010E94DC026B0166
:1005F0007C0180903B0490903C04A0903D04B0901E
:100600003E04C814D904EA04FB0409F453C00E9450
:10061000DC02DC01CB0188199909AA09BB098233E4
:100620009105A105B10578F422E3C22ED12CE12C6D
:10063000F12CA7019601281B390B4A0B5B0BCA0151
:10064000B9010E94AA021093420110924401C09382
:1006500045018091400190914101890F9927991F8F
:10066000810F911D20914301820F911DC80FD91F49
:10067000D195C195D109D0934601C0934701E0912E
:100680003904F0913A0409950E94DC0260933B041E
:1006900070933C0480933D0490933E04DF91CF918E
:1006A0001F91FF90EF90DF90CF90BF90AF909F9001
:1006B0008F9008950E94DC02A7019601261B370B3C
:1006C000480B590BDA01C901AACFCF93DF93CFE3CF
:1006D000D1E08091D9039091DA036991DC01ED9129
:1006E000FC910190F081E02D0995B1E0C934DB0760
:1006F00081F7DF91CF910895AF92BF92CF92DF92B1
:10070000EF92FF920F931F93CF93DF936C017B01C6
:100710008B01040F151FEB015E01AE18BF08C01757
:10072000D10759F06991D601ED91FC910190F081CA
:10073000E02DC6010995892B79F7C501DF91CF918D
:100740001F910F91FF90EF90DF90CF90BF90AF90EF
:100750000895CF92DF92EF92FF920F931F93CF9362
:10076000DF93EC018D850E94F201182F8C851817FC
:1007700059F10E94DC02C880D980EA80FB806C19A4
:100780007D098E099F09CC80DD80EE80FF806C158D
:100790007D058E059F05C0F00E94DC026883798389
:1007A0008A839B831C87188619861A861B8681E09C
:1007B0008E8781E090E0DF91CF911F910F91FF90A4
:1007C000EF90DF90CF90089588859985AA85BB85A5
:1007D000892B8A2B8B2BD1F00E94DC020881198196
:1007E0002A813B81601B710B820B930B0885198555
:1007F0002A853B85601771078207930738F00E94AE
:10080000DC02688379838A839B83CDCF1E8690E048
:1008100080E0D1CFCF93DF9365E070E080E090E09F
:100820000E94AA028091D9039091DA03DC01ED9134
:10083000FC910084F185E02D09950A979CF0CAE0AF
:10084000D0E08091D9039091DA03DC01ED91FC9125
:100850000284F385E02D0995019621F0219789F70F
:1008600081E001C080E0DF91CF9108952091D7030E
:100870003091D8032817390771F49091D5038091EE
:10088000D603981741F0E091D503F0E0EE56FC4F07
:10089000808190E008958FEF9FEF08950895EF9283
:1008A000FF920F931F93CF93DF93DC015C96ED9043
:1008B000FC905D97E114F10479F481E090E01396E7
:1008C0009C938E93129790E080E0DF91CF911F91DF
:1008D0000F91FF90EF9008955196ED91FC915297F2
:1008E00050968C915097982F90950FB75E962C91BB
:1008F0005E97122F127021FD6095F89420811123CC
:1009000019F1282B2083E7012197F1F728E0462FE2
:1009100050E0308160FF1AC0382B3083E701219707
:10092000F1F7BA0175956795215089F7112381F088
:100930008081892380830FBF5C968D919C91019764
:10094000F1F781E090E0C1CF2923DCCF3923E5CF57
:100950009081892BEFCF2091D7033091D8032817AE
:10096000390761F48091D6032091D50390E0805C33
:100970009F4F821B91098F739927089590E080E023
:1009800008952091D7033091D80328173907B9F477
:100990009091D5038091D603981789F0E091D50303
:1009A000F0E0EE56FC4F80812091D50330E02F5FC0
:1009B0003F4F2F7333272093D50390E008958FEF97
:1009C0009FEF089520916403260F3327331F2132B0
:1009D0003105ECF420913B05FC0190E080E02430EF
:1009E00069F082E00895A09164032191AC014C5B11
:1009F0005C4FA40FB52FB11D2C930196861798F369
:100A000080916403680F6093640380E0089581E03F
:100A1000089510923B0581E080933A0510921505E8
:100A200061E082E10E941B0261E083E10E941B02FF
:100A3000E9EBF0E080818E7F808380818D7F8083F1
:100A400080E28093B80085E48093BC000895109202
:100A500014051092130510924205109264050E942D
:100A600009058EE991E090931205809311058FE9B5
:100A700091E09093100580930F050895CF93DF9335
:100A800091E0909343038823B9F0C091B800D091CE
:100A9000BA008091BC008A7B8093BC0060E082E158
:100AA0000E941B0260E083E10E941B020E94090574
:100AB000D093BA00C093B800DF91CF9108958F9280
:100AC0009F92AF92BF92CF92DF92EF92FF920F93DD
:100AD0001F93CF93DF93D0916405D13208F0D7C034
:100AE000182FC09163050E9485026B017C018091E3
:100AF0003B0581116BC082E080933B0510933A0562
:100B00008FEF8093390510923805D0933705A3E411
:100B1000B5E0E7E1F5E080E0D81391C0109216054A
:100B200080911605CC0FC82BC09316058091150532
:100B3000813009F088C0109215050E9485026B0172
:100B40007C01809116058093BB0080913D059091BA
:100B50003E05A0913F05B0914005892B8A2B8B2B38
:100B6000A1F00E94850200913D0510913E05209163
:100B70003F05309140056C197D098E099F090617C4
:100B800017072807390708F442C08091BC0083FD8D
:100B9000D8CF85EC8093BC000E9485026B017C015C
:100BA00080913B05823009F450C0809139058F3F18
:100BB00009F46FC080913905803209F46CC08091CE
:100BC0003905803309F469C084E026C080913D0571
:100BD00090913E05A0913F05B0914005892B8A2B4D
:100BE0008B2B09F484CF0E94850280903D05909064
:100BF0003E05A0903F05B09040056C197D098E0917
:100C00009F0986169706A806B90608F070CF80914E
:100C10003C050E943E0585E0109242051092640555
:100C200010924105DF91CF911F910F91FF90EF90AE
:100C3000DF90CF90BF90AF909F908F9008959D913F
:100C400091938F5F69CF85EEA5CF80913D059091FF
:100C50003E05A0913F05B0914005892B8A2B8B2B37
:100C600009F49ECF0E94850200913D0510913E053A
:100C700020913F05309140056C197D098E099F092F
:100C8000061717072807390708F08ACFC0CF81E079
:100C9000C3CF80E0C1CF82E0BFCF83E0BDCFCF9292
:100CA000DF92EF92FF920F931F93CF93DF93D82F92
:100CB000C62F613208F098C00E9485026B017C014A
:100CC00080913B0581116BC081E080933B0580934F
:100CD0003A059FEF90933905109238059C0F909339
:100CE00037058093160580911605DD0FD82BD0931C
:100CF000160580911505813009F078C01092150510
:100D00000E9485026B017C01809116058093BB00D7
:100D100080913D0590913E05A0913F05B091400521
:100D2000892B8A2B8B2BA1F00E94850200913D0517
:100D300010913E0520913F05309140056C197D09C9
:100D40008E099F09061717072807390708F448C0B6
:100D50008091BC0083FDD8CF85EC8093BC000E94BD
:100D600085026B017C0180913B05813009F440C014
:100D7000809138058C1710F4C0913805E7E1F5E053
:100D8000AFEEB4E080E08C1355C08C2FDF91CF9193
:100D90001F910F91FF90EF90DF90CF900895809179
:100DA0003D0590913E05A0913F05B0914005892BEE
:100DB0008A2B8B2B09F484CF0E94850200913D057C
:100DC00010913E0520913F05309140056C197D0939
:100DD0008E099F09061717072807390708F070CFF3
:100DE00080913C050E943E05C0E0CFCF85EEB5CF97
:100DF00080913D0590913E05A0913F05B091400541
:100E0000892B8A2B8B2B09F4AECF0E94850200918F
:100E10003D0510913E0520913F05309140056C192C
:100E20007D098E099F09061717072807390708F05B
:100E30009ACFD6CF91919D938F5FA5CFE091140566
:100E400080911305E81730F4F0E0E151FB4F808109
:100E500090E008958FEF9FEF089590911405809191
:100E600013052FEF3FEF981748F4E92FF0E0E15119
:100E7000FB4F208130E09F5F90931405C9010895D6
:100E80008091130590911405891B990B0895CF92B9
:100E9000DF92EF92FF920F931F93CF93DF937C012A
:100EA000CB018A0120914105222389F0EB016B01DE
:100EB000C40ED51ECC15DD0569F06991D701ED9101
:100EC000FC910190F081E02DC7010995F3CF642FCB
:100ED0000E94E204C801DF91CF911F910F91FF9012
:100EE000EF90DF90CF900895CF93DF931F92CDB70F
:100EF000DEB76983209141052223F9F02091640532
:100F0000203258F021E030E0FC013383228390E06E
:100F100080E00F90DF91CF91089580914205E82FF6
:100F2000F0E0ED5BFA4F998190838F5F80934205EB
:100F30008093640581E090E0ECCF61E0CE01019602
:100F40000E94E204F7CF682F80E096E00C947407CB
:100F500081E00C945F05CF93DF93CCE0D6E08A83E9
:100F600088810E9494018E819F81DC01ED91FC912A
:100F70000190F081E02D6A8109958E819F810E9408
:100F8000A80790E09D838C83DF91CF910895CF9344
:100F9000DF93EC018B81882371F088810E9494019A
:100FA00089819A810E94A80791E0811190E0892FA0
:100FB000DF91CF9108950E94270581E08B83CE01B8
:100FC0000E94C707982F8111E8CFF1CFCF93DF930D
:100FD000D62FC72FFC01808180620E94940182E19C
:100FE0000E94A3078D2F0E94A3078C2F0E94A307A6
:100FF00080E096E0DF91CF910C94A807CF93DF9328
:10100000EC0168830E942705888180620E94940118
:1010100080E00E94A3078FEF0E94A30780E096E084
:101020000E94A807888180620E94940181E00E944A
:10103000A3078FEF0E94A30780E096E0DF91CF9196
:101040000C94A8079C01DC01A058BF4FEC9191E0E3
:101050009E0F9C93E20FF32FF11D608397FD1C926E
:101060000895FC0180818076803611F48181089595
:101070008081829586708E5F0895CF92DF92EF9285
:10108000FF920F931F93CF93DF93EC0109E11EE2D0
:10109000EE24E394F12C93E0D92ECC24C394CE011A
:1010A0000E94310880935F04E0915F04E150109248
:1010B0005E048FEF90915E049E1768F4A0915E0429
:1010C000AC0FBD2FB11D9C91892790915E049F5F4D
:1010D00090935E04EFCFEC0FFD2FF11D8083F89409
:1010E00080915D04813059F480915C04811738F05F
:1010F00010925D0480916F008D7F80936F007894D3
:1011000080915D04813031F480915C04843138F247
:10111000C12CC5CF80915D0481110EC0F8948091DF
:101120006F008F7D80936F00B59B09C080916F0029
:10113000806280936F007894C110B1CF56C0E09167
:101140005A04F0915B04808190915904970101C089
:10115000220F9A95EAF7822B8083809184009091E8
:1011600085008A589E4F909358048093570480912D
:101170005704909158049093890080938800789444
:10118000D0935604C093550410925E0410925404F8
:10119000888180935304D0925D0410925C04B19ACC
:1011A00080916F00826080936F0080915D04833036
:1011B000E1F3809154048823B1F0E0915104F0915F
:1011C0005204E757FF4F808191810196918380837C
:1011D00083E090E0DF91CF911F910F91FF90EF900E
:1011E000DF90CF90089580915D041B3108F011507D
:1011F000015009F052CF8091EB049091EC040196DC
:101200009093EC048093EB0486E090E0E3CFCF93DF
:10121000DF93CDB7DEB760970FB6F894DEBF0FBE91
:10122000CDBF8BEB89838BE78A831B82CE0101962E
:101230000E943D0860960FB6F894DEBF0FBECDBF8A
:10124000DF91CF9108951092FB0370E060E086E19A
:101250000E94E80262E370E080E090E00C94AA0251
:101260000E94230910922C0408958091200181117D
:1012700003C080910C040895823019F48091FD031D
:10128000089580E00895CF93DF93C0912A04809160
:101290002904DC2FC82F80912604909127048C17F5
:1012A0009D0749F0BE0188E294E00E94E607D093D2
:1012B0002704C0932604DF91CF910895EF92FF9207
:1012C0000F931F93CF93662309F44EC020912C01F6
:1012D000C1E027FD04C0411104C0C0E002C04111BB
:1012E000FCCF8C01E0902E01F0902F01C7010197F7
:1012F0008F3F974008F03EC00E151F0539F4C0938C
:10130000FA03C1110E9423091092F90380912C0164
:1013100081FF1BC0809130018823B9F0E114F104F2
:10132000A1F00E151F0588F08E0D9F2D911D081739
:10133000190758F4FF24F394F00EFE18C093FA0333
:10134000C1110E942309F092F90380913601909116
:1013500037019C01215031092F3F374028F40817ED
:10136000190711F4C093FC03CF911F910F91FF90C7
:10137000EF900895F12CE12CC9CF089590E080E022
:101380000895EF92FF920F931F93CF93DF93DC01A9
:1013900014962D913C912417350710F490E01DC050
:1013A000EA017B018C01FC0180810E949401D8013B
:1013B00011968D919C91DC01ED91FC910280F3815D
:1013C000E02DAE01B7010995C817D90739F781E0BB
:1013D0000E945F0591E08111E1CF892FDF91CF91CC
:1013E0001F910F91FF90EF900895CF93DF93CDB7AA
:1013F000DEB761970FB6F894DEBF0FBECDBF19827E
:10140000ADEEB5E0FE013196BF019C9111968C9135
:101410001197129691838283329685E0AD3FB8078B
:10142000A1F741E150E08091FD059091FE050E94F9
:10143000C10961960FB6F894DEBF0FBECDBFDF9134
:10144000CF9108950E944F061092140580931305C2
:101450000895FF920F931F93CF93DF938C01C62FB4
:10146000DCE0683010F0C850DDE0F8018081806277
:101470000E9494018D2F0E94A30780E096E00E94B5
:10148000A807F8018081806261E070E090E00E942E
:10149000220A80E096E00E942D07F82EF801808154
:1014A00080620E9494018D2F0E94A30781E090E04A
:1014B00001C0880FCA95EAF78F290E94A30780E030
:1014C00096E0DF91CF911F910F91FF900C94A807A8
:1014D0000F931F93CF93DF938C01C62FD2E1683017
:1014E00010F0C850D3E1F801808180620E9494011D
:1014F0008D2F0E94A30780E096E00E94A807F801C4
:101500008081806261E070E090E00E94220A80E0C9
:1015100096E00E942D07992702C095958795CA9558
:10152000E2F78170DF91CF911F910F910895EF92B3
:10153000FF920F931F93CF93DF9302EB15E0D0E060
:10154000C0E08FE1F82EEC2EF80161918F0180E070
:10155000603120F48EEB95E00E94680A90E002C0B2
:10156000880F991FEA94E2F780959095F8222196CA
:10157000C530D10541F78F2DDF91CF911F910F918C
:10158000FF90EF900895EF92FF920F931F93CF93E8
:10159000DF938091210428E0829FC0011124C09133
:1015A000070420E1C29FE0011124C82B8091FA03B7
:1015B00020E2829FC0011124C82B80911B0420E4EB
:1015C000829FC0011124C82B8091FC0320E8829FD8
:1015D000C0011124C82B0E94970A80FF15C080917A
:1015E0002504880F0091230494E0099F80011124B1
:1015F000802B00912204802B8C2BDF91CF911F91A7
:101600000F91FF90EF90089584E00E94F2017C0119
:1016100085E00E94F2018C0188E00E94F201000F37
:10162000111F880F991F880F991F082B0E298C2FC7
:10163000802BE3CFFF920F931F93CF93DF931F92E3
:10164000CDB7DEB78C016983F42EF801478360873C
:1016500085E090E095838483642FCE0101960E94FB
:10166000680AF80116826F2DCE0101960E94680A61
:10167000882319F083E0F80186830E94DC02F801D8
:1016800060837183828393830F90DF91CF911F9149
:101690000F91FF900895EF92FF920F931F93CF93B6
:1016A000DF938C01C62FE42E84E1F82ED2E168305E
:1016B00020F0C85095E1F92ED3E1F80180818062D5
:1016C0000E9494018F2D0E94A30780E096E00E9463
:1016D000A807F8018081806261E070E090E00E94DC
:1016E000220A80E096E00E942D0721E030E001C050
:1016F000220FCA95EAF7F1E0C82FC22BEF1619F0B6
:101700002095C22FC823F801808180620E94940135
:101710008D2F0E94A3078C2F0E94A30780E096E0E4
:10172000DF91CF911F910F91FF90EF900C94A8073C
:10173000FC01962F828D8F3F31F0603140F4CF0154
:101740004B960C944B0B642F892F0C941B0208951D
:101750000F931F93CF93DF93C62F8C01055E1F4F0E
:10176000D1E062FB442740F94D2768E0C8010E94A0
:101770004B0BC1FB442740F94D2767E0C8010E948D
:101780004B0B4C2F4095417066E0C801DF91CF9123
:101790001F910F910C944B0BFF920F931F93CF93BC
:1017A000DF938C01C62FF42ED0E0683010F0C850C3
:1017B000D1E0F801808180620E9494018D2F0E9407
:1017C000A30780E096E00E94A807F801808180626C
:1017D00061E070E090E00E94220A80E096E00E94C2
:1017E0002D0721E030E001C0220FCA95EAF7C82F8B
:1017F000C22BFF2019F02095C22FC823F801808149
:1018000080620E9494018D2F0E94A3078C2F0E945A
:10181000A30780E096E0DF91CF911F910F91FF9099
:101820000C94A807603110F40C94CC0B0895CF935E
:10183000DF93EC0140E06E810E94980B41E06E81E5
:10184000CE010E94980B40E06E81CE010E94980B61
:1018500084EC90E00197F1F7DF91CF910895AF927A
:10186000BF92CF92DF92EF92FF920F931F93CF938D
:10187000DF93EC018A8D8E01095F1F4FC62ED12C9C
:101880008F3F09F482C07E018BE1E80EF11C8B8D45
:1018900080620E94940182E10E94A30780E096E0AA
:1018A0000E94A8078B8D806262E070E090E00E9449
:1018B000220A80E096E00E942D07B82E80E096E094
:1018C0000E942D0760E0782FCB018B29F80130E0D2
:1018D00020E001E010E04191B801042E02C0660F43
:1018E000771F0A94E2F76095709586239723B601D7
:1018F000022E02C0759567950A94E2F7617077270A
:1019000002C0660F771F4A95E2F7862B972B2F5F51
:101910003F4F24303105F9F62E81680102C0CC0C0E
:10192000DD1C2A95E2F7C094D094C822D922B601D2
:10193000C7010E94E6078E81B80102C0660F771FBB
:101940008A95E2F7C62AD72AB601C7010E94E607A0
:101950008E81B80102C0660F771F8A95E2F7609505
:1019600070956C217D21C7010E94E60784EC90E010
:101970000197F1F7DF91CF911F910F91FF90EF90B9
:10198000DF90CF90BF90AF900895F12CE12C5E01D5
:10199000EBE1AE0EB11CF80181918F019A8D9F3F52
:1019A00039F141E0682FC5010E94120CA6010E2CEE
:1019B00002C0559547950A94E2F74170F8013197B6
:1019C0006081CE010E94980BFFEFEF1AFF0A84E0BE
:1019D000E816F10401F7CE01DF91CF911F910F912D
:1019E000FF90EF90DF90CF90BF90AF900C94170CCA
:1019F00061E00E944902DACFAF92BF92CF92DF92AC
:101A0000EF92FF920F931F93CF93DF93EC01F62E8B
:101A10006C810E94980B6D816F3F21F040E0CE01F8
:101A20000E94980B0F2D10E08C8984FF3BC06E0143
:101A300087E0C80ED11CF12CE12C5E01EBE1AE0E6B
:101A4000B11CF60181916F019A8D9F3F39F141E000
:101A5000682FC5010E94120CA8010E2C02C05595DA
:101A600047950A94E2F74170F60131976081CE0103
:101A70000E94980BFFEFEF1AFF0A88E0E816F104C6
:101A800001F7CE01DF91CF911F910F91FF90EF9061
:101A9000DF90CF90BF90AF900C94170C61E00E9444
:101AA0004902DACFB80184E0759567958A95E1F728
:101AB000CE010E942F0C6F2DCE01DF91CF911F918F
:101AC0000F91FF90EF90DF90CF90BF90AF900C946C
:101AD0002F0C41E00E94FC0C81E090E0089541E071
:101AE000682F83EA95E00E94FC0C81E090E0089565
:101AF0000F931F93CF93DF938C01D0E0C0E0F801E8
:101B0000EC0FFD1F6491662339F041E083EA95E014
:101B10000E94FC0C2196F3CFCE01DF91CF911F9153
:101B20000F91089540E00C94FC0CCF93DF93CDB758
:101B3000DEB728970FB6F894DEBF0FBECDBF98E092
:101B4000EFE4F1E0DE01119601900D929A95E1F734
:101B50009091BB05961708F46FEF262F30E0220F07
:101B6000331F41E050E04C0F5D1F240F351FF9017A
:101B70006081680F606883EA95E028960FB6F89454
:101B8000DEBF0FBECDBFDF91CF910C94920D61E00F
:101B90000E94920D8CE99FE00197F1F7089583EA86
:101BA00095E00E94C70D60E080E00E94950D87EDF2
:101BB00090E00C94780D83EA95E00E94C70D60E0F8
:101BC00080E00E94950D89EC90E00C94780D83EAFA
:101BD00095E00E94C70D60E080E00E94950D8FE8BF
:101BE00090E00E94780D82ED80931D04089583EAB1
:101BF00095E00E94C70D60E080E00E94950D8BE8A3
:101C000090E00E94780D88EC80931D04089583EA8B
:101C100095E00E94C70D60E080E00E94950D80E88D
:101C200090E00E94780D88E080931D04089583EA77
:101C300095E00E94C70D60E080E00E94950D80E76E
:101C400090E00E94780D82E080931D04089583EA5D
:101C500095E00E94C70D60E080E00E94950D88E647
:101C600090E00E94780D81E080931D0408953F92DA
:101C70004F925F926F927F928F929F92AF92BF929C
:101C8000CF92DF92EF92FF920F931F93CF93DF9348
:101C9000C82F362E142FD22F81E0809339038091E4
:101CA000D3039091D40301969093D4038093D303EC
:101CB000C093F7030093A90281E0C11101C080E045
:101CC0008093F8030E94DC026093F3037093F403A3
:101CD0008093F5039093F603011104C080912C01C9
:101CE00083FF9BC0CC2309F498C080913A03D81796
:101CF00009F48DC080912C0190912D01807299275B
:101D0000D0FD04C0892B21F082E003C0892BE1F3D0
:101D100081E08093F0038091F203882329F0809181
:101D2000F0038C6F0E94AB078091D203882309F4E3
:101D30006EC06D2F70E084E6189F600D711D112438
:101D4000072E000C880B990B0E940E302B013C01D2
:101D500020E030E040E05FE30E94FA2E0E94DD2F99
:101D60006B017C01812C912C30E8A32E3FE3B32E34
:101D700000E080E1C81687E2D806E104F104E0F053
:101D8000015020E030E040E251E4C501B4010E947E
:101D90006B2F4B015C01AC019B01C301B2010E949E
:101DA000BE3020E030E040E05FE30E94FA2E0E9467
:101DB000DD2F6B017C01DDCF20E030E040E85FE308
:101DC000C501B4010E94662F712CC4E02AE0822E66
:101DD000912CA12CB12C87FF32C080E490E090932D
:101DE000EE058093ED059093F0058093EF059093B9
:101DF000F4058093F3059093F6058093F50582E052
:101E000090E09093F2058093F1050E94F5091093FC
:101E10003B03D0933A033092A802DF91CF911F91F8
:101E20000F91FF90EF90DF90CF90BF90AF909F9079
:101E30008F907F906F905F904F903F900895C11466
:101E4000D104E104F10411F4071588F1002319F01D
:101E5000442443940711412C5C2EC1506C2E84E025
:101E6000851558F0C701B601A50194010E94C82E3E
:101E7000605D442D852D0E94A001C23069F4CEEF33
:101E8000C50D84E0861540F0E62DF0E0EE0FFF1F53
:101E9000E351FA4F11821082C701B601A5019401E6
:101EA0000E94C82E69017A017394C9CFC150C7FD41
:101EB000A6CFC530DCF7EC2FF0E0EE0FFF1FE351AB
:101EC000FA4F11821082F2CF0F93082F209148040D
:101ED000235480914A0498E9980F883618F468E1F1
:101EE0000E942B31492F60914B04809145040E9440
:101EF000370E0F9108950F93AC0190912C0192FF32
:101F000030C08091F703882361F12091EB03309179
:101F1000EC032E5833404217530718F55093EC0347
:101F20004093EB0393FF1DC020913A0391E0920F81
:101F300090933A039C3358F090913B032B5320939A
:101F40003A0321E0290F283170F420933B030091DC
:101F5000A90220913A0340913B036091A8020E949C
:101F6000370E0F910895975190933B03F0CF8F92C6
:101F70009F92AF92BF920F931F93CF93DF93CDB7F2
:101F8000DEB7A1970FB6F894DEBF0FBECDBF19A282
:101F9000423008F44AE08E010F5D1F4F842E912CD1
:101FA000B12CA12CA50194010E94C82EE62FB901E5
:101FB000CA01EA3044F5E05DD801EE938D01232B90
:101FC000242B252B79F790E080E0109769F0FD0134
:101FD00001900020E9F73197AF014A1B5B0BBD016F
:101FE00083EA95E00E947C03A1960FB6F894DEBFC9
:101FF0000FBECDBFDF91CF911F910F91BF90AF90DA
:102000009F908F900895E95CD7CFCF93C82F87FD1D
:1020100021C080E30E946F0DC034E0F480E30E9491
:102020006F0DC032B8F480E30E946F0DC03190F4A0
:1020300080E30E946F0DC83068F480E30E946F0D4A
:10204000C43040F480E30E946F0DC23018F480E386
:102050000E946F0D6C2F70E090E080E042E0CF9125
:102060000C94B70FCF93DF93EC016530D8F0C031FB
:1020700087E2D80750F480E30E946F0DC83E83E0EA
:10208000D80718F480E30E946F0DC436D10518F408
:1020900080E30E946F0DCA30D10550F480E30E94A6
:1020A0006F0D06C0643051F3633079F3623099F3F9
:1020B000BE0190E080E04AE0DF91CF910C94B70F31
:1020C00083EA95E00E94C70D60E080E00E94950DD4
:1020D0008AEB90E00E94780D61E080E00E94950D0F
:1020E00081EB90E00E94780D6091180170911901C8
:1020F00090E080E04AE00C94B70F0F931F93CF93CA
:10210000DF930E94270580E20E94940180E096E020
:102110000E94A8079091E603882341F1992319F0C2
:1021200010921C0490E09093E603DF91CF911F91F1
:102130000F910895606283EA95E00E94920D84E217
:1021400093E20197F1F76091B705606283EA95E049
:102150000E94920D88E291E00197F1F76091B70536
:10216000606283EA95E00E94920DACC0911120C19B
:1021700060E08CEE95E00E94FE078091BD058F3FE8
:1021800009F458C00E94270560E08EEB95E00E949C
:10219000FE0741E068E08EEB95E00E94CC0B41E049
:1021A00066E08EEB95E00E94CC0B41E067E08EEBA1
:1021B00095E00E94CC0B67E083EA95E00E94A80BB3
:1021C0006091A805662329F041E08EEB95E00E941E
:1021D000120C41E06091A7058EEB95E00E94120C75
:1021E00041E06091A9058EEB95E00E94120C0AEA8D
:1021F00015E0C3EAD5E0F80161918F0141E08EEB73
:1022000095E00E94120CF5E00E3A1F07A1F708EACC
:1022100015E040E06F858EEB95E00E94120C6F8513
:10222000603120F48EEB95E00E94290A21960C176C
:102230001D0779F78091B70588608093B70582E024
:102240008093BB051092BC058CE996E80197F1F7E5
:1022500040E06091A70583EA95E00E94980B40E07A
:102260006091A90583EA95E00E94980B6091A8050A
:102270006F3F29F040E083EA95E00E94980B60915F
:10228000B70564FD57CF63E083EA95E00E942F0C09
:10229000C4E2D3E2CE010197F1F763E083EA95E06F
:1022A0000E942F0C2197F1F763E083EA95E00E94EA
:1022B0002F0C88E291E00197F1F762E083EA95E064
:1022C0000E942F0C6091B705606283EA95E00E943E
:1022D000920D84E08093B8056CE083EA95E00E945B
:1022E000920D83EA95E00E94C70D82E08093B905C4
:1022F00066E083EA95E00E94920D40E065E08CEE96
:1023000095E00E94CC0B65E08CEE95E00E94290AD6
:1023100044E050E06091EC058FEB95E00E941A0BD1
:1023200043E050E06091EC0581ED95E00E941A0BCE
:1023300042E050E06091EC058AED95E00E941A0BB6
:1023400041E050E06091EC0588EC95E00E941A0BAA
:1023500050E040E06091EC0583EE95E00E941A0B9E
:1023600080911A0190911B01059711F40E94601051
:1023700010923C031092410310921D0410924003EE
:1023800010923F038FEF9FEF909309018093080114
:10239000909307018093060190930B0180930A01AB
:1023A00090930501809304019093030180930201AF
:1023B00091E0B9CECF92DF92EF92FF9283EA90E064
:1023C0000E94780D8091DE03811104C08091DB03AF
:1023D000882301F180911D048A50990B6C01092E0C
:1023E000000CEE08FF0897FF11C08DE20E946F0DF0
:1023F00066277727CB016C197D098E099F094AE072
:10240000FF90EF90DF90CF900C94B70F4AE0C70198
:10241000B601F6CFFF90EF90DF90CF90089542E0A5
:1024200050E064EA72E083EA95E00C947C0385ED69
:102430008093BC0080913D0590913E05A0913F05A1
:10244000B09140050796A11DB11D23E0B695A79553
:10245000979587952A95D1F72091BC0024FD03C05C
:1024600010923B05089540913D0550913E056091C5
:102470003F0570914005452B462B472B69F300978C
:10248000A105B10541F025E12A95F1F7000001977A
:10249000A109B109E1CF80913C050C943E052F9232
:1024A0003F924F925F926F927F928F929F92AF92E4
:1024B000BF92CF92DF92EF92FF920F931F93CF9331
:1024C000DF9300D000D0CDB7DEB79C838B837C0137
:1024D00041E8E40EF11C6C0150E8C50ED11C8C01E2
:1024E0000E571F4F8D579F4F2C018B819C818C570E
:1024F0009F4F4C0122242A94AB80BC8097E8A90E00
:10250000B11CEB81FC81EB57FF4FFA83E983F701A4
:102510008081F6019081891709F4BAC0EB81FC81B2
:10252000E80FF11D308037FE6DC0F80190818917EA
:1025300039F0F501208131812F5F3F4F31832083B6
:10254000F8018083F2012082832D8076F4018036A9
:1025500009F441C0832D829586708E5F8083F801D7
:102560002081F4018081820F9927991F813891057C
:102570009CF180E8682E621AF894F6014081F80117
:102580008081841708F044C0F42FF81B8F2FF601C8
:1025900080837894F80160814617E8F5712C50E04B
:1025A0006B817C81CB01860D971D0E946232F80100
:1025B00060814B815C81460F511DBA01A3018B8163
:1025C0009C810E946232F7018081F8019081891B11
:1025D000F7018083F8011082F70190819F5F90835B
:1025E000F8018081392F381B97FF02C0F701108254
:1025F000F2012081F40190819317A9F03226F201B3
:10260000308285CFF40180818111E6CF3082A7CF5F
:10261000862D840FBCCF461B50E08B819C81860F9A
:10262000911DBC01CCCF32122AC04B815C81480F76
:10263000511DCA01E981FA81408151814F5F5F4F8D
:1026400051834083F7013081F80130830097B1F264
:102650000F900F900F900F90DF91CF911F910F91DE
:10266000FF90EF90DF90CF90BF90AF909F908F90B2
:102670007F906F905F904F903F902F900895F5015D
:102680008081918101969183808390E080E0DACF10
:1026900090E080E0DDCF6F927F928F929F92AF9219
:1026A000BF92CF92DF92EF92FF920F931F93CF933F
:1026B000DF93E091ED03F091EE03D581D370978025
:1026C000868073806280A82EE894A7F887FD9AC060
:1026D000D061B62EE894B7F867FDD860C42EE894B0
:1026E000C7F811E147FF10E1D22EE894D7F827FD93
:1026F0001260F02EE894F7F807FD14600E2D0F77A6
:10270000E7FC1860C92DC82588E0C827C725C6255D
:10271000C027CF25CD25CC25CB25CA25CD27C12740
:1027200065EE8AEA92E00E94220860E18AEA92E07D
:102730000E942208662D8AEA92E00E942208672DF4
:102740008AEA92E00E94220862E08AEA92E00E940D
:1027500022086D2F8AEA92E00E942208682D8AEAF8
:1027600092E00E942208692D8AEA92E00E942208E3
:102770006A2D8AEA92E00E9422086B2D8AEA92E092
:102780000E942208612F8AEA92E00E9422086C2DA2
:102790008AEA92E00E9422086D2D8AEA92E00E9465
:1027A00022086F2D8AEA92E00E942208602F8AEAAE
:1027B00092E00E9422086C2F6F778AEA92E00E94D2
:1027C00022086FEF8AEA92E00E9422088AEA92E0E9
:1027D0000E944F129093EE038093ED03009711F047
:1027E0000E943D0881E0DF91CF911F910F91FF90F2
:1027F000EF90DF90CF90BF90AF909F908F907F90A1
:102800006F900895D46165CF0F931F93CF93DF939B
:10281000E82FF0E099E0899FD0011124AF59BE4F15
:1028200015962D913C9126173707C0F08B01C82FC4
:10283000EE0FFF1FE45FFE4F71836083CF5FCC0F0D
:10284000D0E0612FCE010E949B2E602FCE01019619
:10285000DF91CF911F910F910C949B2EDF91CF911F
:102860001F910F910895893110F40C940414089568
:10287000CF93DF936DE490E080E00E949B2E6AE5A9
:1028800081E090E00E949B2EC1E6D1E069817A81CF
:1028900088810E943314299682E0C234D807B1F7A8
:1028A000DF91CF910895EF92FF920F931F93CF93F3
:1028B000DF9365E08CEE95E00E94680A20E2829F3B
:1028C000C00111248095909561E085FD60E083EA68
:1028D00095E00E94A80B0E94970A909141038111F4
:1028E0000CC0992309F466C010924103DF91CF9187
:1028F0001F910F91FF90EF900895891709F45AC026
:1029000090911D048093410391110AC082FFEECF84
:10291000DF91CF911F910F91FF90EF900C94270EB4
:102920009130C9F483FF05C00E94601010921D040D
:10293000DDCF82FF08C0DF91CF911F910F91FF90F3
:10294000EF900C94170E81FF35C00E94DB0D8AE0DA
:1029500080931D04CBCF9230B1F483FDD9CF82FF99
:1029600008C0DF91CF911F910F91FF90EF900C94D1
:10297000070E81FF1FC0DF91CF911F910F91FF9034
:10298000EF900C94F70D953089F48C7199F083EAEF
:1029900095E00E94C70D60E080E00E94950D809157
:1029A000DB03882309F480C08CE07FC09730C1F539
:1029B00083FDD7CF80911D04853009F09CC2C09162
:1029C0002E04D0912F0480910A0190910B01C81719
:1029D000D90771F0D0930B01C0930A0161E080E048
:1029E0000E94950D8D2F0E9405108C2F0E940510BE
:1029F00080911D04873009F089C261E080E00E9467
:102A0000950D80913903882309F47CC280913B03A2
:102A1000C0913A03873108F463C30E940F1264C364
:102A20009830A1F583FD87CF81FF15C080910E01FD
:102A300090910F019093400380933F030E94CF0D2C
:102A400082E180931D04DF91CF911F910F91FF9040
:102A5000EF900C94230982FFADCF80912C0182FF6F
:102A600045CF87E080931D0483EA95E00E94C70D5F
:102A700060E080E00E94950D8CE092E0DF91CF91C4
:102A80001F910F91FF90EF900C94780D9A30B9F44C
:102A900084FD3ECF81FF8ECF83EA95E00E94C70D73
:102AA00060E080E00E94950D8BE080931D04DF9133
:102AB000CF911F910F91FF90EF900C94DA119B3002
:102AC000B1F484FD42CF81FF75CF83EA95E00E9487
:102AD000C70D60E080E00E94950D8091DB038111BD
:102AE00063CF8FEE91E00E94780D85E031CF9C306E
:102AF00069F484FDD1CF81FF5DCF83EA95E00E9428
:102B0000C70D60E080E00E94950DEBCF923199F502
:102B100084FF03C00E94230924CF83FF10C00E94BA
:102B2000230980913F0390914003019729F09093EE
:102B3000400380933F03DACE8FEF90E0F8CF82FF1F
:102B40000BC00E94230980913F039091400301969E
:102B500071F781E090E0EBCF81FF0AC080913F03E5
:102B6000DF91CF911F910F91FF90EF900C945E1D1C
:102B700080FF20CF68CF943108F49CC12091A2053A
:102B8000291708F47AC11CEE190F80FF4EC0F0908F
:102B90003E03FF2009F4AACE60913F0370914003E9
:102BA000C12FD0E01630E1F4672BA1F40E94381455
:102BB000CC0FDD1FC45FDE4F888199810E94DD1D2F
:102BC00061E08AE00E94950DFF2009F4ECC285E0E7
:102BD00092E0EBC265E170E086E00E940414E8CF69
:102BE00089E08C9FF0018D9FF00D1124EF59FE4F6D
:102BF000838194816817790708F4E4C285819681FE
:102C00008617970708F4DEC280858111DBC2812F09
:102C10000E943314193160F28FEF9FEF0E94DD1D87
:102C200061E08AE00E94950DD2CF84FF12C08091AE
:102C30003E03882349F010923E03E12F193108F436
:102C4000B5C08FEF9FEF07C10E94F70D10921C04D3
:102C50004DCE81FF5CC080913E0381111FC01931B0
:102C6000E8F4E12FF0E039E0139FD0011124AF59CF
:102C7000BE4F18968C91811111C0EE0FFF1FE45FBB
:102C8000FE4F808191819093400380933F0321E028
:102C900020933E0310923D030E94DD1D80913E0370
:102CA000882309F423CEC0913D03CF5FC0933D0339
:102CB000193148F449E0149FF0011124EF59FE4FF7
:102CC0008781823061F0812F0E94BC1D90E00196C7
:102CD000C817190631F481E080933D0302C0C93062
:102CE000D1F361E080913D030E94950D6091B8059C
:102CF000862F82608093B8056A6083EA95E0DF9151
:102D0000CF911F910F91FF90EF900C94920D83FF44
:102D100055C080913E038823E1F1C0913F03D091DB
:102D200040038FEF9FEF193138F5E12EF12C59E078
:102D3000159FF0011124EF59FE4F0781023008F072
:102D400045C2812F0E948A1D8C0F9D1F90934003C6
:102D500080933F038C179D0708F038C2D09340033F
:102D6000C0933F0389E08E9DF0018F9DF00D1124EB
:102D7000EF59FE4F8581968120913F0330914003AA
:102D80008217930708F063C0D0934003C0933F03BA
:102D90005EC09F5F90931D04921710F020931D0456
:102DA000E0911D04E451E93108F04BCFF0E0EE0F63
:102DB000FF1FE45FFE4F808191814DC082FF40C2C2
:102DC00080913E03882309F44EC0C0913F03D09107
:102DD000400390E080E0193140F5E12EF12C59E0FC
:102DE000159FF0011124EF59FE4F0781023008F0C2
:102DF0000AC2812F0E948A1D9E01281B390B309325
:102E0000400320933F03C217D30708F0FCC1D093BF
:102E10004003C0933F0389E08E9DF0018F9DF00D2C
:102E20001124EF59FE4F8381948120913F0330910B
:102E300040032817390720F4D0934003C0933F0381
:102E400080913F0390914003019609F49DCF8091BA
:102E50003F0390914003DF91CF911F910F91FF901D
:102E6000EF900C94DD1D915090931D04933109F067
:102E700097CF84E180931D0493CF983CD9F482FFCF
:102E800008C0DF91CF911F910F91FF90EF900C94AC
:102E9000E70D84FD50CD81FF8DCD84E180931D042D
:102EA00080910C0190910D010E94DD1D81E08093C5
:102EB0001C041CCD923D09F0C9C183FD5CCD84FD8D
:102EC0003ACD81FF77CD83ED80931D0460E088E0EB
:102ED0000E94950D80E20E946F0D8FEF9FEF9093FF
:102EE000400380933F03DF91CF911F910F91FF909B
:102EF000EF900C94091F8FEF9FEF90930B0180933D
:102F00000A0176CD88EF91E00E94780D80911D0432
:102F10008A3009F014C161E080E00E94950D0E94A2
:102F2000C30AC0912004DC2FC82F0E943509E0900D
:102F30002C04F82E1091FB03809108019091090157
:102F4000C817D90761F48091060190910701E8162E
:102F5000F90629F480913C03181709F453C0D09363
:102F60000901C09308010E94DB0D8FEF9FEF909342
:102F700007018093060161E080E00E94950D0E94A8
:102F8000C30A0E94051061E08CE00E94950DC0917B
:102F9000200480911F04882309F4BCC0C0FDB2C086
:102FA000C1FDB2C0C2FDB2C0C3FDB2C086E60E9480
:102FB0006F0D63E08C2F90E00E94321061E089E099
:102FC0000E94950DF0920701E092060160912C0499
:102FD00070E090E080E04AE00E94B70F0E9435095F
:102FE000682F70E090E080E04AE00E94B70F60E058
:102FF0008EE00E94950D63E0812F90E00E943210D8
:1030000010933C0380911D048B3009F0AAC080917D
:10301000040190910501892B99F0109205011092FD
:10302000040161E080E00E94950D8091DE03882319
:1030300009F492C080E00E94051080E00E94051013
:1030400080911D048C3009F098C08091020190910C
:103050000301892B99F0109203011092020161E0A3
:1030600080E00E94950D8091DB03882309F480C0E5
:1030700080E00E94051080E00E94051080911D04F0
:10308000823109F081C061E080E00E94950D0E94CC
:10309000C30AC0913F03D091400320E03C2F282B6E
:1030A00080910001909101012817390709F41ECC85
:1030B00030930101209300010E94CF0D61E080E078
:1030C0000E94950D8EE30E946F0D63E0CE010E9479
:1030D00032100E94C30A83FF09CC8EED91E0CECC62
:1030E00062E090E00E9432108AE30E946F0DCC33C0
:1030F00030F462E08C2F90E00E94321007CF0E94E3
:103100000F1204CFC1E052CFC2E050CFC3E04ECF88
:10311000C4E04CCF20911C0130911D01C901827087
:10312000992720FF05C0892B29F4CF5F83E73FCF84
:10313000892B19F0CC0F8CE63ACF8EE238CF8FEF87
:103140009FEF90930901809308019093070180936A
:10315000060180933C0356CF8AEE91E00E94780DE1
:103160006FCF8FEF9FEF909305018093040168CF9D
:103170008AEE91E00E94780D81CF8FEF9FEF9093C0
:103180000301809302017ACF8FEF9FEF90930101AB
:1031900080930001ABCB8FEF9FEF0E94DD1D61E0BC
:1031A0008AE00E94950D8EEF91E00E94780D61E01B
:1031B00080913D03DF91CF911F910F91FF90EF9090
:1031C0000C94950D193138F7F12CF2CC023009F03E
:1031D000C9CD80913D0328E030E0281B310981E012
:1031E00090E0AC0102C0440F551F2A95E2F79A0106
:1031F00080913F0390914003842B932B9093400345
:1032000080933F03AFCD023009F005CE80913D039E
:1032100028E030E0281B310981E090E002C0880FEF
:10322000991F2A95E2F78095909520913F03309160
:103230004003822393239093400380933F03EBCD7D
:10324000983C09F426CE923D09F439CE933D09F01D
:10325000B1CB84FD16CE82FFADCB45CE1F920F922F
:103260000FB60F9211242F933F938F939F93AF9399
:10327000BF938091310490913204A0913304B091B6
:1032800034043091300426E0230F2D3758F5029690
:10329000A11DB11D2093300480933104909332041A
:1032A000A0933304B0933404809135049091360494
:1032B000A0913704B09138040196A11DB11D8093EF
:1032C000350490933604A0933704B0933804BF912B
:1032D000AF919F918F913F912F910F900FBE0F90C3
:1032E0001F90189529E8230F0396A11DB11DD2CF79
:1032F0001F920F920FB60F9211242F933F934F936B
:103300005F936F937F938F939F93AF93BF93EF934D
:10331000FF93E091D703F091D803309749F0A68549
:10332000B7858585968D91FF14C09C918923A1F462
:10333000FF91EF91BF91AF919F918F917F916F918D
:103340005F914F913F912F910F900FBE0F901F9063
:1033500018959C91892361F7A389B4899C918589EB
:10336000809589238C93868997890197F1F7608DE1
:10337000718DA685B785558538E020E0CB01019792
:10338000F1F7822F90E095958795282F4C91452352
:1033900009F02068315091F7868D81FD209580914C
:1033A000D60390E001968F7399273091D503381793
:1033B00099F0A091D603B0E0AE56BC4F2C93809309
:1033C000D603828D938D0197F1F7A389B4898C91EF
:1033D0009589892B8C93ACCF868D8160868FF1CFB8
:1033E0001F920F920FB60F9211242F933F934F937A
:1033F0005F938F939F93AF93BF93EF93FF938091CE
:103400009103882309F448C088B18F6088B985B1D9
:10341000817C85B9E0919003F0E0E457FC4F808116
:1034200025B190E095958795959587958E73992709
:10343000822B85B98BB1877C8BB9E0919003F0E04A
:10344000E457FC4F80812BB138E0839FC0011124E9
:1034500088739927822B8BB94091900380918B03BD
:1034600028B1480F5527551F81E090E002C0880F12
:10347000991F4A95E2F780959095822388B98091AB
:1034800090038F5F809390039091900380919103BC
:10349000981710F010929003809187039091880301
:1034A000A0918903B0918A030196A11DB11D80935B
:1034B000870390938803A0938903B0938A03FF91B5
:1034C000EF91BF91AF919F918F915F914F913F91FC
:1034D0002F910F900FBE0F901F9018951F920F9273
:1034E0000FB60F9211242F933F934F935F936F93D7
:1034F0007F938F939F93AF93BF93EF93FF938091AD
:10350000B900887F803609F44AC0F0F5883209F4A2
:10351000A7C018F5803109F49BC0B8F4882309F4DA
:10352000F9C0883009F494C0FF91EF91BF91AF9139
:103530009F918F917F916F915F914F913F912F91CB
:103540000F900FBE0F901F901895883109F488C016
:10355000803251F78093390514C0803409F49DC03E
:1035600040F48033B9F38833F9F68093390585EC5C
:10357000B0C0803509F485C0883509F496C0883418
:1035800099F60E941712D0CF883909F48CC038F50B
:10359000883729F050F4883611F0803729F683E017
:1035A00080933B051092860357C0883809F47BC08E
:1035B000803919F0803809F0B7CF809186038032C6
:1035C00008F071C0E091860381E08E0F809386033E
:1035D0008091BB00F0E0EA59FC4F80833DC0803B06
:1035E00039F0E0F4803A09F479C0883A09F09CCFC8
:1035F00084E080933B051092650310926403E09190
:103600001105F091120509958091640381110FC095
:1036100081E0809364031092440309C0803C09F464
:10362000A6CF883C09F4A3CF883B09F07DCFE09179
:10363000650381E08E0F80936503F0E0EC5BFC4F47
:1036400080818093BB00909165038091640329C0C1
:10365000809116058093BB0085EC8093BC0064CFFD
:103660009091380580913705981758F5E091380505
:1036700081E08E0F80933805F0E0E95EFA4F80819B
:10368000E9CFE091380581E08E0F80933805809175
:10369000BB00F0E0E95EFA4F80839091380580919D
:1036A00037059817C8F285E8D8CFE091380581E052
:1036B0008E0F809338058091BB00F0E0E95EFA4FF1
:1036C000808380913A0581115CCF81E0809315055C
:1036D00084EA8093BC0010923B0526CF85EC809352
:1036E000BC0010923B0580918603803230F4E0915B
:1036F0008603F0E0EA59FC4F10826091860370E087
:10370000E0910F05F091100586E693E0099510927F
:1037100086030ACF1092390534CF1F920F920FB64D
:103720000F921124DF92EF92FF920F931F932F932A
:103730003F934F935F936F937F938F939F93AF9339
:10374000BF93CF93DF93EF93FF93B19A8091570488
:103750009091580480529E4F909358048093570440
:103760008091570490915804909389008093880029
:1037700080914203882371F010924203189B26C067
:1037800081E080935D04B59A80916F0080628093A0
:103790006F001CC080915C048F5F80935C048091FB
:1037A0005D04843009F043C080915C04893030F5B9
:1037B0008091530490E09595879580935304189BCE
:1037C00005C080915304806880935304FF91EF916A
:1037D000DF91CF91BF91AF919F918F917F916F9129
:1037E0005F914F913F912F911F910F91FF90EF901B
:1037F000DF900F900FBE0F901F901895B59A809193
:103800006F00806280936F00809151049091520408
:10381000189929C0FC01E957FF4F808191810196D9
:103820009183808310925C0481E080935D04809199
:103830005D048330E9F5E0915A04F0915B048081E6
:103840002091590433B190E0022E02C095958795DE
:103850000A94E2F7832780FD11C010925C0482E095
:1038600080935D0425C0609153040E94220880E08B
:1038700090E0892BB9F20E940000D4CF80915C04C3
:10388000893008F043C03091530481E090E001C0DA
:10389000880F2A95EAF7908130FF36C080958923FA
:1038A00080838091530490E095958795809353048D
:1038B00080915D04823099F480915C0481118EC006
:1038C000E0915A04F0915B0480819091590421E0C9
:1038D00030E001C0220F9A95EAF7822B8083809115
:1038E0005D04813009F072CF80915C04882309F473
:1038F0004ACF80915C04883308F468CF10925D044D
:1039000080916F008D7F43CF892BCACF80915C045B
:10391000893059F4308181E090E001C0880F2A9508
:10392000EAF7809583238083C3CF80915E048F5F05
:1039300080935E0490915F04891750F510925C04A7
:103940008091550490915604A0915E04A80FB92F60
:10395000B11D8C9180935304808141E050E001C0FF
:10396000440F2A95EAF7842B8083809184009091FC
:1039700085008A589E4F90935804809357048091F5
:10398000570490915804909389008093880090CFB9
:1039900081E0809354040091550410915604E09006
:1039A0005104F0905204C8010E943108D82ED0E092
:1039B000C0E0CD1548F4F801EC0FFD1F6081C70190
:1039C0000E9422082196F5CF80E090E0892B11F02B
:1039D0000E94000010925C0481E042CF80915C0460
:1039E0008F3008F47CCFE0915A04F0915B04208181
:1039F0003091590481E090E001C0880F3A95EAF7D0
:103A000080958223808310925C0481E080935D0422
:103A1000E0915104F0915204E357FF4F808191816E
:103A20000196918380835BCF1F920F920FB60F9206
:103A300011248F939F93EF93FF93B59AEFE6F0E0F5
:103A400080818F7D80838091860090918700805156
:103A50009F4F9093580480935704809157049091FE
:103A600058049093890080938800B19A8081826085
:103A7000808384E080935D0410925C0481E08093F5
:103A80004203FF91EF919F918F910F900FBE0F9086
:103A90001F901895CF93C82F61E070E080E090E010
:103AA0000E94AA026C2F70E086E00E94E80262E3A6
:103AB00070E080E090E0CF910C94AA02CF93C82FE1
:103AC00080911F04811117C080911C0181FF13C0D8
:103AD00080912004880F0E944A1DC093FB036C2F25
:103AE00070E082E10E94E80262E370E080E090E032
:103AF000CF910C94AA020E94B8019C01AEE1B0E003
:103B00000E94EA2E2FEF33E040E050E00E94A92E01
:103B1000822FE1CF893128F529E0829FF00111241D
:103B2000EF59FE4F85819681803127E29207C8F4D4
:103B3000883E23E09207B8F484369105B0F40A97E2
:103B4000B0F481E090913D03891B990B853091057C
:103B500080F4880F991FFC01E95AFE4F8081918102
:103B6000089585E0EFCF84E0EDCF83E0EBCF82E0F6
:103B7000E9CF90E080E008958931B8F429E0829F90
:103B8000F0011124EF59FE4F85819681803127E2A3
:103B9000920758F4883E23E0920748F48436910552
:103BA00040F40A9740F481E0089585E0089584E0A8
:103BB000089583E0089582E00895EF92FF920F93B5
:103BC0001F93CF93DF93CDB7DEB7E2970FB6F8948C
:103BD000DEBF0FBECDBF082FF92E6091B8056D7FF7
:103BE0006093B805686083EA95E00E94920D83EACD
:103BF00095E00E94C70D60E080E00E94950D8BED7E
:103C000091E00E94780D60E083E00E94950DE090C5
:103C10001D041DEE1E0D1A3018F480E20E946F0D77
:103C2000612F70E090E080E04AE00E94B70F1CEE48
:103C30001E0D60E086E00E94950D8FEC91E09A8366
:103C4000898387EC91E09C838B838DEB91E09E834D
:103C50008D8383EB91E098878F838BEA91E09A873D
:103C6000898783EA91E09C878B878BE991E09E8727
:103C70008D8781E991E0988B8F878AE891E09A8B14
:103C8000898B80E891E09C8B8B8B87E791E09E8B02
:103C90008D8B8EE691E0988F8F8B85E691E09A8FE1
:103CA000898F8BE591E09C8F8B8F81E591E09E8FD2
:103CB0008D8F86E491E098A38F8F8EE391E09AA395
:103CC00089A383E391E09CA38BA388E291E09EA368
:103CD0008DA38FE191E098A78FA384E191E09AA74B
:103CE00089A78AE091E09CA78BA780E091E09EA73E
:103CF0008DA785EF90E098AB8FA78AEE90E09AAB06
:103D000089AB86EE90E0193140F4E12FF0E0EE0F40
:103D1000FF1FEC0FFD1F818192810E94780D61E0F1
:103D200080E00E94950D80913E03882319F08EE378
:103D30000E946F0D193180F589E0189FF001112460
:103D4000EF59FE4F8781823039F5802F0E94051090
:103D500080913E0381114EC0193150F489E0189FC3
:103D6000F0011124EF59FE4F8085882309F444C0E7
:103D700061E08EE00E94950D88ED91E0E2960FB62D
:103D8000F894DEBF0FBECDBFDF91CF911F910F9191
:103D9000FF90EF900C94780D812F0E94BC1D682F2E
:103DA000802F9F2D0E943210D3CF89E0189FF00101
:103DB0001124EF59FE4F808581111EC061E0809172
:103DC0003D030E94950D6091B805862F8260809317
:103DD000B8056A6083EA95E0E2960FB6F894DEBF14
:103DE0000FBECDBFDF91CF911F910F91FF90EF904C
:103DF0000C94920D1931C8F2E2960FB6F894DEBF1A
:103E00000FBECDBFDF91CF911F910F91FF90EF902B
:103E100008951F93CF93DF93C0913F03D091400348
:103E20002196D0934003C0933F0361E080E00E945D
:103E3000950DC038D10538F089E990E0DF91CF9138
:103E40001F910C94780DC0913F03D09140038C2FAB
:103E50000E94940180E096E00E94A807182F882312
:103E600011F08430D1F480EA90E00E94780DDD27D3
:103E7000C031D10518F480E30E946F0DBE0190E0BF
:103E800080E040E10E94B70F80E2143009F48FE334
:103E9000DF91CF911F910C946F0D2196D093400329
:103EA000C0933F03C6CFCF92DF92EF92FF92109262
:103EB00003061092020628EEC22E23E0D22EE12C39
:103EC000F12CC0920406D0920506E0920606F0920C
:103ED000070688E792E0909301068093000686E04B
:103EE0008093140680E88093150688E08093160678
:103EF00010921706109218061092190610921A06C0
:103F000061E086E00E9449020E94DC02609317068D
:103F1000709318068093190690931A068DE3809388
:103F20000C0680E096E090931306809312061092A0
:103F30000D068FEF80930E0680930F0610921106E8
:103F4000109210061092FE051092FD051092FF05CA
:103F50001092A6051092A5051092BD051092B70506
:103F60008FE08093A7058EE08093A8058DE0809375
:103F7000A9058CE08093AA058BE08093AB058AE0CD
:103F80008093AC0589E08093AD051092B20561E0A5
:103F90006093B30582E08093B40583E08093B50518
:103FA00084E08093B6058CE992E09093A405809319
:103FB000A3051092BF051092C0051092C105109282
:103FC000C2052AE030E03093C4052093C305109267
:103FD000C5051092C6051092C8051092C905109229
:103FE000CA051092CB053093CD052093CC051092D5
:103FF000CE051092CF051092D1051092D2051092E5
:10400000D3051092D4053093D6052093D505109290
:10401000D7051092D8051092DA051092DB051092A0
:10402000DC051092DD053093DF052093DE0510924C
:10403000E0051092E1051092E3051092E40510925C
:10404000E5051092E6053093E8052093E705109208
:10405000E9051092EA058CE28093A205109286058C
:1040600010928505C0928705D0928805E092890557
:10407000F0928A058AE892E0909384058093830504
:1040800010929A051092990510929C0510929B052A
:1040900010929E0510929D051092A00510929F050A
:1040A0008091A1058E7F8D7F8093A105869581707B
:1040B00068278BE00E941B0261E08BE00E944902AE
:1040C000E7ECF2E0E491E0939305E3EBF2E0E491B6
:1040D000F0E0EE0FFF1FE256FD4F85919491909313
:1040E00095058093940560E08AE00E9449028091E2
:1040F000A10581FD04C061E08AE00E941B028AE004
:1041000080938F05E6ECF2E0E491E0939005E2EB1A
:10411000F2E0E491F0E0EE0FFF1FEC56FD4F8591C9
:104120009491909392058093910594E1C92ED12C9E
:10413000E12CF12CC0927805D0927905E0927A05B5
:10414000F0927B0510927C0510927D0510927E0501
:1041500010927F050E94DC026093740570937505D0
:10416000809376059093770584E00E94F201809316
:10417000800584E080938105C0926905D0926A052C
:10418000E0926B05F0926C0510926D0510926E0531
:1041900010926F05109270050E94DC026093650515
:1041A00070936605809367059093680585E00E948B
:1041B000F2018093710585E080937205FF90EF9086
:1041C000DF90CF900895CF93DF93CDB7DEB761979F
:1041D0000FB6F894DEBF0FBECDBF789484B5826071
:1041E00084BD84B5816084BD85B5826085BD85B59B
:1041F000816085BD80916E00816080936E00109219
:104200008100809181008260809381008091810093
:104210008160809381008091800081608093800024
:104220008091B10084608093B1008091B000816082
:104230008093B00080917A00846080937A008091AE
:104240007A00826080937A0080917A008E7F8093DA
:104250007A0080917A00806880937A001092C10081
:104260006CE0E62E61E0F62E72E0C72ED12CC6017E
:104270000E94932E182FC60101960E94932E212F83
:1042800030E0322F2227820F932F911DD7018D937B
:104290009D937D01B2E0CB0ED11CE4E3CE16D10498
:1042A00031F78091180190911901459728F465E143
:1042B00070E086E00E94041480911A0190911B0125
:1042C000059711F00E94381480912C0180FF64C082
:1042D000E0E6F4E08FE8DF011D928A95E9F761E0FE
:1042E00087E00E944902E3ECF2E02491EFEAF2E079
:1042F000E491F0E0EE0FFF1FE256FD4F459154911F
:1043000080E091E031E0291741F08F5F932F082E74
:1043100001C0990F0A94EAF7F6CF50935B044093DB
:104320005A048093590480E694E090935204809359
:1043300051042098E0915A04F0915B04208130915F
:10434000590481E090E001C0880F3A95EAF7809522
:10435000822380831092800091E0909381001092DC
:104360005D04B59A80916F00806280936F008091A8
:104370008100887F8160809381009093EF0380911A
:104380002C0182FF09C01092400410923F0484E087
:10439000809341040E9407091092F7031092D403FE
:1043A0001092D3031092F3031092F4031092F503CA
:1043B0001092F6031092F80380912C0190912D0138
:1043C00085709927059709F08CC00E9427058DE319
:1043D0000E94940180E096E00E94A807811103C02A
:1043E00081E08093F20380E70E94940180E096E0F0
:1043F0000E94A807811175C081E08093D20380914B
:10440000FD059091FE05009711F00E94D93186E0DC
:1044100090E00E943D318C0180E7F801808380E0CC
:1044200096E092838183138280E290E09583848377
:104430001093FE050093FD050E94270581E0D80139
:1044400013968C93C8010E94C707882309F449C0BA
:1044500081E2898B41E050E0BE016F5E7F4F809129
:10446000FD059091FE050E94C1091092EE05109283
:10447000ED051092F0051092EF051092F2051092E2
:10448000F1051092F4051092F3051092F6051092C2
:10449000F5051092F8051092F7051092FA051092A2
:1044A000F9051092FC051092FB050E94F50981E8C0
:1044B000898341E050E0BE016F5F7F4F8091FD0531
:1044C0009091FE050E94C1098FEE898341E050E082
:1044D000BE016F5F7F4F8091FD059091FE050E94A8
:1044E000C1090E947D10E090140180911501F090A7
:1044F0001601D0901C01D7FE07C090912C0190FDB1
:1045000003C0BF2DBC7EFB2E0E2D182FF0FC07C064
:10451000B801660F771F627084E00E944902F1FCC7
:1045200005C06E2D627085E00E944902F4FC0EC049
:1045300080912C0180FD0AC0B80123E07595679534
:104540002A95E1F7627088E00E94490295E015958E
:1045500007959A95E1F7602F62708CE00E944902FE
:1045600062E083E00E94490262E08FE00E9449021B
:1045700062E080E10E94490262E081E10E9449021A
:10458000F5FC04C061E089E00E94490261E08DE031
:104590000E94490220913401309135014AE0429F46
:1045A000C001439F900D1124B0E0A0E080937805F6
:1045B00090937905A0937A05B0937B0510927C05C2
:1045C00010927D0510927E0510927F0580936905FB
:1045D00090936A05A0936B05B0936C0510926D05DE
:1045E00010926E0510926F05109270051092DE0306
:1045F000D2FE42C00E94270584E20E94940180E01E
:1046000096E00E94A807182F811136C064E08DED56
:1046100093E00E94FE0740E0612F8DED93E00E9441
:10462000120C612F8DED93E00E94290A1F5F10315B
:1046300091F781E08093DE0385E20E94940180E09F
:1046400096E00E94A807182F811116C065E08CED36
:1046500093E00E94FE0740E0612F8CED93E00E9402
:10466000120C612F8CED93E00E94290A1F5F10311C
:1046700091F781E08093DB0310929E0510929D05D7
:1046800010929C0510929B0510929A051092990524
:104690008DEC90E09093A00580939F0590918F05FD
:1046A000963108F047C025E530E030939A05209315
:1046B00099052BEC30E030939C0520939B0520E975
:1046C00030E030939E0520939D052091680084E0A2
:1046D000983048F031E09E3008F430E081E001C0CD
:1046E000880F3A95EAF7822B809368002DE630E038
:1046F000983050F02BE630E09E3030F02CE630E081
:10470000963110F030E020E0309397052093960525
:10471000292F30E0983008F0BDC081E001C0880F3B
:104720009A95EAF78093980580919F059091A0054E
:104730000197F1F780919D0590919E05892B49F194
:10474000E091D703F091D80325E0E338F20709F1AF
:10475000309739F0A389B4899C9185898095892304
:104760008C938091A1058E7F8093A1051092D60332
:104770001092D50383E895E09093D8038093D703F4
:10478000E0919605F0919705808190919805892B8D
:10479000808383E895E09093DA038093D90385E6DC
:1047A00093E090933A048093390461E070E080E0F4
:1047B00090E00E94AA020E94230922242A948FE3F7
:1047C000382EFF24F39411E00E94DC028090E20373
:1047D0009090E303A090E403B090E5036819790991
:1047E0008A099B096E3771058105910520F10E94A8
:1047F000DC026093E2037093E3038093E4039093FD
:10480000E5038091E1038F258093E103882399F0EC
:1048100080912D048F2580932D04882361F0809151
:10482000E0038F258093E003882329F08091DF0344
:104830008F258093DF0380912E0490912F04892B84
:1048400009F026C10E94DC0280901706909018069D
:10485000A0901906B0901A06681979098A099B096F
:10486000653171058105910508F462C00E94DC0282
:1048700060931706709318068093190690931A0692
:104880000091150680911606013C88F08195809371
:1048900016060FC09E3040F42850310981E001C057
:1048A000880F2A95EAF73ECF2E503109F7CF003214
:1048B00068F380911606080F00931506E090140621
:1048C00061E08E2D0E944902011105C060E08E2D2D
:1048D0000E941B022DC00F3F11F461E0F8CFEE2DB6
:1048E000F0E0E05EFD4FE491E33009F4B5C040F440
:1048F000E130D1F0E23009F4AAC007FDEECFE6CFF7
:10490000E73009F4B5C0E83009F4BAC0E430A9F7DB
:1049100080918000806280938000802F90E090934F
:104920008B0080938A0004C084B5806884BD07BD75
:104930000E947D108091E603813011F40E9453148F
:104940008091EF038111A8C01092FA031092F9032D
:104950008091F803882381F180912C0182FF2CC083
:1049600083FD2AC02091F70370E6872E7AEE972EFA
:10497000A12CB12C222359F030E050E040E060E659
:104980007AEE80E090E00E94C82E49015A010E9410
:10499000DC024090F3035090F4036090F5037090B4
:1049A000F603641975098609970986169706A806FD
:1049B000B90610F40E9407098091F203882309F4D4
:1049C00097C461E080910C060E944F061092140576
:1049D00080931305813009F47DC482E890E09093C0
:1049E00011068093100680910D0682FD81C480918E
:1049F000F103882309F47FC44090140150901501FD
:104A0000D0901601E0901C0160902C0170902D0157
:104A1000B1E06B227724E7FE85C46114710409F0CC
:104A200081C4ED2DEC7EDE2ECC24C39488E00E9460
:104A3000F2015201BB244201F0E18F22992401E0EE
:104A400044FC72C4892B09F472C400E070C484B5BC
:104A5000806284BD08BD6CCF8091800080688093A7
:104A60008000802F90E0909389008093880060CF31
:104A70008091B00080688093B0000093B30058CF5D
:104A80008091B00080628093B0000093B40050CF5A
:104A900060912D0486E01CCF80E694E00E944F12C6
:104AA000FC019093EE038093ED03892B09F463C31B
:104AB0007181272F30E06281462F50E0CA01969520
:104AC000982F88279795879580789770872B932BB9
:104AD000A081A23B29F10196A13B09F49CC070F48E
:104AE000A33809F48AC0A03B09F490C0A23849F564
:104AF00080E090E0892B29F180E085C0AC3B09F48F
:104B0000A0C0A03D09F4A7C0A43BD9F47C33C9F4EC
:104B100080E090E0892BA9F08CE30E94000011C096
:104B200022E030E065FD02C021E030E040E050E0EE
:104B3000452B39F0880F991F6071820F931F0E94D7
:104B4000000090912C0192FFF5C0E091ED03F091EF
:104B5000EE03828194FFEBC08B3709F0EBC08081BC
:104B60008F3E29F4828586FD02C080648287808121
:104B7000877F873E09F0DEC0858190E8899F90019C
:104B800011248481820F932F911DD101A81BB90B91
:104B9000B093EC03A093EB03828586FF75C38091ED
:104BA0003F0490914004181619060CF0C3C08EE023
:104BB000A2E4B4E001900D928A95E1F781E00E94B1
:104BC000640F8091410482FF11C080914704B0E8D6
:104BD0008B9F9001112480914604820F932F911D89
:104BE000F101E81BF90BCF010E947B0F22E030E0BE
:104BF0003093400420933F049DC080E090E0892BD7
:104C000009F49FCF81E00E9400009BCF4072607149
:104C10000E945E0996CF66FF0AC0A0E0B0E0AB2B11
:104C200009F48FCF407260710E9400008ACFE0E0EB
:104C3000F0E0EF2B09F485CF407160720E94000014
:104C400080CF20E030E0232B09F47BCF40726071ED
:104C50000E94000076CF7076703221F07036C1F17C
:104C600071116FCF80E090E0892B09F46ACFC90100
:104C70009695982F88279795879580789F70840FB1
:104C8000951FA5E035952795AA95E1F72170019626
:104C900033814481E42FF0E0AF013D3731F070E81B
:104CA000379FA00111244E0F5F1F6F7081F162309A
:104CB00081F1643081F1663081F1683081F16A30D0
:104CC00081F16C3081F16E3081F10E94000039CFAA
:104CD00080E090E0892B09F434CFE3808E2D807D35
:104CE000803109F02ECFC480DD24D39401E041E06F
:104CF0008E2D8D2109F040E02C2D2D21DD0C602F13
:104D000080E80E9400000F5F053089F71ACF61E448
:104D1000DCCF62E4DACF63E4D8CF64E4D6CF65E4D5
:104D2000D4CF66E4D2CF67E4D0CF68E4CECF8B3760
:104D300009F41DCF6090ED037090EE03C3010E9453
:104D40003108803109F017C2D3018C91853E09F0FA
:104D500012C214968C911497823009F00CC21696E8
:104D60002C91169780910C0190910D01281719062E
:104D700009F0E8C117962C91179780911A0190912C
:104D80001B012817190609F0DDC115968C9115979E
:104D900090E09C01E4E0220F331FEA95E1F72078D0
:104DA0001996AC901997E894A7F82A2930E0322F89
:104DB000222705E0880F991F0A95E1F78078189659
:104DC000AC90E894A7F8A82AA20EB32EB11C6501F6
:104DD000B1E0CB1AD1088C2CE8E1EC1550F029E0B9
:104DE000C29EF0011124EF59FE4F31E087818130DE
:104DF00009F030E0D30113968C918130F1F5B9E1DF
:104E0000CB16D104D0F5F301828590E063856F77EE
:104E1000AC015695542F442757954795262F240FBC
:104E2000332309F438C246E0880F991F4A95E1F709
:104E3000807864856F77862B682F70E0762F6627E1
:104E4000620F711D8C2D0E943314E091ED03F091DF
:104E5000EE03838180648383F8E14FEFF81530F02F
:104E6000F601EE0FFF1FE45FFE4F4081E12C00E0F2
:104E700020E060E08A2D0E944B13E091ED03F09159
:104E8000EE0383818230B9F429E1C216D10498F48B
:104E900082E4838338E14FEF381530F0F601EE0FEE
:104EA000FF1FE45FFE4F4081E12C00E020E060E066
:104EB0008A2D0E944B13E091ED03F091EE03838164
:104EC000833009F04BC049E1C416D10408F046C054
:104ED000628570E0CB019695982F882797958795E6
:104EE000992723852F77280F392F311D06E0660F6C
:104EF000771F0A95E1F76078772784858F77682B8D
:104F000058E18FEF9FEF581538F0F601EE0FFF1FB5
:104F1000E45FFE4F8081918126233723232B09F400
:104F2000BCC1682B792B8C2D0E943314E091ED03CA
:104F3000F091EE0383818064838378E14FEF7815ED
:104F400030F0F601EE0FFF1FE45FFE4F4081E12CD1
:104F500000E020E060E08A2D0E944B13E091ED0319
:104F6000F091EE038381853009F084C089E1C81691
:104F7000D10408F07FC0828590E0BC01A6E0660FF6
:104F8000771FAA95E1F7A62FA078EA2E64856F77A0
:104F9000E62ABC01B5E0660F771FBA95E1F7062F48
:104FA000007865856F77062BBC0124E0660F771FBC
:104FB0002A95E1F7B62FB0787B2E66856F77762A33
:104FC00063856F779695982F882797958795680FB3
:104FD00070E08C2D0E943314992493949C0C6E2DB8
:104FE00070E0892D0E94331442E0E42EEC0C602F17
:104FF00070E08E2D0E94331403E00C0D672D70E0DD
:10500000802F0E943314E091ED03F091EE03838131
:1050100080648383E8E14FEFE81530F0F601EE0F8E
:10502000FF1FE45FFE4F4081F8E12FEFF91538F0E4
:10503000E92DF0E0EE0FFF1FE45FFE4F208138E125
:105040008FEF3E1538F0EE2DF0E0EE0FFF1FE45F1E
:10505000FE4F8081EE24EA94093138F4E02FF0E02D
:10506000EE0FFF1FE45FFE4FE080082F60E08A2D07
:105070000E944B13E091ED03F091EE0383818630A3
:10508000B1F549E1C416D10490F586E4838358E173
:105090004FEF581530F0F601EE0FFF1FE45FFE4FA3
:1050A0004081E1E0EC0D2FEFE93130F4F0E0EE0F5C
:1050B000FF1FE45FFE4F2081E2E0EC0D0FEFE931CE
:1050C00030F4F0E0EE0FFF1FE45FFE4F0081E3E0FD
:1050D000EC0DEE24EA94E93130F4F0E0EE0FFF1F1E
:1050E000E45FFE4FE08060E08A2D0E944B13E09168
:1050F000ED03F091EE038381883061F488E48383CB
:1051000040911A01E42E00910C0120E06DE08AE349
:105110000E944B13E091ED03F091EE0383818F30F9
:1051200089F40E943814E091ED03F091EE0383813D
:1051300080648383E12C00E020E040E06B2D8A2D29
:105140000E944B13E091ED03F091EE0386818111F3
:1051500012C0878181110FC08381873061F487E499
:10516000838340911A01E42E00910C0120E06DE050
:105170008AE30E944B1380912C0182FFE9CB0E94AD
:10518000DC028090E7039090E803A090E903B090E0
:10519000EA03AB01BC01481959096A097B09433488
:1051A00051056105710508F4D3CBD501C4018D5BB0
:1051B0009F4FAF4FBF4F8093E7039093E803A093B7
:1051C000E903B093EA0380913F0490914004029771
:1051D00009F043C08091460490914504890F809363
:1051E000460487FF25C0909141048F778093460441
:1051F000809147048F5F8093470487FF19C08DE635
:1052000080934604892F8170885880934704809149
:1052100048048F5F8F3708F045C08093480491FFA2
:1052200055C08FEE8093420482E494E00E943D08D2
:105230008091410482FF11C08091470470E8879FEC
:105240009001112480914604820F932F911DD1016A
:10525000A81BB90BCD010E947B0F80913F04909158
:105260004004892B09F074CB8BEB89838BE78A830D
:105270001B82CE0101960E943D08E1E0F0E0F09330
:105280004004E0933F0464CB43E050E0509340047B
:1052900040933F044FCD80E0CFCD6095709568235B
:1052A000792341CE83E48093480480914A048F5F40
:1052B00087FD03C080934A04B2CF88E680934A04F6
:1052C00080914B048F5F80934B04A9CF80E00E94B4
:1052D000640FAECF8091120690911306DC01ED9120
:1052E000FC910284F385E02D099580930D067DCB1A
:1052F0001092F10381CB1093F1038091F003813080
:1053000071F482E08093F0038091F203882309F422
:1053100073CB8091F0038C6F0E94AB076DCB109321
:10532000F003F2CFC12C82CB892B09F48ECB6728F6
:1053300011F000E0C12CD1FE7AC010922504D4FCFB
:10534000D6C080912C0180FDD2C088E00E94F2017D
:105350009C01892809F0CEC081E0232B09F480E06C
:1053600080932304E0901C01D0FECBC01092220455
:1053700000912504E3FE01C1109225048CE00E94F7
:10538000F2019C01A6FC00C181E0232B09F480E01E
:105390008093210483E00E94F201EE24E394892BA0
:1053A00009F0E12C8FE00E94F201892B09F0F3C093
:1053B00082E0E82A80E10E94F201892B09F0EDC029
:1053C00084E0E82A81E10E94F201892B09F0E7C01C
:1053D00088E0E82AE0922004C090120110931F0494
:1053E00010921E0480911D04823109F4AEC1809197
:1053F0001C048111AAC10111D4C0E11022C142E0F4
:10540000C4121FC10E943009E0912C04E93008F059
:10541000D2C0F0E0E25FF54D0C9437312D2B772BA5
:10542000A82BC02BD62BEC2B0D2C322C352CE4FECC
:1054300041C085E695E00E94A90380917105909195
:105440007305A0FE19C0992309F479CF882319F0B8
:105450001092240472CF80913C0180932404CC20CC
:1054600019F00111109224048091240481110E94EA
:1054700030091093250463CF992391F0882381F09C
:1054800080913C0180932404CC2019F001111092EA
:1054900024048091240481110E9430091093250472
:1054A00080917305882309F44ACF80917105811199
:1054B00046CFCECF85E00E94F20121E0892B09F48E
:1054C00020E020932504CC2019F00111109225042E
:1054D000A1FE05C0809125048F258093250480912D
:1054E0002504882309F42BCF1092240428CF10928E
:1054F000230438CF91E0232B09F090E0909323040C
:1055000031CF450121E082229924E4FE1EC084E7C8
:1055100095E00E94A90380918005909182058928D9
:1055200069F0992309F424CF811120CF109322042C
:10553000CC2009F41DCF01111BCF18CF992309F4FA
:1055400017CF882309F412CFF1CF84E00E94F20133
:1055500021E0892B09F420E020932204CC2021F0C3
:10556000011102C010922204892809F401CF809110
:1055700022048F2580932204FBCE80912304082BE4
:105580000093250400E0FACE91E0232B09F090E08F
:1055900090932104FFCE80E00CCF80E012CF80E01A
:1055A00018CF80901E0190901F01D7FC02C081107F
:1055B00038C00E94300960911B048DE00E941B02DC
:1055C000D5FC9CC1E0902001E110A3C2D7FE68C1C8
:1055D00080912304811102C0002321F010920E0457
:1055E00010920D0480912204811109C080910E0453
:1055F000811105C080910D04882309F485C2E091D2
:105600000C04E83008F04CC1F0E0E75FF44D0C9476
:1056100037313B2CDD2CE72C172D1F2D452D5B2D15
:105620007F2D0E94B80163E0880C991C6A95E1F710
:1056300038EF832237E093228816990608F4BBCF0F
:10564000B8CF53E0C512E0CE80912504882309F439
:10565000DBCE84E080932C04D7CE81E0E11001C042
:1056600080E080931B04EE2009F4A5CF10932C0456
:1056700080911F048823F1F08091200480FF0EC0E8
:1056800081E00E945E1D0E94DC026093170470930B
:1056900018048093190490931A048DCF81FF02C0DF
:1056A00082E0EFCF82FF02C083E0EBCF83FFEBCF3E
:1056B00084E0E7CF809124048111E3CF80911E0420
:1056C0008111DFCF8091FA03882321F08091F903C3
:1056D0008111D7CF80911C0180FF06C081FD04C0DD
:1056E000809120048F5FCDCF80910E01CACF809131
:1056F0002104882369F080912E0490912F048E7FDD
:1057000090932F0480932E0482E080932C0453CF37
:105710000E94DC0240901704509018046090190415
:1057200070901A046419750986099709613D7740DC
:105730008105910508F43FCF80912E0490912F04AC
:10574000816090932F0480932E0410922C0433CF09
:10575000B2E0CB1203C0EE2009F42BCF80912104DC
:10576000811129CF83E080932C040E94DC02609396
:1057700013047093140480931504909316041BCFA4
:1057800084E0CC2011F2E2E0CE120BC0EE2009F44E
:1057900010CF8091260190912701892BB1F285E0ED
:1057A000B4CFF4E088E0CF12F4CFAFCFE11003CF55
:1057B000C110CBCF8091320190913301892B29F216
:1057C0000E94DC0260930F04709310048093110414
:1057D0009093120486E099CF809126019091270141
:1057E00024E6289F2001299F500C1124712C612C44
:1057F0000E94DC022091130430911404409115049E
:1058000050911604621B730B840B950B46165706BA
:105810006806790608F499CFCECE209132013091F6
:10582000330188EE93E0289F2001299F500C389F78
:10583000500C1124712C612C0E94DC0220910F0469
:10584000309110044091110450911204621B730BAB
:10585000840B950B461657066806790608F0ABCE02
:1058600087E053CFE110A7CE70CF8091200488232A
:1058700009F46BCFA0CE0E94DC0260930804709301
:10588000090480930A0490930B0410930C04109263
:105890000D0480911C0185FB882780F980930E04FC
:1058A000809107049091FC03892B809307048091D9
:1058B0001C0186FF1CC020913A012223C1F0809177
:1058C000FB038F709FEF980F983088F49091070436
:1058D000992369F08150990B41E050E002C0440FD8
:1058E000551F8A95E2F7242311F410920704609162
:1058F0000704A5FC6F2589E00E941B020E94270572
:1059000082E20E94940180E096E00E94A807E12CC8
:10591000811119C000912B04011113C041E0602FC7
:1059200088E294E00E94120C0F5F0031B9F71092E8
:1059300027041092260470E060E088E294E00E9460
:10594000E607EE24E394E0922B0410933E010E94BC
:10595000C30AEE2089F0E0912C049FEFE33320F49A
:10596000F0E0EE5BFD4F908183FF90C19F779095B3
:10597000909329040E9443090E94C30A082F0E94A1
:105980003509EE2081F0833308F082C1E82FF0E082
:10599000EE5BFD4F808104FF7DC18F778095809302
:1059A0002A040E94430980E090E0892B11F40C94B2
:1059B000E4230E9400000C94E12380912201909145
:1059C0002301892B21F182E080930C0469CF80911F
:1059D00022019091230124E6289F2001299F500C49
:1059E0001124712C612C0E94DC022091080430915A
:1059F000090440910A0450910B04621B730B840B41
:105A0000950B461657066806790608F049CF10939D
:105A1000070483E080930C040E94DC02609303047B
:105A200070930404809305049093060439CF809109
:105A3000240190912501892B31F184E0C5CF80911B
:105A400024019091250124E6289F2001299F500CD4
:105A50001124712C612C0E94DC02209103043091EE
:105A600004044091050450910604621B730B840BDF
:105A7000950B461657066806790608F011CF109266
:105A8000070410920E0485E09FCF80913801909119
:105A90003901892B91F10E94DC026093FF0370931E
:105AA0000004809301049093020486E080930C0428
:105AB00010930D04F5CE809138019091390124E6C0
:105AC000289F2001299F500C1124712C612C0E94C9
:105AD000DC022091FF0330910004409101045091B9
